:100000000C942A000C9447000C9447000C94470071
:100010000C9447000C9447000C9447000C94470044
:100020000C9447000C9447000C9447000C94470034
:100030000C9447000C9447000C9447000C94470024
:100040000C9447000C9447000C9447000C94470014
:100050000C94470011241FBECFE5D8E0DEBFCDBF12
:1000600011E0A0E6B0E0E4EDFAE702C005900D92E1
:10007000AC31B107D9F711E0ACE1B1E001C01D929C
:10008000AD32B107E1F70E9435210C94683D0C9424
:100090000000EF92FF920F931F937B018C0120E0F1
:1000A00030E040E05FE40E94F50388238CF0C80153
:1000B000B70120E030E040E05FE40E94C1010E940F
:1000C00055049B01AC01205030404040504806C0D0
:1000D000C801B7010E9455049B01AC01B901CA01D6
:1000E0001F910F91FF90EF900895A0E0B0E0EBE733
:1000F000F0E00C94313DDC012B01FA019C9192302F
:1001000008F439C1EB018881823008F433C194309E
:1001100069F4843009F02FC111969C91119789815F
:10012000981709F428C1A9EFB0E025C1843009F47B
:1001300021C18230A9F4923009F01DC19A01AD01AC
:1001400088E0EA010990AE01E90109929E0181501F
:10015000C1F7E201898111969C918923818308C1AD
:10016000923009F407C112962D903C901397EB0141
:100170008A819B811496AD90BD90CD90DC901797AD
:10018000EC80FD800E811F819101281B390BB90184
:1001900037FF04C066277727621B730B6032710537
:1001A0000CF061C0121613066CF537014801062EDB
:1001B00004C096948794779467940A94D2F721E0C8
:1001C00030E040E050E004C0220F331F441F551FB1
:1001D0006A95D2F721503040404050402E213F21B7
:1001E00040235123211531054105510521F021E01E
:1001F00030E040E050E079018A01E628F72808293C
:1002000019293CC0232BD1F1260E371E350146019A
:10021000062E04C096948794779467940A94D2F734
:1002200021E030E040E050E004C0220F331F441FC3
:10023000551F6A95D2F721503040404050402A2146
:100240003B214C215D21211531054105510521F04E
:1002500021E030E040E050E059016A01A628B728CB
:10026000C828D9280BC0821593052CF01C01AA249C
:10027000BB24650103C0EE24FF24870111969C91E5
:10028000D20111968C91981709F445C0992339F041
:10029000A80197012A193B094C095D0906C0A6016E
:1002A00095012E193F09400B510B57FD08C01182D3
:1002B0003382228224833583468357831DC081E0A5
:1002C00081833382228288279927DC01821B930B4A
:1002D000A40BB50B84839583A683B7830DC0220F2F
:1002E000331F441F551F24833583468357838281E0
:1002F000938101979383828324813581468157813D
:10030000DA01C9010197A109B1098F5F9F4FAF4F72
:10031000BF4328F30BC0918333822282EA0CFB1C7B
:100320000C1D1D1DE482F5820683178383E0808304
:10033000248135814681578157FF1AC0C901AA27F8
:1003400097FDA095BA2F81709070A070B0705695EF
:10035000479537952795822B932BA42BB52B848318
:100360009583A683B7838281938101969383828349
:10037000DF0101C0D201CD01CDB7DEB7E2E10C94BF
:100380004D3DA0E2B0E0E7ECF1E00C943D3D698327
:100390007A838B839C832D833E834F835887E9E048
:1003A000EE2EF12CEC0EFD1ECE010196B7010E943F
:1003B0007E058E010F5E1F4FCE010596B8010E948B
:1003C0007E058A8991E089278A8BC701B801AE0131
:1003D000475E5F4F0E9475000E94A904A096E6E068
:1003E0000C94593DA0E2B0E0E8EFF1E00C943D3D03
:1003F00069837A838B839C832D833E834F835887C5
:10040000F9E0EF2EF12CEC0EFD1ECE010196B701A6
:100410000E947E058E010F5E1F4FCE010596B8012A
:100420000E947E05C701B801AE01475E5F4F0E9482
:1004300075000E94A904A096E6E00C94593DA0E244
:10044000B0E0E5E2F2E00C94313D69837A838B837E
:100450009C832D833E834F835887CE010196BE0136
:10046000675F7F4F0E947E05CE010596BE016F5EDD
:100470007F4F0E947E059985923088F0898982306D
:10048000C8F0943019F4823051F404C0843029F457
:10049000923081F489EF90E0C6C0923049F420E0B8
:1004A0009A858A89981321E02A87CE010996BBC0D4
:1004B000823049F420E09A858A89981321E02A8BBA
:1004C000CE014196B0C02D843E844F8458886D88FB
:1004D0007E888F88988CEE24FF248701AA24BB2471
:1004E000650140E050E060E070E0E0E0F0E0C10174
:1004F00081709070892BE9F0E60CF71C081D191D1E
:100500009A01AB012A0D3B1D4C1D5D1D80E090E062
:10051000A0E0B0E0E614F7040805190520F481E036
:1005200090E0A0E0B0E0BA01A901480F591F6A1F8E
:100530007B1FAA0CBB1CCC1CDD1C97FE08C081E0F5
:1005400090E0A0E0B0E0A82AB92ACA2ADB2A3196B6
:10055000E032F10549F0660C771C881C991C569412
:10056000479437942794C3CFFA85EA892B893C892D
:100570008B859C85280F391F2E5F3F4F17C0CA01FE
:1005800081709070892B61F016950795F794E79428
:1005900080E090E0A0E0B0E8E82AF92A0A2B1B2BC3
:1005A00076956795579547952F5F3F4F77FDE7CF36
:1005B0000CC0440F551F661F771F17FD4160EE0CDE
:1005C000FF1C001F111F21503040403090E05907A0
:1005D00090E0690790E4790760F32B8F3C8FDB0193
:1005E000CA018F779070A070B07080349105A1051A
:1005F000B10561F447FD0AC0E114F10401051105DC
:1006000029F0405C5F4F6F4F7F4F40781A8EFE1786
:1006100011F081E08A8F4D8F5E8F6F8F78A383E01A
:10062000898FCE0149960E94A904A096E2E10C941C
:100630004D3DA8E1B0E0EFE1F3E00C94393D698372
:100640007A838B839C832D833E834F835887B9E0C5
:10065000EB2EF12CEC0EFD1ECE010196B7010E948F
:100660007E058E010F5E1F4FCE010596B8010E94D8
:100670007E052985223008F47EC03989323010F495
:10068000B8017CC08A859A8989278A87243011F02D
:10069000223031F4231709F06EC069EF70E06EC0AC
:1006A000343039F41D861E861F86188A1C861B86E8
:1006B00004C0323021F484E08987B7015FC02B8504
:1006C0003C858B899C89281B390B3C872B87ED84C3
:1006D000FE840F851889AD88BE88CF88D88CEA142F
:1006E000FB040C051D0540F4EE0CFF1C001F111F40
:1006F000215030403C872B8720E030E040E050E044
:1007000080E090E0A0E0B0E460E070E0EA14FB0478
:100710000C051D0540F0282B392B4A2B5B2BEA18C2
:10072000FB080C091D09B695A79597958795EE0CC2
:10073000FF1C001F111F6F5F7F4F6F31710531F775
:10074000DA01C9018F779070A070B0708034910584
:10075000A105B10561F427FD0AC0E114F10401050A
:10076000110529F0205C3F4F4F4F5F4F20782D87B8
:100770003E874F87588BBE01675F7F4FCB010E943A
:10078000A9046896EAE00C94553DA8E1B0E0EBECD2
:10079000F3E00C943D3D69837A838B839C832D83A6
:1007A0003E834F83588789E0E82EF12CEC0EFD1E26
:1007B000CE010196B7010E947E058E010F5E1F4F8C
:1007C000CE010596B8010E947E058985823040F0F1
:1007D0008989823028F0C701B8010E94F60501C05E
:1007E0008FEF6896E6E00C94593DA8E1B0E0EBEF9E
:1007F000F3E00C943D3D69837A838B839C832D8346
:100800003E834F83588789E0E82EF12CEC0EFD1EC5
:10081000CE010196B7010E947E058E010F5E1F4F2B
:10082000CE010596B8010E947E058985823040F090
:100830008989823028F0C701B8010E94F60501C0FD
:100840008FEF6896E6E00C94593DA8E1B0E0EBE24A
:10085000F4E00C943D3D69837A838B839C832D83E4
:100860003E834F83588789E0E82EF12CEC0EFD1E65
:10087000CE010196B7010E947E058E010F5E1F4FCB
:10088000CE010596B8010E947E058985823040F030
:100890008989823028F0C701B8010E94F60501C09D
:1008A00081E06896E6E00C94593DACE0B0E0EBE501
:1008B000F4E00C94413D69837A838B839C83CE0161
:1008C0000196BE016B5F7F4F0E947E058D81823055
:1008D00061F1823050F1843021F48E81882351F10E
:1008E0002EC02F81388537FD20C06E812F31310514
:1008F0001CF06623F9F023C08EE190E0821B930B7D
:1009000029853A854B855C8504C056954795379572
:1009100027958A95D2F76623B1F05095409530958A
:1009200021953F4F4F4F5F4F0EC020E030E040E039
:1009300050E009C02FEF3FEF4FEF5FE704C020E02A
:1009400030E040E050E8B901CA012C96E2E00C9496
:100950005D3DDF92EF92FF920F931F93FC01E480C5
:10096000F58006811781D1808081823048F480E053
:1009700090E0A0E1B0E0E82AF92A0A2B1B2BA5C0E1
:10098000843009F49FC0823021F4EE24FF248701D3
:1009900005C0E114F1040105110519F4E0E0F0E0EF
:1009A00096C0628173819FEF623879070CF05BC05B
:1009B00022E83FEF261B370B2A3131052CF020E0CF
:1009C00030E040E050E02AC0B801A701022E04C088
:1009D00076956795579547950A94D2F781E090E010
:1009E000A0E0B0E004C0880F991FAA1FBB1F2A9582
:1009F000D2F70197A109B1098E219F21A023B1232C
:100A00000097A105B10521F081E090E0A0E0B0E001
:100A10009A01AB01282B392B4A2B5B2BDA01C90138
:100A20008F779070A070B07080349105A105B105EA
:100A300039F427FF09C0205C3F4F4F4F5F4F04C080
:100A4000215C3F4F4F4F5F4FE0E0F0E02030A0E0EF
:100A50003A07A0E04A07A0E45A0710F0E1E0F0E00E
:100A600079018A0127C06038710564F5FB01E158FE
:100A7000FF4FD801C7018F779070A070B07080349D
:100A80009105A105B10539F4E7FE0DC080E490E0C1
:100A9000A0E0B0E004C08FE390E0A0E0B0E0E80E9A
:100AA000F91E0A1F1B1F17FF05C016950795F7941F
:100AB000E794319687E016950795F794E7948A9521
:100AC000D1F705C0EE24FF248701EFEFF0E06E2F91
:100AD000679566276795902F9F77D794DD24D794E5
:100AE0008E2F8695492F462B582F5D29B701CA01B5
:100AF0001F910F91FF90EF90DF900895FC01DB01B3
:100B0000408151812281622F6F7770E0221F22275E
:100B1000221F9381892F880F822B282F30E0991F65
:100B20009927991F11969C93119721153105A9F5C5
:100B3000411551056105710511F482E037C082E865
:100B40009FEF13969C938E9312979A01AB0167E0E7
:100B5000220F331F441F551F6A95D1F783E08C93F2
:100B60000DC0220F331F441F551F12968D919C916B
:100B70001397019713969C938E931297203080E0E1
:100B8000380780E0480780E4580758F314962D93FF
:100B90003D934D935C93179708952F3F310579F45A
:100BA000411551056105710519F484E08C93089590
:100BB00064FF03C081E08C9312C01C9210C02F57B9
:100BC000304013963C932E93129783E08C9387E0EA
:100BD000440F551F661F771F8A95D1F770641496CE
:100BE0004D935D936D937C93179708951F93DC014C
:100BF000FB019C91923008F447C08081823008F458
:100C000043C0943051F411961C91843099F5818140
:100C1000682F70E0611B71093FC0843021F0923071
:100C200031F48230B9F18181882389F12DC0119688
:100C30001C9111978230F1F081811817D9F4129626
:100C40002D913C911397828193818217930794F0A1
:100C500028173907BCF014968D919D910D90BC9189
:100C6000A02D2481358146815781281739074A07ED
:100C70005B0718F4112341F00AC082179307A407F9
:100C8000B50740F4112319F061E070E005C06FEF83
:100C90007FEF02C060E070E0CB011F910895DF9309
:100CA000CF93CDB7DEB7A7E2B0E0E7E2F0E0808116
:100CB0008F778C93A7E2B0E0E7E2F0E08081806478
:100CC0008C93A7E2B0E0E7E2F0E080818F7D8C9327
:100CD000A7E2B0E0E7E2F0E080818F7E8C93A7E2AC
:100CE000B0E0E7E2F0E08081877F8C93A7E2B0E09C
:100CF000E7E2F0E080818B7F8C93A7E2B0E0E7E24F
:100D0000F0E080818D7F8C93A7E2B0E0E7E2F0E035
:100D100080818E7F8C93A6E2B0E0E6E2F0E08081F5
:100D200080688C93A6E2B0E0E6E2F0E080818F7B01
:100D30008C93A6E2B0E0E6E2F0E080818F7D8C93B8
:100D4000A6E2B0E0E6E2F0E0808180618C93A6E26A
:100D5000B0E0E6E2F0E08081877F8C93A6E2B0E02D
:100D6000E6E2F0E080818B7F8C93A6E2B0E0E6E2E1
:100D7000F0E0808182608C93A6E2B0E0E6E2F0E0F1
:100D800080818E7F8C93CF91DF910895DF93CF93F5
:100D900000D00F92CDB7DEB78B831A821982A7E2FB
:100DA000B0E0E7E2F0E08081807E8C93A7E2B0E0E3
:100DB000E7E2F0E08081982F8B818F71892B8C93F3
:100DC000A6E2B0E0E6E2F0E0808180648C93E6E2A7
:100DD000F0E0808182958F70882F90E08170907014
:100DE0000097A9F3A6E2B0E0E6E2F0E0808180613E
:100DF0008C93E4E2F0E08081882F90E09A838983ED
:100E0000E5E2F0E08081882F90E0982F88279C0110
:100E100089819A81822B932B9A83898389819A81F4
:100E20000F900F900F90CF91DF910895DF93CF93A4
:100E300000D000D000D0CDB7DEB78B836C838B8120
:100E40008695869586958A838B81877089838A812A
:100E5000282F30E03E832D838D819E818130910546
:100E600009F443C02D813E81223031052CF48D815F
:100E70009E81009771F0BCC02D813E8122303105EA
:100E800009F45FC08D819E818330910509F485C08E
:100E9000AFC08C818130A1F4AAE3B0E0EAE3F0E0D6
:100EA0008081482F8981282F30E081E090E0022E58
:100EB00002C0880F991F0A94E2F7842B8C9398C084
:100EC000AAE3B0E0EAE3F0E08081482F8981282F8F
:100ED00030E081E090E0022E02C0880F991F0A9452
:100EE000E2F7809584238C9383C08C818130A1F4B8
:100EF000A7E3B0E0E7E3F0E08081482F8981282F65
:100F000030E081E090E0022E02C0880F991F0A9421
:100F1000E2F7842B8C936CC0A7E3B0E0E7E3F0E04A
:100F20008081482F8981282F30E081E090E0022ED7
:100F300002C0880F991F0A94E2F7809584238C934E
:100F400057C08C818130A1F4A4E3B0E0E4E3F0E089
:100F50008081482F8981282F30E081E090E0022EA7
:100F600002C0880F991F0A94E2F7842B8C9340C02B
:100F7000A4E3B0E0E4E3F0E08081482F8981282FEA
:100F800030E081E090E0022E02C0880F991F0A94A1
:100F9000E2F7809584238C932BC08C818130A1F45F
:100FA000A1E3B0E0E1E3F0E08081482F8981282FC0
:100FB00030E081E090E0022E02C0880F991F0A9471
:100FC000E2F7842B8C9314C0A1E3B0E0E1E3F0E0FE
:100FD0008081482F8981282F30E081E090E0022E27
:100FE00002C0880F991F0A94E2F7809584238C939E
:100FF00026960FB6F894DEBF0FBECDBFCF91DF911E
:101000000895DF93CF9300D000D000D0CDB7DEB7E6
:101010008B836C838B818695869586958A838B815D
:10102000877089838A81282F30E03E832D838D81CC
:101030009E818130910509F443C02D813E8122308B
:1010400031052CF48D819E81009771F0BCC02D81FB
:101050003E812230310509F45FC08D819E8183304D
:10106000910509F485C0AFC08C818130A1F4ABE358
:10107000B0E0EBE3F0E08081482F8981282F30E059
:1010800081E090E0022E02C0880F991F0A94E2F7D7
:10109000842B8C9398C0ABE3B0E0EBE3F0E080816D
:1010A000482F8981282F30E081E090E0022E02C095
:1010B000880F991F0A94E2F7809584238C9383C04C
:1010C0008C818130A1F4A8E3B0E0E8E3F0E0808116
:1010D000482F8981282F30E081E090E0022E02C065
:1010E000880F991F0A94E2F7842B8C936CC0A8E3B5
:1010F000B0E0E8E3F0E08081482F8981282F30E0DC
:1011000081E090E0022E02C0880F991F0A94E2F756
:10111000809584238C9357C08C818130A1F4A5E302
:10112000B0E0E5E3F0E08081482F8981282F30E0AE
:1011300081E090E0022E02C0880F991F0A94E2F726
:10114000842B8C9340C0A5E3B0E0E5E3F0E0808120
:10115000482F8981282F30E081E090E0022E02C0E4
:10116000880F991F0A94E2F7809584238C932BC0F3
:101170008C818130A1F4A2E3B0E0E2E3F0E0808171
:10118000482F8981282F30E081E090E0022E02C0B4
:10119000880F991F0A94E2F7842B8C9314C0A2E362
:1011A000B0E0E2E3F0E08081482F8981282F30E031
:1011B00081E090E0022E02C0880F991F0A94E2F7A6
:1011C000809584238C9326960FB6F894DEBF0FBECD
:1011D000CDBFCF91DF910895DF93CF93CDB7DEB729
:1011E000E1E3F0E08FE08083E2E3F0E08FEF8083E3
:1011F000CF91DF910895DF93CF93CDB7DEB72A97D4
:101200000FB6F894DEBF0FBECDBFA2E3B0E0E2E3BD
:10121000F0E080818E7F8C93A2E3B0E0E2E3F0E027
:10122000808182608C93A2E3B0E0E2E3F0E0808111
:1012300084608C93A2E3B0E0E2E3F0E08081886018
:101240008C93E0E3F0E08081807F89838981282F7F
:1012500030E03A87298789859A85803B9105D9F0C6
:1012600029853A85213B310534F489859A85803773
:101270009105A1F016C029853A85203D310541F040
:1012800089859A85803E910561F491E09887EEC04A
:1012900022E02887EBC033E03887E8C08BE28887FC
:1012A000E5C0A2E3B0E0E2E3F0E0808181608C93EE
:1012B000A2E3B0E0E2E3F0E080818D7F8C93A2E3D3
:1012C000B0E0E2E3F0E0808184608C93A2E3B0E0E0
:1012D000E2E3F0E0808188608C93E0E3F0E08081DD
:1012E000807F89838981282F30E03F832E838E8100
:1012F0009F81803B9105D9F02E813F81213B3105B3
:1013000034F48E819F8180379105A1F016C02E8123
:101310003F81203D310541F08E819F81803E9105C6
:1013200061F494E09887A2C025E028879FC036E04A
:1013300038879CC08DE2888799C0A2E3B0E0E2E3E1
:10134000F0E0808181608C93A2E3B0E0E2E3F0E022
:10135000808182608C93A2E3B0E0E2E3F0E08081E0
:101360008B7F8C93A2E3B0E0E2E3F0E080818860C1
:101370008C93E0E3F0E08081807F89838981282F4E
:1013800030E03D832C838C819D81803B9105D9F099
:101390002C813D81213B310534F48C819D81803746
:1013A0009105A1F016C02C813D81203D310541F011
:1013B0008C819D81803E910561F497E0988756C0AD
:1013C00028E0288753C039E0388750C08AE28887F0
:1013D0004DC0A2E3B0E0E2E3F0E0808181608C9355
:1013E000A2E3B0E0E2E3F0E0808182608C93A2E3CC
:1013F000B0E0E2E3F0E0808184608C93A2E3B0E0AF
:10140000E2E3F0E08081877F8C93E0E3F0E080818D
:10141000807F89838981282F30E03B832A838A81DA
:101420009B81803B9105D1F02A813B81213B310595
:1014300034F48A819B818037910599F015C02A8107
:101440003B81203D310541F08A819B81803E9105A1
:1014500059F493E298870AC0188608C02DE32887BC
:1014600005C03FE2388702C08FEF888788852A96BB
:101470000FB6F894DEBF0FBECDBFCF91DF910895B8
:10148000DF93CF93CDB7DEB72F970FB6F894DEBFBB
:101490000FBECDBF8F8780E060E00E94010881E031
:1014A00060E00E9401088F85982F917080E1692F7C
:1014B0000E9401088F858695982F917081E1692F90
:1014C0000E9401088F8586958695982F917082E1FC
:1014D000692F0E9401088F85869586958695982F9D
:1014E000917083E1692F0E9401088F8582958F702A
:1014F000982F917084E1692F0E9401088F85829551
:1015000086958770982F917085E1692F0E94010858
:101510008F858295869586958370982F917086E148
:10152000692F0E9401088F85982F991F9927991F6D
:1015300087E1692F0E94010882E061E00E940108B2
:1015400080E090E0A0E0B0E48B879C87AD87BE8709
:101550006B857C858D859E8520E030E04AEF54E4E4
:101560000E941F02DC01CB018F839887A987BA876D
:101570006F81788589859A8520E030E040E85FE3D7
:101580000E94250488232CF481E090E09E838D83C3
:101590003FC06F81788589859A8520E03FEF4FE7CE
:1015A00057E40E94C50318164CF56B857C858D8524
:1015B0009E8520E030E040E251E40E941F02DC0101
:1015C000CB01BC01CD010E944900DC01CB019E830F
:1015D0008D830FC088EC90E09C838B838B819C81F2
:1015E0000197F1F79C838B838D819E8101979E8368
:1015F0008D838D819E81009769F714C06F817885F6
:1016000089859A850E944900DC01CB019E838D83E8
:101610008D819E819A83898389819A810197F1F7CF
:101620009A83898382E060E00E9401082F960FB6BA
:10163000F894DEBF0FBECDBFCF91DF910895DF9349
:10164000CF93CDB7DEB72F970FB6F894DEBF0FBE9E
:10165000CDBF8F8780E061E00E94010881E060E0FB
:101660000E9401088F85982F917080E1692F0E9458
:1016700001088F858695982F917081E1692F0E94CE
:1016800001088F8586958695982F917082E1692F44
:101690000E9401088F85869586958695982F917072
:1016A00083E1692F0E9401088F8582958F70982FA2
:1016B000917084E1692F0E9401088F85829586953B
:1016C0008770982F917085E1692F0E9401088F859E
:1016D0008295869586958370982F917086E1692F03
:1016E0000E9401088F85982F991F9927991F87E1DC
:1016F000692F0E94010882E061E00E94010880E0F9
:1017000090E0A0E0B0E48B879C87AD87BE876B85B7
:101710007C858D859E8520E030E04AEF54E40E9470
:101720001F02DC01CB018F839887A987BA876F815D
:10173000788589859A8520E030E040E85FE30E9463
:10174000250488232CF481E090E09E838D833FC0A4
:101750006F81788589859A8520E03FEF4FE757E4D0
:101760000E94C50318164CF56B857C858D859E857A
:1017700020E030E040E251E40E941F02DC01CB0196
:10178000BC01CD010E944900DC01CB019E838D8309
:101790000FC088EC90E09C838B838B819C810197A8
:1017A000F1F79C838B838D819E8101979E838D832E
:1017B0008D819E81009769F714C06F817885898536
:1017C0009A850E944900DC01CB019E838D838D8127
:1017D0009E819A83898389819A810197F1F79A83FF
:1017E000898382E060E00E9401082F960FB6F8948A
:1017F000DEBF0FBECDBFCF91DF910895DF93CF93B2
:10180000CDB7DEB7AA970FB6F894DEBF0FBECDBF37
:1018100080E061E00E94160781E061E00E94160707
:1018200082E061E00E94160780E161E00E941607F5
:1018300081E161E00E94160782E161E00E941607E3
:1018400083E161E00E94160784E161E00E941607CF
:1018500085E161E00E94160786E161E00E941607BB
:1018600087E161E00E94160788E30E94400A80E059
:1018700090E0A0E0B0E48FA398A7A9A7BAA76FA1B2
:1018800078A589A59AA520E030E04AEF54E40E94AB
:101890001F02DC01CB018BA39CA3ADA3BEA36BA154
:1018A0007CA18DA19EA120E030E040E85FE30E9492
:1018B000250488232CF481E090E09AA389A33FC0FB
:1018C0006BA17CA18DA19EA120E03FEF4FE757E4E3
:1018D0000E94C50318164CF56FA178A589A59AA595
:1018E00020E030E040E251E40E941F02DC01CB0125
:1018F000BC01CD010E944900DC01CB019AA389A360
:101900000FC088EC90E098A38F8F8F8D98A10197DE
:10191000F1F798A38F8F89A19AA101979AA389A320
:1019200089A19AA1009769F714C06BA17CA18DA130
:101930009EA10E944900DC01CB019AA389A389A141
:101940009AA19E8F8D8F8D8D9E8D0197F1F79E8F21
:101950008D8F8CE00E94400A80E090E0A0E0B0E42F
:10196000898F9A8FAB8FBC8F698D7A8D8B8D9C8D73
:1019700020E030E04AEF54E40E941F02DC01CB017A
:101980008D8B9E8BAF8BB88F6D897E898F89988D5B
:1019900020E030E040E85FE30E94250488232CF437
:1019A00081E090E09C8B8B8B3FC06D897E898F8915
:1019B000988D20E03FEF4FE757E40E94C5031816CB
:1019C0004CF5698D7A8D8B8D9C8D20E030E040E266
:1019D00051E40E941F02DC01CB01BC01CD010E9439
:1019E0004900DC01CB019C8B8B8B0FC088EC90E015
:1019F0009A8B898B89899A890197F1F79A8B898BC0
:101A00008B899C8901979C8B8B8B8B899C890097F8
:101A100069F714C06D897E898F89988D0E9449006D
:101A2000DC01CB019C8B8B8B8B899C89988B8F875E
:101A30008F8598890197F1F7988B8F8781E00E94B5
:101A4000400A80E090E0A0E0B0E48B879C87AD87FF
:101A5000BE876B857C858D859E8520E030E04AEFD2
:101A600054E40E941F02DC01CB018F839887A98771
:101A7000BA876F81788589859A8520E030E040E8D3
:101A80005FE30E94250488232CF481E090E09E838C
:101A90008D833FC06F81788589859A8520E03FEFEF
:101AA0004FE757E40E94C50318164CF56B857C85FB
:101AB0008D859E8520E030E040E251E40E941F02C7
:101AC000DC01CB01BC01CD010E944900DC01CB014E
:101AD0009E838D830FC088EC90E09C838B838B81E9
:101AE0009C810197F1F79C838B838D819E81019767
:101AF0009E838D838D819E81009769F714C06F81CD
:101B0000788589859A850E944900DC01CB019E83F6
:101B10008D838D819E819A83898389819A810197A2
:101B2000F1F79A838983AA960FB6F894DEBF0FBEA9
:101B3000CDBFCF91DF910895DF93CF9300D00F9267
:101B4000CDB7DEB78B831A82198208C080E10E946C
:101B5000400A89819A8101969A8389838B81282FF3
:101B600030E089819A818217930784F30F900F9058
:101B70000F90CF91DF910895DF93CF9300D00F9214
:101B8000CDB7DEB79B838A830EC08981282F30E0D2
:101B90008A819B81FC01E20FF31F80810E941F0B51
:101BA00089818F5F89838981282F30E08A819B8199
:101BB000FC01E20FF31F8081882339F70F900F900B
:101BC0000F90CF91DF910895DF93CF93CDB7DEB71C
:101BD00089E061E00E9416078AE061E00E94160732
:101BE0008BE061E00E9416078CE061E00E9416071E
:101BF000CF91DF9108950F931F93DF93CF93CDB7CC
:101C0000DEB7C758D1400FB6F894DEBF0FBECDBFC8
:101C1000FE01EE57FE4F8083FE01ED57FE4F6083BD
:101C2000FE01EE57FE4F80818C3411F00C942F187A
:101C3000FE01ED57FE4F8081282F30E0CA57DE4F5E
:101C400039832883C658D140CA57DE4F888199818D
:101C5000C658D1408A35910561F0CA57DE4FE881F8
:101C6000F981C658D140E43BF10509F4FDC40C9458
:101C70002921FE01EF57FE4F1082EDC489E060E09C
:101C80000E9401088AE060E00E9401088BE060E0A9
:101C90000E9401088CE061E00E940108FE01E35807
:101CA000FE4F80E090E0AAE7B4E480839183A283B2
:101CB000B3838E0107581E4FFE01E358FE4F60812B
:101CC0007181828193812BEA3AEA4AE250E40E94D0
:101CD0001F02DC01CB01F80180839183A283B383CF
:101CE000FE01E758FE4F608171818281938120E07F
:101CF00030E040E85FE30E942504882334F4FE01CD
:101D0000E858FE4F81E08083E0C0FE01E758FE4FB7
:101D1000608171818281938120E030E04FE753E45C
:101D20000E94C50318160CF0C0C0FE01E358FE4F18
:101D3000608171818281938120E030E04AE754E440
:101D40000E941903DC01CB01FE01EC58FE4F808399
:101D50009183A283B3838E0100591E4FFE01EC587C
:101D6000FE4F608171818281938120E030E04AEFF3
:101D700054E40E941F02DC01CB01F80180839183AF
:101D8000A283B383FE01E059FE4F6081718182819D
:101D9000938120E030E040E85FE30E94250488233F
:101DA00044F4FE01E259FE4F81E090E0918380838C
:101DB00064C0FE01E059FE4F608171818281938190
:101DC00020E03FEF4FE757E40E94C50318160CF0E0
:101DD00043C0FE01EC58FE4F608171818281938186
:101DE00020E030E040E251E40E941F02DC01CB0120
:101DF0008E0102591E4FBC01CD010E944900DC0139
:101E0000CB01F801918380831FC0FE01E459FE4F8E
:101E100088EC90E091838083FE01E459FE4F80813D
:101E200091810197F1F7FE01E459FE4F9183808380
:101E3000DE01A259BE4FFE01E259FE4F8081918121
:101E4000019711969C938E93FE01E259FE4F80817B
:101E500091810097D1F64BC08E0102591E4FFE01B1
:101E6000E059FE4F60817181828193810E94490017
:101E7000DC01CB01F80191838083DE01A659BE4FBE
:101E8000FE01E259FE4F8081918111969C938E93C1
:101E9000FE01E659FE4F808191810197F1F7FE0125
:101EA000E659FE4F9183808322C08E0108581E4F51
:101EB000FE01E758FE4F60817181828193810E940B
:101EC0004900DC01CB01F8018083DE01A759BE4F38
:101ED000FE01E858FE4F80818C93FE01E759FE4FCA
:101EE00080818A95F1F7FE01E759FE4F808389E0F2
:101EF00060E00E9401088AE060E00E9401088BE037
:101F000061E00E9401088CE060E00E940108FE018F
:101F1000EB59FE4F80E090E0AAE7B4E48083918320
:101F2000A283B3838E010F591E4FFE01EB59FE4F62
:101F300060817181828193812BEA3AEA4AE250E41E
:101F40000E941F02DC01CB01F80180839183A283F0
:101F5000B383FE01EF59FE4F6081718182819381CD
:101F600020E030E040E85FE30E942504882334F459
:101F7000FE01E05AFE4F81E08083E0C0FE01EF5990
:101F8000FE4F608171818281938120E030E04FE7D4
:101F900053E40E94C50318160CF0C0C0FE01EB59B3
:101FA000FE4F608171818281938120E030E04AE7B9
:101FB00054E40E941903DC01CB01FE01E45AFE4FF8
:101FC00080839183A283B3838E01085A1E4FFE0142
:101FD000E45AFE4F608171818281938120E030E07C
:101FE0004AEF54E40E941F02DC01CB01F801808318
:101FF0009183A283B383FE01E85AFE4F6081718111
:102000008281938120E030E040E85FE30E94250474
:10201000882344F4FE01EA5AFE4F81E090E0918368
:10202000808364C0FE01E85AFE4F60817181828125
:10203000938120E03FEF4FE757E40E94C503181655
:102040000CF043C0FE01E45AFE4F60817181828131
:10205000938120E030E040E251E40E941F02DC0165
:10206000CB018E010A5A1E4FBC01CD010E944900CE
:10207000DC01CB01F801918380831FC0FE01EC5A83
:10208000FE4F88EC90E091838083FE01EC5AFE4F76
:10209000808191810197F1F7FE01EC5AFE4F918307
:1020A0008083DE01AA5ABE4FFE01EA5AFE4F8081AC
:1020B0009181019711969C938E93FE01EA5AFE4FEF
:1020C000808191810097D1F64BC08E010A5A1E4F34
:1020D000FE01E85AFE4F60817181828193810E94E6
:1020E0004900DC01CB01F80191838083DE01AE5A07
:1020F000BE4FFE01EA5AFE4F8081918111969C935A
:102100008E93FE01EE5AFE4F808191810197F1F787
:10211000FE01EE5AFE4F9183808322C08E01005A49
:102120001E4FFE01EF59FE4F6081718182819381C4
:102130000E944900DC01CB01F8018083DE01AF5A27
:10214000BE4FFE01E05AFE4F80818C93FE01EF5A94
:10215000FE4F80818A95F1F7FE01EF5AFE4F808392
:1021600089E060E00E9401088AE061E00E940108C5
:102170008BE060E00E9401088CE060E00E940108B2
:10218000FE01E35BFE4F80E090E0AAE7B4E48083C9
:102190009183A283B3838E01075B1E4FFE01E35B35
:1021A000FE4F60817181828193812BEA3AEA4AE293
:1021B00050E40E941F02DC01CB01F801808391836F
:1021C000A283B383FE01E75BFE4F60817181828150
:1021D000938120E030E040E85FE30E9425048823FB
:1021E00034F4FE01E85BFE4F81E08083E0C0FE0135
:1021F000E75BFE4F608171818281938120E030E056
:102200004FE753E40E94C50318160CF0C0C0FE014E
:10221000E35BFE4F608171818281938120E030E039
:102220004AE754E40E941903DC01CB01FE01EC5B98
:10223000FE4F80839183A283B3838E01005C1E4F87
:10224000FE01EC5BFE4F608171818281938120E011
:1022500030E04AEF54E40E941F02DC01CB01F80198
:1022600080839183A283B383FE01E05CFE4F608193
:1022700071818281938120E030E040E85FE30E9439
:102280002504882344F4FE01E25CFE4F81E090E0E7
:102290009183808364C0FE01E05CFE4F60817181A8
:1022A0008281938120E03FEF4FE757E40E94C5030E
:1022B00018160CF043C0FE01EC5BFE4F608171818B
:1022C0008281938120E030E040E251E40E941F02CD
:1022D000DC01CB018E01025C1E4FBC01CD010E94CE
:1022E0004900DC01CB01F801918380831FC0FE010E
:1022F000E45CFE4F88EC90E091838083FE01E45C17
:10230000FE4F808191810197F1F7FE01E45CFE4F61
:1023100091838083DE01A25CBE4FFE01E25CFE4F32
:1023200080819181019711969C938E93FE01E25CCE
:10233000FE4F808191810097D1F64BC08E01025CE7
:102340001E4FFE01E05CFE4F6081718182819381AE
:102350000E944900DC01CB01F80191838083DE01FA
:10236000A65CBE4FFE01E25CFE4F8081918111961A
:102370009C938E93FE01E65CFE4F808191810197D4
:10238000F1F7FE01E65CFE4F9183808322C08E014F
:10239000085B1E4FFE01E75BFE4F60817181828109
:1023A00093810E944900DC01CB01F8018083DE01AA
:1023B000A75CBE4FFE01E85BFE4F80818C93FE015F
:1023C000E75CFE4F80818A95F1F7FE01E75CFE4FE6
:1023D000808389E061E00E9401088AE060E00E9459
:1023E00001088BE060E00E9401088CE060E00E9440
:1023F0000108FE01EB5CFE4F80E090E0AAE7B4E448
:1024000080839183A283B3838E010F5C1E4FFE01F4
:10241000EB5CFE4F60817181828193812BEA3AEA05
:102420004AE250E40E941F02DC01CB01F8018083E4
:102430009183A283B383FE01EF5CFE4F60817181C3
:102440008281938120E030E040E85FE30E94250430
:10245000882334F4FE01E05DFE4F81E08083E0C01C
:10246000FE01EF5CFE4F608171818281938120E0EB
:1024700030E04FE753E40E94C50318160CF0C0C0CB
:10248000FE01EB5CFE4F608171818281938120E0CF
:1024900030E04AE754E40E941903DC01CB01FE015D
:1024A000E45DFE4F80839183A283B3838E01085D38
:1024B0001E4FFE01E45DFE4F608171818281938138
:1024C00020E030E04AEF54E40E941F02DC01CB011F
:1024D000F80180839183A283B383FE01E85DFE4F00
:1024E000608171818281938120E030E040E85FE388
:1024F0000E942504882344F4FE01EA5DFE4F81E03A
:1025000090E09183808364C0FE01E85DFE4F6081AE
:1025100071818281938120E03FEF4FE757E40E9471
:10252000C50318160CF043C0FE01E45DFE4F608148
:1025300071818281938120E030E040E251E40E9489
:102540001F02DC01CB018E010A5D1E4FBC01CD01D3
:102550000E944900DC01CB01F801918380831FC0F8
:10256000FE01EC5DFE4F88EC90E091838083FE01DC
:10257000EC5DFE4F808191810197F1F7FE01EC5DEA
:10258000FE4F91838083DE01AA5DBE4FFE01EA5DAE
:10259000FE4F80819181019711969C938E93FE014D
:1025A000EA5DFE4F808191810097D1F64BC08E018C
:1025B0000A5D1E4FFE01E85DFE4F608171818281E0
:1025C00093810E944900DC01CB01F8019183808353
:1025D000DE01AE5DBE4FFE01EA5DFE4F808191815E
:1025E00011969C938E93FE01EE5DFE4F808191814A
:1025F0000197F1F7FE01EE5DFE4F9183808322C0CB
:102600008E01005D1E4FFE01EF5CFE4F6081718107
:10261000828193810E944900DC01CB01F801808313
:10262000DE01AF5DBE4FFE01E05DFE4F80818C9309
:10263000FE01EF5DFE4F80818A95F1F7FE01EF5DAF
:10264000FE4F8083DE01AF57BE4FFE01EF57FE4FB6
:1026500080818F5F8C93FE01EF57FE4F808187381A
:1026600008F40CCB0C942921FE01EF57FE4F108289
:10267000EDC489E060E00E9401088AE060E00E9409
:1026800001088BE060E00E9401088CE061E00E949C
:102690000108FE01E35EFE4F80E090E0AAE7B4E4AB
:1026A00080839183A283B3838E01075E1E4FFE0158
:1026B000E35EFE4F60817181828193812BEA3AEA69
:1026C0004AE250E40E941F02DC01CB01F801808342
:1026D0009183A283B383FE01E75EFE4F6081718127
:1026E0008281938120E030E040E85FE30E9425048E
:1026F000882334F4FE01E85EFE4F81E08083E0C071
:10270000FE01E75EFE4F608171818281938120E04E
:1027100030E04FE753E40E94C50318160CF0C0C028
:10272000FE01E35EFE4F608171818281938120E032
:1027300030E04AE754E40E941903DC01CB01FE01BA
:10274000EC5EFE4F80839183A283B3838E01005F92
:102750001E4FFE01EC5EFE4F60817181828193818C
:1027600020E030E04AEF54E40E941F02DC01CB017C
:10277000F80180839183A283B383FE01E05FFE4F63
:10278000608171818281938120E030E040E85FE3E5
:102790000E942504882344F4FE01E25FFE4F81E09D
:1027A00090E09183808364C0FE01E05FFE4F608112
:1027B00071818281938120E03FEF4FE757E40E94CF
:1027C000C50318160CF043C0FE01EC5EFE4F60819D
:1027D00071818281938120E030E040E251E40E94E7
:1027E0001F02DC01CB018E01025F1E4FBC01CD0137
:1027F0000E944900DC01CB01F801918380831FC056
:10280000FE01E45FFE4F88EC90E091838083FE013F
:10281000E45FFE4F808191810197F1F7FE01E45F53
:10282000FE4F91838083DE01A25FBE4FFE01E25F17
:10283000FE4F80819181019711969C938E93FE01AA
:10284000E25FFE4F808191810097D1F64BC08E01EF
:10285000025F1E4FFE01E05FFE4F60817181828149
:1028600093810E944900DC01CB01F80191838083B0
:10287000DE01A65FBE4FFE01E25FFE4F80819181C7
:1028800011969C938E93FE01E65FFE4F80819181AD
:102890000197F1F7FE01E65FFE4F9183808322C02E
:1028A0008E01085E1E4FFE01E75EFE4F6081718162
:1028B000828193810E944900DC01CB01F801808371
:1028C000DE01A75FBE4FFE01E85EFE4F80818C9364
:1028D000FE01E75FFE4F80818A95F1F7FE01E75F19
:1028E000FE4F808389E060E00E9401088AE060E09A
:1028F0000E9401088BE061E00E9401088CE060E02A
:102900000E940108FE01EB5FFE4F80E090E0AAE725
:10291000B4E480839183A283B3838E010F5F1E4F43
:10292000FE01EB5FFE4F60817181828193812BEA12
:102930003AEA4AE250E40E941F02DC01CB01F801AE
:1029400080839183A283B383FE01EF5FFE4F60819A
:1029500071818281938120E030E040E85FE30E9452
:102960002504882334F4FE01E050FF4F81E080838A
:10297000E0C0FE01EF5FFE4F608171818281938133
:1029800020E030E04FE753E40E94C50318160CF036
:10299000C0C0FE01EB5FFE4F608171818281938137
:1029A00020E030E04AE754E40E941903DC01CB0147
:1029B000FE01E450FF4F80839183A283B3838E0195
:1029C00008501F4FFE01E450FF4F608171818281EA
:1029D000938120E030E04AEF54E40E941F02DC01C2
:1029E000CB01F80180839183A283B383FE01E85079
:1029F000FF4F608171818281938120E030E040E867
:102A00005FE30E942504882344F4FE01EA50FF4F4F
:102A100081E090E09183808364C0FE01E850FF4F25
:102A2000608171818281938120E03FEF4FE757E41D
:102A30000E94C50318160CF043C0FE01E450FF4F7E
:102A4000608171818281938120E030E040E251E435
:102A50000E941F02DC01CB018E010A501F4FBC01F6
:102A6000CD010E944900DC01CB01F80191838083F4
:102A70001FC0FE01EC50FF4F88EC90E091838083F3
:102A8000FE01EC50FF4F808191810197F1F7FE012B
:102A9000EC50FF4F91838083DE01AA50BF4FFE01AF
:102AA000EA50FF4F80819181019711969C938E93FC
:102AB000FE01EA50FF4F808191810097D1F64BC013
:102AC0008E010A501F4FFE01E850FF4F6081718157
:102AD000828193810E944900DC01CB01F80191833E
:102AE0008083DE01AE50BF4FFE01EA50FF4F808170
:102AF000918111969C938E93FE01EE50FF4F808141
:102B000091810197F1F7FE01EE50FF4F9183808391
:102B100022C08E0100501F4FFE01EF5FFE4F60810B
:102B20007181828193810E944900DC01CB01F8010F
:102B30008083DE01AF50BF4FFE01E050FF4F808128
:102B40008C93FE01EF50FF4F80818A95F1F7FE01D3
:102B5000EF50FF4F808389E060E00E9401088AE027
:102B600061E00E9401088BE060E00E9401088CE0B7
:102B700060E00E940108FE01E351FF4F80E090E019
:102B8000AAE7B4E480839183A283B3838E010751C3
:102B90001F4FFE01E351FF4F60817181828193815C
:102BA0002BEA3AEA4AE250E40E941F02DC01CB0120
:102BB000F80180839183A283B383FE01E751FF4F25
:102BC000608171818281938120E030E040E85FE3A1
:102BD0000E942504882334F4FE01E851FF4F81E070
:102BE0008083E0C0FE01E751FF4F608171818281E7
:102BF000938120E030E04FE753E40E94C5031816AC
:102C00000CF0C0C0FE01E351FF4F608171818281F1
:102C1000938120E030E04AE754E40E941903DC018C
:102C2000CB01FE01EC51FF4F80839183A283B383DC
:102C30008E0100521F4FFE01EC51FF4F60817181E8
:102C40008281938120E030E04AEF54E40E941F0229
:102C5000DC01CB01F80180839183A283B383FE0161
:102C6000E052FF4F608171818281938120E030E0EA
:102C700040E85FE30E942504882344F4FE01E25209
:102C8000FF4F81E090E09183808364C0FE01E052B9
:102C9000FF4F608171818281938120E03FEF4FE798
:102CA00057E40E94C50318160CF043C0FE01EC5116
:102CB000FF4F608171818281938120E030E040E2AA
:102CC00051E40E941F02DC01CB018E0102521F4F12
:102CD000BC01CD010E944900DC01CB01F8019183C8
:102CE00080831FC0FE01E452FF4F88EC90E0918387
:102CF0008083FE01E452FF4F808191810197F1F7BB
:102D0000FE01E452FF4F91838083DE01A252BF4F48
:102D1000FE01E252FF4F80819181019711969C93B1
:102D20008E93FE01E252FF4F808191810097D1F690
:102D30004BC08E0102521F4FFE01E052FF4F6081D7
:102D40007181828193810E944900DC01CB01F801ED
:102D500091838083DE01A652BF4FFE01E252FF4FF6
:102D60008081918111969C938E93FE01E652FF4FD4
:102D7000808191810197F1F7FE01E652FF4F918327
:102D8000808322C08E0108511F4FFE01E751FF4F83
:102D900060817181828193810E944900DC01CB01B5
:102DA000F8018083DE01A752BF4FFE01E851FF4FBB
:102DB00080818C93FE01E752FF4F80818A95F1F765
:102DC000FE01E752FF4F808389E061E00E94010825
:102DD0008AE060E00E9401088BE060E00E94010848
:102DE0008CE060E00E940108FE01EB52FF4F80E0A2
:102DF00090E0AAE7B4E480839183A283B3838E0139
:102E00000F521F4FFE01EB52FF4F60817181828193
:102E100093812BEA3AEA4AE250E40E941F02DC0165
:102E2000CB01F80180839183A283B383FE01EF522B
:102E3000FF4F608171818281938120E030E040E822
:102E40005FE30E942504882334F4FE01E053FF4F22
:102E500081E08083E0C0FE01EF52FF4F608171810D
:102E60008281938120E030E04FE753E40E94C50364
:102E700018160CF0C0C0FE01EB52FF4F608171814B
:102E80008281938120E030E04AE754E40E941903F4
:102E9000DC01CB01FE01E453FF4F80839183A283C9
:102EA000B3838E0108531F4FFE01E453FF4F60812F
:102EB00071818281938120E030E04AEF54E40E94E6
:102EC0001F02DC01CB01F80180839183A283B383CD
:102ED000FE01E853FF4F608171818281938120E080
:102EE00030E040E85FE30E942504882344F4FE01BB
:102EF000EA53FF4F81E090E09183808364C0FE013C
:102F0000E853FF4F608171818281938120E03FEF20
:102F10004FE757E40E94C50318160CF043C0FE01AA
:102F2000E453FF4F608171818281938120E030E022
:102F300040E251E40E941F02DC01CB018E010A53E2
:102F40001F4FBC01CD010E944900DC01CB01F801FB
:102F5000918380831FC0FE01EC53FF4F88EC90E00B
:102F600091838083FE01EC53FF4F80819181019713
:102F7000F1F7FE01EC53FF4F91838083DE01AA53EA
:102F8000BF4FFE01EA53FF4F808191810197119657
:102F90009C938E93FE01EA53FF4F808191810097AD
:102FA000D1F64BC08E010A531F4FFE01E853FF4F6D
:102FB00060817181828193810E944900DC01CB0193
:102FC000F80191838083DE01AE53BF4FFE01EA53C7
:102FD000FF4F8081918111969C938E93FE01EE5359
:102FE000FF4F808191810197F1F7FE01EE53FF4F72
:102FF0009183808322C08E0100531F4FFE01EF5248
:10300000FF4F60817181828193810E944900DC01C0
:10301000CB01F8018083DE01AF53BF4FFE01E053C7
:10302000FF4F80818C93FE01EF53FF4F80818A9583
:10303000F1F7FE01EF53FF4F8083DE01AF57BE4F24
:10304000FE01EF57FE4F80818F5F8C93FE01EF579B
:10305000FE4F80818A3F08F40CCB0C942921FE019D
:10306000EE57FE4F8081823511F00C942921FE012C
:10307000ED57FE4F8081282F30E0CC57DE4F39834B
:103080002883C458D140CC57DE4F88819981C458D9
:10309000D1408A35910561F0CC57DE4FE881F98146
:1030A000C458D140E43BF10509F4FCC40C94292137
:1030B000FE01EF57FE4F1082EDC489E061E00E94EF
:1030C00001088AE060E00E9401088BE060E00E9455
:1030D00001088CE060E00E940108FE01E354FF4F0C
:1030E00080E090E8A4E5B4E480839183A283B38375
:1030F0008E0107541F4FFE01E354FF4F6081718121
:10310000828193812BEA3AEA4AE250E40E941F024C
:10311000DC01CB01F80180839183A283B383FE019C
:10312000E754FF4F608171818281938120E030E01C
:1031300040E85FE30E942504882334F4FE01E8544C
:10314000FF4F81E08083E0C0FE01E754FF4F6081C4
:1031500071818281938120E030E04FE753E40E9447
:10316000C50318160CF0C0C0FE01E354FF4F608188
:1031700071818281938120E030E04AE754E40E942B
:103180001903DC01CB01FE01EC54FF4F80839183D6
:10319000A283B3838E0100551F4FFE01EC54FF4FF5
:1031A000608171818281938120E030E04AEF54E4B4
:1031B0000E941F02DC01CB01F80180839183A2836E
:1031C000B383FE01E055FF4F60817181828193815D
:1031D00020E030E040E85FE30E942504882344F4C7
:1031E000FE01E255FF4F81E090E09183808364C04F
:1031F000FE01E055FF4F608171818281938120E063
:103200003FEF4FE757E40E94C50318160CF043C088
:10321000FE01EC54FF4F608171818281938120E037
:1032200030E040E251E40E941F02DC01CB018E013C
:1032300002551F4FBC01CD010E944900DC01CB01AA
:10324000F801918380831FC0FE01E455FF4F88EC95
:1032500090E091838083FE01E455FF4F808191814E
:103260000197F1F7FE01E455FF4F91838083DE0162
:10327000A255BF4FFE01E255FF4F8081918101971A
:1032800011969C938E93FE01E255FF4F80819181B0
:103290000097D1F64BC08E0102551F4FFE01E0553D
:1032A000FF4F60817181828193810E944900DC011E
:1032B000CB01F80191838083DE01A655BF4FFE014B
:1032C000E255FF4F8081918111969C938E93FE0170
:1032D000E655FF4F808191810197F1F7FE01E65598
:1032E000FF4F9183808322C08E0108541F4FFE013F
:1032F000E754FF4F60817181828193810E94490070
:10330000DC01CB01F8018083DE01A755BF4FFE0130
:10331000E854FF4F80818C93FE01E755FF4F808179
:103320008A95F1F7FE01E755FF4F808389E060E061
:103330000E9401088AE061E00E9401088BE060E0E1
:103340000E9401088CE060E00E940108FE01EB553C
:10335000FF4F80E090E8A4E5B4E480839183A283EA
:10336000B3838E010F551F4FFE01EB55FF4F608158
:103370007181828193812BEA3AEA4AE250E40E9409
:103380001F02DC01CB01F80180839183A283B38308
:10339000FE01EF55FF4F608171818281938120E0B2
:1033A00030E040E85FE30E942504882334F4FE0106
:1033B000E056FF4F81E08083E0C0FE01EF55FF4FF4
:1033C000608171818281938120E030E04FE753E496
:1033D0000E94C50318160CF0C0C0FE01EB55FF4F4C
:1033E000608171818281938120E030E04AE754E47A
:1033F0000E941903DC01CB01FE01E456FF4F8083DC
:103400009183A283B3838E0108561F4FFE01E456B9
:10341000FF4F608171818281938120E030E04AEF2B
:1034200054E40E941F02DC01CB01F80180839183E8
:10343000A283B383FE01E856FF4F608171818281D0
:10344000938120E030E040E85FE30E942504882378
:1034500044F4FE01EA56FF4F81E090E091838083BF
:1034600064C0FE01E856FF4F6081718182819381C3
:1034700020E03FEF4FE757E40E94C50318160CF019
:1034800043C0FE01E456FF4F6081718182819381C8
:1034900020E030E040E251E40E941F02DC01CB0159
:1034A0008E010A561F4FBC01CD010E944900DC016C
:1034B000CB01F801918380831FC0FE01EC56FF4FC2
:1034C00088EC90E091838083FE01EC56FF4F808171
:1034D00091810197F1F7FE01EC56FF4F91838083B4
:1034E000DE01AA56BF4FFE01EA56FF4F808191814F
:1034F000019711969C938E93FE01EA56FF4F8081AF
:1035000091810097D1F64BC08E010A561F4FFE01E4
:10351000E856FF4F60817181828193810E9449004A
:10352000DC01CB01F80191838083DE01AE56BF4FF1
:10353000FE01EA56FF4F8081918111969C938E93F4
:10354000FE01EE56FF4F808191810197F1F7FE0158
:10355000EE56FF4F9183808322C08E0100561F4F8D
:10356000FE01EF55FF4F60817181828193810E943E
:103570004900DC01CB01F8018083DE01AF56BF4F6B
:10358000FE01E056FF4F80818C93FE01EF56FF4F06
:1035900080818A95F1F7FE01EF56FF4F808389E025
:1035A00060E00E9401088AE060E00E9401088BE070
:1035B00061E00E9401088CE060E00E940108FE01C9
:1035C000E357FF4F80E090E8A4E5B4E48083918363
:1035D000A283B3838E0107571F4FFE01E357FF4FAE
:1035E00060817181828193812BEA3AEA4AE250E458
:1035F0000E941F02DC01CB01F80180839183A2832A
:10360000B383FE01E757FF4F60817181828193810F
:1036100020E030E040E85FE30E942504882334F492
:10362000FE01E857FF4F81E08083E0C0FE01E757CD
:10363000FF4F608171818281938120E030E04FE70C
:1036400053E40E94C50318160CF0C0C0FE01E357F6
:10365000FF4F608171818281938120E030E04AE7F1
:1036600054E40E941903DC01CB01FE01EC57FF4F2B
:1036700080839183A283B3838E0100581F4FFE0184
:10368000EC57FF4F608171818281938120E030E0AF
:103690004AEF54E40E941F02DC01CB01F801808351
:1036A0009183A283B383FE01E058FF4F6081718153
:1036B0008281938120E030E040E85FE30E942504AE
:1036C000882344F4FE01E258FF4F81E090E09183AB
:1036D000808364C0FE01E058FF4F60817181828168
:1036E000938120E03FEF4FE757E40E94C50318168F
:1036F0000CF043C0FE01EC57FF4F60817181828165
:10370000938120E030E040E251E40E941F02DC019E
:10371000CB018E0102581F4FBC01CD010E94490010
:10372000DC01CB01F801918380831FC0FE01E458C6
:10373000FF4F88EC90E091838083FE01E458FF4FB7
:10374000808191810197F1F7FE01E458FF4F918349
:103750008083DE01A258BF4FFE01E258FF4F8081F7
:103760009181019711969C938E93FE01E258FF4F31
:10377000808191810097D1F64BC08E0102581F4F76
:10378000FE01E058FF4F60817181828193810E9428
:103790004900DC01CB01F80191838083DE01A6584A
:1037A000BF4FFE01E258FF4F8081918111969C939B
:1037B0008E93FE01E658FF4F808191810197F1F7CA
:1037C000FE01E658FF4F9183808322C08E01085787
:1037D0001F4FFE01E757FF4F608171818281938106
:1037E0000E944900DC01CB01F8018083DE01A7586B
:1037F000BF4FFE01E857FF4F80818C93FE01E758D1
:10380000FF4F80818A95F1F7FE01E758FF4F8083D3
:1038100089E060E00E9401088AE060E00E940108FF
:103820008BE060E00E9401088CE061E00E940108EA
:10383000FE01EB58FF4F80E090E8A4E5B4E48083FC
:103840009183A283B3838E010F581F4FFE01EB5863
:10385000FF4F60817181828193812BEA3AEA4AE2CB
:1038600050E40E941F02DC01CB01F80180839183A8
:10387000A283B383FE01EF58FF4F60817181828183
:10388000938120E030E040E85FE30E942504882334
:1038900034F4FE01E059FF4F81E08083E0C0FE0177
:1038A000EF58FF4F608171818281938120E030E089
:1038B0004FE753E40E94C50318160CF0C0C0FE0188
:1038C000EB58FF4F608171818281938120E030E06D
:1038D0004AE754E40E941903DC01CB01FE01E459DC
:1038E000FF4F80839183A283B3838E0108591F4FBA
:1038F000FE01E459FF4F608171818281938120E054
:1039000030E04AEF54E40E941F02DC01CB01F801D1
:1039100080839183A283B383FE01E859FF4F6081C6
:1039200071818281938120E030E040E85FE30E9472
:103930002504882344F4FE01EA59FF4F81E090E01A
:103940009183808364C0FE01E859FF4F60817181DB
:103950008281938120E03FEF4FE757E40E94C50347
:1039600018160CF043C0FE01E459FF4F60817181CD
:103970008281938120E030E040E251E40E941F0206
:10398000DC01CB018E010A591F4FBC01CD010E9401
:103990004900DC01CB01F801918380831FC0FE0147
:1039A000EC59FF4F88EC90E091838083FE01EC5945
:1039B000FF4F808191810197F1F7FE01EC59FF4F94
:1039C00091838083DE01AA59BF4FFE01EA59FF4F60
:1039D00080819181019711969C938E93FE01EA5903
:1039E000FF4F808191810097D1F64BC08E010A591B
:1039F0001F4FFE01E859FF4F6081718182819381E1
:103A00000E944900DC01CB01F80191838083DE0133
:103A1000AE59BF4FFE01EA59FF4F80819181119647
:103A20009C938E93FE01EE59FF4F80819181019707
:103A3000F1F7FE01EE59FF4F9183808322C08E0182
:103A400000591F4FFE01EF58FF4F60817181828145
:103A500093810E944900DC01CB01F8018083DE01E3
:103A6000AF59BF4FFE01E059FF4F80818C93FE019B
:103A7000EF59FF4F80818A95F1F7FE01EF59FF4F13
:103A80008083DE01AF57BE4FFE01EF57FE4F8081AE
:103A90008F5F8C93FE01EF57FE4F8081873808F4CB
:103AA0000CCBD7C3FE01EF57FE4F1082CBC389E08A
:103AB00061E00E9401088AE060E00E9401088BE05A
:103AC00060E00E9401088CE060E00E940108FE01B5
:103AD000E35AFF4F80E090E8A4E5B4E4808391834B
:103AE000A283B3838E01075A1F4FFE01E35AFF4F93
:103AF00060817181828193812BEA3AEA4AE250E443
:103B00000E941F02DC01CB01F80180839183A28314
:103B1000B383FE01E75AFF4F6081718182819381F7
:103B200020E030E040E85FE30E942504882334F47D
:103B3000FE01E85AFF4F81E08083E0C0FE01E75AB2
:103B4000FF4F608171818281938120E030E04FE7F7
:103B500053E40E94C50318160CF0C0C0FE01E35ADE
:103B6000FF4F608171818281938120E030E04AE7DC
:103B700054E40E941903DC01CB01FE01EC5AFF4F13
:103B800080839183A283B3838E01005B1F4FFE016C
:103B9000EC5AFF4F608171818281938120E030E097
:103BA0004AEF54E40E941F02DC01CB01F80180833C
:103BB0009183A283B383FE01E05BFF4F608171813B
:103BC0008281938120E030E040E85FE30E94250499
:103BD000882344F4FE01E25BFF4F81E090E0918393
:103BE000808364C0FE01E05BFF4F60817181828150
:103BF000938120E03FEF4FE757E40E94C50318167A
:103C00000CF043C0FE01EC5AFF4F6081718182814C
:103C1000938120E030E040E251E40E941F02DC0189
:103C2000CB018E01025B1F4FBC01CD010E944900F8
:103C3000DC01CB01F801918380831FC0FE01E45BAE
:103C4000FF4F88EC90E091838083FE01E45BFF4F9F
:103C5000808191810197F1F7FE01E45BFF4F918331
:103C60008083DE01A25BBF4FFE01E25BFF4F8081DC
:103C70009181019711969C938E93FE01E25BFF4F19
:103C8000808191810097D1F64BC08E01025B1F4F5E
:103C9000FE01E05BFF4F60817181828193810E9410
:103CA0004900DC01CB01F80191838083DE01A65B32
:103CB000BF4FFE01E25BFF4F8081918111969C9383
:103CC0008E93FE01E65BFF4F808191810197F1F7B2
:103CD000FE01E65BFF4F9183808322C08E01085A6C
:103CE0001F4FFE01E75AFF4F6081718182819381EE
:103CF0000E944900DC01CB01F8018083DE01A75B53
:103D0000BF4FFE01E85AFF4F80818C93FE01E75BB5
:103D1000FF4F80818A95F1F7FE01E75BFF4F8083BB
:103D200089E060E00E9401088AE061E00E940108E9
:103D30008BE060E00E9401088CE060E00E940108D6
:103D4000FE01EB5BFF4F80E090E8A4E5B4E48083E4
:103D50009183A283B3838E010F5B1F4FFE01EB5B48
:103D6000FF4F60817181828193812BEA3AEA4AE2B6
:103D700050E40E941F02DC01CB01F8018083918393
:103D8000A283B383FE01EF5BFF4F6081718182816B
:103D9000938120E030E040E85FE30E94250488231F
:103DA00034F481E0FE01E05CFF4F80839DC0FE01A2
:103DB000EF5BFF4F608171818281938120E030E071
:103DC0004FE753E40E94C50318160CF07EC0FE01B5
:103DD000EB5BFF4F608171818281938120E030E055
:103DE0004AE754E40E941903DC01CB018CAF9DAF7C
:103DF000AEAFBFAF6CAD7DAD8EAD9FAD20E030E01E
:103E00004AEF54E40E941F02DC01CB0188AF99AF56
:103E1000AAAFBBAF68AD79AD8AAD9BAD20E030E015
:103E200040E85FE30E94250488232CF481E090E0C1
:103E30009FAB8EAB3FC068AD79AD8AAD9BAD20E046
:103E40003FEF4FE757E40E94C50318164CF56CADE1
:103E50007DAD8EAD9FAD20E030E040E251E40E94A8
:103E60001F02DC01CB01BC01CD010E944900DC0135
:103E7000CB019FAB8EAB0FC088EC90E09DAB8CABC1
:103E80008CA99DA90197F1F79DAB8CAB8EA99FA939
:103E900001979FAB8EAB8EA99FA9009769F72DC0A4
:103EA00068AD79AD8AAD9BAD0E944900DC01CB01C4
:103EB0009FAB8EAB8EA99FA99BAB8AAB8AA99BA90E
:103EC0000197F1F79BAB8AAB18C0FE01EF5BFF4F88
:103ED00060817181828193810E944900DC01CB0164
:103EE000FE01E05CFF4F8083FE01E05CFF4F8081BC
:103EF00089AB89A98A95F1F789AB89E060E00E94D6
:103F000001088AE060E00E9401088BE061E00E9405
:103F100001088CE060E00E94010880E090E8A4E5E0
:103F2000B4E48DA79EA7AFA7B8AB6DA57EA58FA55E
:103F300098A92BEA3AEA4AE250E40E941F02DC0107
:103F4000CB0189A79AA7ABA7BCA769A57AA58BA522
:103F50009CA520E030E040E85FE30E942504882330
:103F60001CF481E088A791C069A57AA58BA59CA5C2
:103F700020E030E04FE753E40E94C50318160CF030
:103F80007BC06DA57EA58FA598A920E030E04AE70B
:103F900054E40E941903DC01CB018CA39DA3AEA3C2
:103FA000BFA36CA17DA18EA19FA120E030E04AEFCC
:103FB00054E40E941F02DC01CB0188A399A3AAA3A9
:103FC000BBA368A179A18AA19BA120E030E040E8D1
:103FD0005FE30E94250488232CF481E090E09F8F0A
:103FE0008E8F3FC068A179A18AA19BA120E03FEFFD
:103FF0004FE757E40E94C50318164CF56CA17DA14C
:104000008EA19FA120E030E040E251E40E941F0217
:10401000DC01CB01BC01CD010E944900DC01CB01D8
:104020009F8F8E8F0FC088EC90E09D8F8C8F8C8D32
:104030009D8D0197F1F79D8F8C8F8E8D9F8D0197B0
:104040009F8F8E8F8E8D9F8D009769F724C068A1FA
:1040500079A18AA19BA10E944900DC01CB019F8F1D
:104060008E8F8E8D9F8D9B8F8A8F8A8D9B8D0197D2
:10407000F1F79B8F8A8F0FC069A57AA58BA59CA5A8
:104080000E944900DC01CB0188A788A5898F898D12
:104090008A95F1F7898F89E060E00E9401088AE043
:1040A00060E00E9401088BE060E00E9401088CE063
:1040B00061E00E94010880E090E8A4E5B4E48D8B03
:1040C0009E8BAF8BB88F6D897E898F89988D2BEAF7
:1040D0003AEA4AE250E40E941F02DC01CB01898BDC
:1040E0009A8BAB8BBC8B69897A898B899C8920E000
:1040F00030E040E85FE30E94250488231CF481E05F
:10410000888B91C069897A898B899C8920E030E00D
:104110004FE753E40E94C50318160CF07BC06D896D
:104120007E898F89988D20E030E04AE754E40E9430
:104130001903DC01CB018C879D87AE87BF876C8517
:104140007D858E859F8520E030E04AEF54E40E9413
:104150001F02DC01CB0188879987AA87BB87688506
:1041600079858A859B8520E030E040E85FE30E9406
:10417000250488232CF481E090E09F838E833FC048
:10418000688579858A859B8520E03FEF4FE757E476
:104190000E94C50318164CF56C857D858E859F851C
:1041A00020E030E040E251E40E941F02DC01CB013C
:1041B000BC01CD010E944900DC01CB019F838E83AD
:1041C0000FC088EC90E09D838C838C819D8101974A
:1041D000F1F79D838C838E819F8101979F838E83CE
:1041E0008E819F81009769F724C0688579858A85CB
:1041F0009B850E944900DC01CB019F838E838E81C9
:104200009F819B838A838A819B810197F1F79B839E
:104210008A830FC069897A898B899C890E944900A9
:10422000DC01CB01888B8889898389818A95F1F7A4
:104230008983DE01AF57BE4FFE01EF57FE4F8081ED
:104240008F5F8C93FE01EF57FE4F80818A3F08F409
:104250002ECCC957DE4F0FB6F894DEBF0FBECDBFD0
:10426000CF91DF911F910F9108950F931F93DF93CB
:10427000CF93CDB7DEB7CA5AD1400FB6F894DEBFA0
:104280000FBECDBF86E061E00E94160788E060E0C7
:104290000E94160788E061E00E9401080E94FE0B60
:1042A0000E94EC080E94FB0880932A01E6E3F0E0FC
:1042B000808180931E0180911E01813011F00C9449
:1042C000AA3180912A018D3311F40C945A2E8091D9
:1042D0002A018F3F11F40C945A2E809119010E94EB
:1042E000400A80912A01282F30E0C755DE4F3983DC
:1042F0002883C95AD140C755DE4F88819981C95A50
:10430000D1408730910509F480C5C755DE4FE8815B
:10431000F981C95AD140E830F1050CF047C0C755C2
:10432000DE4F28813981C95AD1402330310509F443
:1043300030C2C755DE4F88819981C95AD140843037
:104340009105FCF4C755DE4FE881F981C95AD14087
:10435000E130F10509F47FC0C755DE4F288139816E
:10436000C95AD140223031050CF044C1C755DE4F47
:1043700088819981C95AD140009711F40C94452A3B
:1043800091CFC755DE4FE881F981C95AD140E53058
:10439000F10509F49CC3C755DE4F28813981C95AFC
:1043A000D140263031050CF061C4C2C2C755DE4F82
:1043B00088819981C95AD1408A32910511F40C94AF
:1043C000B82CC755DE4FE881F981C95AD140EB328C
:1043D000F10504F5C755DE4F28813981C95AD1400E
:1043E0002930310509F4AFC6C755DE4F8881998160
:1043F000C95AD140893091050CF4D6C5C755DE4F56
:10440000E881F981C95AD140E332F10511F40C94E5
:10441000162B48CFC755DE4F28813981C95AD14064
:104420002D32310511F40C94E72BC755DE4F8881EE
:104430009981C95AD1408F32910511F40C94892D7C
:10444000C755DE4FE881F981C95AD140EB32F105F9
:1044500009F44AC727CF809119010E94400A81E6DA
:104460000E941F0B809119018F5F80931901809129
:104470001C01882F90E0FC01EB5DFE4F81E68083FC
:1044800080911C018F5F80931C01FE01EF55FE4F50
:1044900080E090E0A8E4B3E480839183A283B383B7
:1044A0008E0103561E4FFE01EF55FE4F6081718154
:1044B0008281938120E030E04AEF54E40E941F02A1
:1044C000DC01CB01F80180839183A283B383FE01D9
:1044D000E356FE4F608171818281938120E030E05C
:1044E00040E85FE30E942504882344F4FE01E5567A
:1044F000FE4F81E090E09183808364C0FE01E3562B
:10450000FE4F608171818281938120E03FEF4FE710
:1045100057E40E94C50318160CF043C0FE01EF5586
:10452000FE4F608171818281938120E030E040E222
:1045300051E40E941F02DC01CB018E0105561E4F83
:10454000BC01CD010E944900DC01CB01F80191833F
:1045500080831FC0FE01E756FE4F88EC90E09183F8
:104560008083FE01E756FE4F808191810197F1F72C
:10457000FE01E756FE4F91838083DE01A556BE4FB4
:10458000FE01E556FE4F80819181019711969C9323
:104590008E93FE01E556FE4F808191810097D1F602
:1045A00081CE8E0105561E4FFE01E356FE4F6081FF
:1045B0007181828193810E944900DC01CB01F80165
:1045C00091838083DE01A956BE4FFE01E556FE4F62
:1045D0008081918111969C938E93FE01E956FE4F46
:1045E000808191810197F1F7FE01E956FE4F918399
:1045F000808358CE809119010E94400A82E60E9471
:104600001F0B809119018F5F8093190180911C010C
:10461000882F90E0FC01EB5DFE4F82E68083809165
:104620001C018F5F80931C01FE01ED56FE4F80E060
:1046300090E0A8E4B3E480839183A283B3838E01E6
:1046400001571E4FFE01ED56FE4F60817181828140
:10465000938120E030E04AEF54E40E941F02DC0125
:10466000CB01F80180839183A283B383FE01E157DC
:10467000FE4F608171818281938120E030E040E8CB
:104680005FE30E942504882344F4FE01E357FE4FB4
:1046900081E090E09183808364C0FE01E157FE4F8A
:1046A000608171818281938120E03FEF4FE757E481
:1046B0000E94C50318160CF043C0FE01ED56FE4FD4
:1046C000608171818281938120E030E040E251E499
:1046D0000E941F02DC01CB018E0103571E4FBC015B
:1046E000CD010E944900DC01CB01F8019183808358
:1046F0001FC0FE01E557FE4F88EC90E09183808358
:10470000FE01E557FE4F808191810197F1F7FE018F
:10471000E557FE4F91838083DE01A357BE4FFE0114
:10472000E357FE4F80819181019711969C938E9360
:10473000FE01E357FE4F808191810097D1F6B2CD03
:104740008E0103571E4FFE01E157FE4F60817181BC
:10475000828193810E944900DC01CB01F8019183A1
:104760008083DE01A757BE4FFE01E357FE4F8081D5
:10477000918111969C938E93FE01E757FE4F8081A5
:1047800091810197F1F7FE01E757FE4F91838083F6
:1047900089CD809119010E94400A83E60E941F0B77
:1047A000809119018F5F8093190180911C01882FDE
:1047B00090E0FC01EB5DFE4F83E6808380911C015D
:1047C0008F5F80931C01FE01EB57FE4F80E090E06D
:1047D000A8E4B3E480839183A283B3838E010F574F
:1047E0001E4FFE01EB57FE4F6081718182819381E4
:1047F00020E030E04AEF54E40E941F02DC01CB01CC
:10480000F80180839183A283B383FE01EF57FE4FAB
:10481000608171818281938120E030E040E85FE334
:104820000E942504882344F4FE01E158FE4F81E0F4
:1048300090E09183808364C0FE01EF57FE4F60815A
:1048400071818281938120E03FEF4FE757E40E941E
:10485000C50318160CF043C0FE01EB57FE4F6081F4
:1048600071818281938120E030E040E251E40E9436
:104870001F02DC01CB018E0101581E4FBC01CD018E
:104880000E944900DC01CB01F801918380831FC0A5
:10489000FE01E358FE4F88EC90E091838083FE0197
:1048A000E358FE4F808191810197F1F7FE01E358B3
:1048B000FE4F91838083DE01A158BE4FFE01E15877
:1048C000FE4F80819181019711969C938E93FE01FA
:1048D000E158FE4F808191810097D1F6E3CC8E01A3
:1048E00001581E4FFE01EF57FE4F6081718182819A
:1048F00093810E944900DC01CB01F8019183808300
:10490000DE01A558BE4FFE01E158FE4F8081918126
:1049100011969C938E93FE01E558FE4F8081918104
:104920000197F1F7FE01E558FE4F91838083BACCE1
:10493000809119010E94400A84E60E941F0B809119
:1049400019018F5F8093190180911C01882F90E0DD
:10495000FC01EB5DFE4F84E6808380911C018F5F3C
:1049600080931C01FE01E958FE4F80E090E0A8E42E
:10497000B3E480839183A283B3838E010D581E4FCD
:10498000FE01E958FE4F608171818281938120E0B0
:1049900030E04AEF54E40E941F02DC01CB01F80131
:1049A00080839183A283B383FE01ED58FE4F608123
:1049B00071818281938120E030E040E85FE30E94D2
:1049C0002504882344F4FE01EF58FE4F81E090E077
:1049D0009183808364C0FE01ED58FE4F6081718138
:1049E0008281938120E03FEF4FE757E40E94C503A7
:1049F00018160CF043C0FE01E958FE4F608171812A
:104A00008281938120E030E040E251E40E941F0265
:104A1000DC01CB018E010F581E4FBC01CD010E945D
:104A20004900DC01CB01F801918380831FC0FE01A6
:104A3000E159FE4F88EC90E091838083FE01E159BB
:104A4000FE4F808191810197F1F7FE01E159FE4F00
:104A500091838083DE01AF58BE4FFE01EF58FE4FB9
:104A600080819181019711969C938E93FE01EF585E
:104A7000FE4F808191810097D1F614CC8E010F58A2
:104A80001E4FFE01ED58FE4F60817181828193813E
:104A90000E944900DC01CB01F80191838083DE0193
:104AA000A359BE4FFE01EF58FE4F808191811196B0
:104AB0009C938E93FE01E359FE4F80819181019773
:104AC000F1F7FE01E359FE4F91838083EBCB809198
:104AD00019010E94400A85E60E941F0B809119016E
:104AE0008F5F8093190180911C01882F90E0FC0159
:104AF000EB5DFE4F85E6808380911C018F5F809384
:104B00001C01FE01E759FE4F80E090E0A8E4B3E409
:104B100080839183A283B3838E010B591E4FFE01C4
:104B2000E759FE4F608171818281938120E030E0FE
:104B30004AEF54E40E941F02DC01CB01F80180839C
:104B40009183A283B383FE01EB59FE4F6081718193
:104B50008281938120E030E040E85FE30E942504F9
:104B6000882344F4FE01ED59FE4F81E090E09183EB
:104B7000808364C0FE01EB59FE4F608171818281A8
:104B8000938120E03FEF4FE757E40E94C5031816DA
:104B90000CF043C0FE01E759FE4F608171818281B4
:104BA000938120E030E040E251E40E941F02DC01EA
:104BB000CB018E010D591E4FBC01CD010E94490051
:104BC000DC01CB01F801918380831FC0FE01EF5906
:104BD000FE4F88EC90E091838083FE01EF59FE4FF9
:104BE000808191810197F1F7FE01EF59FE4F91838A
:104BF0008083DE01AD59BE4FFE01ED59FE4F80812D
:104C00009181019711969C938E93FE01ED59FE4F71
:104C1000808191810097D1F645CB8E010D591E4FB1
:104C2000FE01EB59FE4F60817181828193810E9468
:104C30004900DC01CB01F80191838083DE01A15A98
:104C4000BE4FFE01ED59FE4F8081918111969C93DC
:104C50008E93FE01E15AFE4F808191810197F1F719
:104C6000FE01E15AFE4F918380831CCB8091190194
:104C70000E94400A86E60E941F0B809119018F5FF7
:104C80008093190180911C01882F90E0FC01EB5D5D
:104C9000FE4F86E6808380911C018F5F80931C010C
:104CA000FE01E55AFE4F80E090E0A8E4B3E4808383
:104CB0009183A283B3838E01095A1E4FFE01E55AE8
:104CC000FE4F608171818281938120E030E04AEF64
:104CD00054E40E941F02DC01CB01F8018083918320
:104CE000A283B383FE01E95AFE4F60817181828104
:104CF000938120E030E040E85FE30E9425048823B0
:104D000044F4FE01EB5AFE4F81E090E091838083F2
:104D100064C0FE01E95AFE4F6081718182819381F6
:104D200020E03FEF4FE757E40E94C50318160CF050
:104D300043C0FE01E55AFE4F6081718182819381FB
:104D400020E030E040E251E40E941F02DC01CB0190
:104D50008E010B5A1E4FBC01CD010E944900DC019F
:104D6000CB01F801918380831FC0FE01ED5AFE4FF5
:104D700088EC90E091838083FE01ED5AFE4F8081A4
:104D800091810197F1F7FE01ED5AFE4F91838083E7
:104D9000DE01AB5ABE4FFE01EB5AFE4F808191817E
:104DA000019711969C938E93FE01EB5AFE4F8081E2
:104DB00091810097D1F676CA8E010B5A1E4FFE01E3
:104DC000E95AFE4F60817181828193810E9449007E
:104DD000DC01CB01F80191838083DE01AF5ABE4F25
:104DE000FE01EB5AFE4F8081918111969C938E9328
:104DF000FE01EF5AFE4F808191810197F1F7FE018C
:104E0000EF5AFE4F918380834DCA809119010E9411
:104E1000400A87E60E941F0B809119018F5F8093E3
:104E2000190180911C01882F90E0FC01EB5DFE4F81
:104E300087E6808380911C018F5F80931C01FE01B7
:104E4000E35BFE4F80E090E0A8E4B3E480839183CD
:104E5000A283B3838E01075B1E4FFE01E35BFE4F0F
:104E6000608171818281938120E030E04AEF54E4D7
:104E70000E941F02DC01CB01F80180839183A28391
:104E8000B383FE01E75BFE4F608171818281938174
:104E900020E030E040E85FE30E942504882344F4EA
:104EA000FE01E95BFE4F81E090E09183808364C066
:104EB000FE01E75BFE4F608171818281938120E07A
:104EC0003FEF4FE757E40E94C50318160CF043C0AC
:104ED000FE01E35BFE4F608171818281938120E05E
:104EE00030E040E251E40E941F02DC01CB018E0160
:104EF000095B1E4FBC01CD010E944900DC01CB01C2
:104F0000F801918380831FC0FE01EB5BFE4F88ECAC
:104F100090E091838083FE01EB5BFE4F8081918165
:104F20000197F1F7FE01EB5BFE4F91838083DE0179
:104F3000A95BBE4FFE01E95BFE4F80819181019725
:104F400011969C938E93FE01E95BFE4F80819181C7
:104F50000097D1F6A7C98E01095B1E4FFE01E75BE2
:104F6000FE4F60817181828193810E944900DC0142
:104F7000CB01F80191838083DE01AD5BBE4FFE0162
:104F8000E95BFE4F8081918111969C938E93FE0187
:104F9000ED5BFE4F808191810197F1F7FE01ED5BA2
:104FA000FE4F918380837EC9809119010E94400A3F
:104FB00088E60E941F0B809119018F5F8093190171
:104FC00080911C01882F90E0FC01EB5DFE4F88E68C
:104FD000808380911C018F5F80931C01FE01E15C46
:104FE000FE4F80E090E0A8E4B3E480839183A28345
:104FF000B3838E01055C1E4FFE01E15CFE4F6081B4
:1050000071818281938120E030E04AEF54E40E9474
:105010001F02DC01CB01F80180839183A283B3835B
:10502000FE01E55CFE4F608171818281938120E009
:1050300030E040E85FE30E942504882344F4FE0149
:10504000E75CFE4F81E090E09183808364C0FE01C5
:10505000E55CFE4F608171818281938120E03FEFAA
:105060004FE757E40E94C50318160CF043C0FE0139
:10507000E15CFE4F608171818281938120E030E0AC
:1050800040E251E40E941F02DC01CB018E01075C6B
:105090001E4FBC01CD010E944900DC01CB01F8018B
:1050A000918380831FC0FE01E95CFE4F88EC90E095
:1050B00091838083FE01E95CFE4F8081918101979D
:1050C000F1F7FE01E95CFE4F91838083DE01A75C6E
:1050D000BE4FFE01E75CFE4F8081918101971196E2
:1050E0009C938E93FE01E75CFE4F80819181009737
:1050F000D1F6D8C88E01075C1E4FFE01E55CFE4F5D
:1051000060817181828193810E944900DC01CB0121
:10511000F80191838083DE01AB5CBE4FFE01E75C4A
:10512000FE4F8081918111969C938E93FE01EB5CE2
:10513000FE4F808191810197F1F7FE01EB5CFE4FFC
:1051400091838083AFC8809119010E94400A89E64B
:105150000E941F0B809119018F5F8093190180912C
:105160001C01882F90E0FC01EB5DFE4F89E68083F7
:1051700080911C018F5F80931C01FE01EF5CFE4F4C
:1051800080E090E0A8E4B3E480839183A283B383BA
:105190008E01035D1E4FFE01EF5CFE4F6081718149
:1051A0008281938120E030E04AEF54E40E941F02A4
:1051B000DC01CB01F80180839183A283B383FE01DC
:1051C000E35DFE4F608171818281938120E030E058
:1051D00040E85FE30E942504882344F4FE01E55D76
:1051E000FE4F81E090E09183808365C0FE01E35D26
:1051F000FE4F608171818281938120E03FEF4FE714
:1052000057E40E94C50318160CF044C0FE01EF5C81
:10521000FE4F608171818281938120E030E040E225
:1052200051E40E941F02DC01CB018E01055D1E4F7F
:10523000BC01CD010E944900DC01CB01F801918342
:1052400080831FC0FE01E75DFE4F88EC90E09183F4
:105250008083FE01E75DFE4F808191810197F1F728
:10526000FE01E75DFE4F91838083DE01A55DBE4FA9
:10527000FE01E55DFE4F80819181019711969C931F
:105280008E93FE01E55DFE4F808191810097D1F6FE
:105290000C9452218E01055D1E4FFE01E35DFE4F11
:1052A00060817181828193810E944900DC01CB0180
:1052B000F80191838083DE01A95DBE4FFE01E55DAB
:1052C000FE4F8081918111969C938E93FE01E95D42
:1052D000FE4F808191810197F1F7FE01E95DFE4F5C
:1052E000918380830C945221809119010E94400A7D
:1052F0008AE60E941F0B809119018F5F809319012C
:1053000080911C01882F90E0FC01EB5DFE4F8AE646
:10531000808380911C018F5F80931C01FE01ED5DF5
:10532000FE4F80E090E0A8E4B3E480839183A28301
:10533000B3838E01015E1E4FFE01ED5DFE4F608165
:1053400071818281938120E030E04AEF54E40E9431
:105350001F02DC01CB01F80180839183A283B38318
:10536000FE01E15EFE4F608171818281938120E0C8
:1053700030E040E85FE30E942504882344F4FE0106
:10538000E35EFE4F81E090E09183808365C0FE0183
:10539000E15EFE4F608171818281938120E03FEF69
:1053A0004FE757E40E94C50318160CF044C0FE01F5
:1053B000ED5DFE4F608171818281938120E030E05C
:1053C00040E251E40E941F02DC01CB018E01035E2A
:1053D0001E4FBC01CD010E944900DC01CB01F80148
:1053E000918380831FC0FE01E55EFE4F88EC90E054
:1053F00091838083FE01E55EFE4F8081918101975C
:10540000F1F7FE01E55EFE4F91838083DE01A35E2E
:10541000BE4FFE01E35EFE4F8081918101971196A0
:105420009C938E93FE01E35EFE4F808191810097F5
:10543000D1F60C9452218E01035E1E4FFE01E15EF7
:10544000FE4F60817181828193810E944900DC015D
:10545000CB01F80191838083DE01A75EBE4FFE0180
:10546000E35EFE4F8081918111969C938E93FE01A5
:10547000E75EFE4F808191810197F1F7FE01E75EC3
:10548000FE4F918380830C945221809119010E94D8
:10549000400A8BE60E941F0B809119018F5F809359
:1054A000190180911C01882F90E0FC01EB5DFE4FFB
:1054B0008BE6808380911C018F5F80931C01FE012D
:1054C000EB5EFE4F80E090E0A8E4B3E4808391833C
:1054D000A283B3838E010F5E1E4FFE01EB5EFE4F73
:1054E000608171818281938120E030E04AEF54E451
:1054F0000E941F02DC01CB01F80180839183A2830B
:10550000B383FE01EF5EFE4F6081718182819381E2
:1055100020E030E040E85FE30E942504882344F463
:10552000FE01E15FFE4F81E090E09183808365C0E2
:10553000FE01EF5EFE4F608171818281938120E0E8
:105540003FEF4FE757E40E94C50318160CF044C024
:10555000FE01EB5EFE4F608171818281938120E0CC
:1055600030E040E251E40E941F02DC01CB018E01D9
:10557000015F1E4FBC01CD010E944900DC01CB013F
:10558000F801918380831FC0FE01E35FFE4F88EC2A
:1055900090E091838083FE01E35FFE4F80819181E3
:1055A0000197F1F7FE01E35FFE4F91838083DE01F7
:1055B000A15FBE4FFE01E15FFE4F808191810197A7
:1055C00011969C938E93FE01E15FFE4F8081918145
:1055D0000097D1F60C9452218E01015F1E4FFE01FF
:1055E000EF5EFE4F60817181828193810E9449004C
:1055F000DC01CB01F80191838083DE01A55FBE4F02
:10560000FE01E15FFE4F8081918111969C938E9304
:10561000FE01E55FFE4F808191810197F1F7FE0168
:10562000E55FFE4F918380830C9452218091190194
:105630000E94400A8CE60E941F0B809119018F5F27
:105640008093190180911C01882F90E0FC01EB5D93
:10565000FE4F8CE6808380911C018F5F80931C013C
:10566000FE01E95FFE4F80E090E0A8E4B3E48083B0
:105670009183A283B3838E010D5F1E4FFE01E95F0C
:10568000FE4F608171818281938120E030E04AEF9A
:1056900054E40E941F02DC01CB01F8018083918356
:1056A000A283B383FE01ED5FFE4F60817181828131
:1056B000938120E030E040E85FE30E9425048823E6
:1056C00044F4FE01EF5FFE4F81E090E09183808320
:1056D00065C0FE01ED5FFE4F608171818281938123
:1056E00020E03FEF4FE757E40E94C50318160CF087
:1056F00044C0FE01E95FFE4F608171818281938128
:1057000020E030E040E251E40E941F02DC01CB01C6
:105710008E010F5F1E4FBC01CD010E944900DC01CC
:10572000CB01F801918380831FC0FE01E150FF4F40
:1057300088EC90E091838083FE01E150FF4F8081EF
:1057400091810197F1F7FE01E150FF4F9183808332
:10575000DE01AF5FBE4FFE01EF5FFE4F80819181A2
:10576000019711969C938E93FE01EF5FFE4F80810F
:1057700091810097D1F60C9452218E010F5F1E4F3C
:10578000FE01ED5FFE4F60817181828193810E94F5
:105790004900DC01CB01F80191838083DE01A35035
:1057A000BF4FFE01EF5FFE4F8081918111969C9368
:1057B0008E93FE01E350FF4F808191810197F1F7B5
:1057C000FE01E350FF4F918380830C94522180911E
:1057D00019010E94400A8DE60E941F0B8091190159
:1057E0008F5F8093190180911C01882F90E0FC014C
:1057F000EB5DFE4F8DE6808380911C018F5F80936F
:105800001C01FE01E750FF4F80E090E0A8E4B3E404
:1058100080839183A283B3838E010B501F4FFE01BF
:10582000E750FF4F608171818281938120E030E0F9
:105830004AEF54E40E941F02DC01CB01F80180838F
:105840009183A283B383FE01EB50FF4F608171818E
:105850008281938120E030E040E85FE30E942504EC
:10586000882344F4FE01ED50FF4F81E090E09183E6
:10587000808365C0FE01EB50FF4F608171818281A2
:10588000938120E03FEF4FE757E40E94C5031816CD
:105890000CF044C0FE01E750FF4F608171818281AE
:1058A000938120E030E040E251E40E941F02DC01DD
:1058B000CB018E010D501F4FBC01CD010E9449004C
:1058C000DC01CB01F801918380831FC0FE01EF5002
:1058D000FF4F88EC90E091838083FE01EF50FF4FF3
:1058E000808191810197F1F7FE01EF50FF4F918385
:1058F0008083DE01AD50BF4FFE01ED50FF4F808130
:105900009181019711969C938E93FE01ED50FF4F6C
:10591000808191810097D1F60C9452218E010D5017
:105920001F4FFE01EB50FF4F608171818281938197
:105930000E944900DC01CB01F80191838083DE01E4
:10594000A151BF4FFE01ED50FF4F80819181119613
:105950009C938E93FE01E151FF4F808191810197CD
:10596000F1F7FE01E151FF4F918380830C945221A6
:10597000809119010E94400A8EE60E941F0B8091BF
:1059800019018F5F8093190180911C01882F90E08D
:10599000FC01EB5DFE4F8EE6808380911C018F5FE2
:1059A00080931C01FE01E551FF4F80E090E0A8E4E8
:1059B000B3E480839183A283B3838E0109511F4F87
:1059C000FE01E551FF4F608171818281938120E06A
:1059D00030E04AEF54E40E941F02DC01CB01F801E1
:1059E00080839183A283B383FE01E951FF4F6081DD
:1059F00071818281938120E030E040E85FE30E9482
:105A00002504882344F4FE01EB51FF4F81E090E030
:105A10009183808365C0FE01E951FF4F60817181F0
:105A20008281938120E03FEF4FE757E40E94C50356
:105A300018160CF044C0FE01E551FF4F60817181E2
:105A40008281938120E030E040E251E40E941F0215
:105A5000DC01CB018E010B511F4FBC01CD010E9417
:105A60004900DC01CB01F801918380831FC0FE0156
:105A7000ED51FF4F88EC90E091838083FE01ED5162
:105A8000FF4F808191810197F1F7FE01ED51FF4FAA
:105A900091838083DE01AB51BF4FFE01EB51FF4F7D
:105AA00080819181019711969C938E93FE01EB5119
:105AB000FF4F808191810097D1F60C9452218E0185
:105AC0000B511F4FFE01E951FF4F608171818281AF
:105AD00093810E944900DC01CB01F801918380830E
