:100000000C942A000C9434000C9434000C943400AA
:100010000C9434000C9434000C9434000C94340090
:100020000C9434000C9434000C9434000C94340080
:100030000C9434000C9434000C9434000C94340070
:100040000C9434000C9434000C9434000C94340060
:100050000C94340011241FBECFE5D8E0DEBFCDBF25
:100060000E940B040C9441040C940000DF93CF9386
:10007000CDB7DEB7A7E2B0E0E7E2F0E080818F77AE
:100080008C93A7E2B0E0E7E2F0E0808180648C939B
:10009000A7E2B0E0E7E2F0E080818F7D8C93A7E2F9
:1000A000B0E0E7E2F0E080818F7E8C93A7E2B0E0E1
:1000B000E7E2F0E08081877F8C93A7E2B0E0E7E29F
:1000C000F0E080818B7F8C93A7E2B0E0E7E2F0E084
:1000D00080818D7F8C93A7E2B0E0E7E2F0E0808141
:1000E0008E7F8C93A6E2B0E0E6E2F0E0808180684B
:1000F0008C93A6E2B0E0E6E2F0E080818F7B8C9307
:10010000A6E2B0E0E6E2F0E080818F7D8C93A6E28B
:10011000B0E0E6E2F0E0808180618C93A6E2B0E09E
:10012000E6E2F0E08081877F8C93A6E2B0E0E6E231
:10013000F0E080818B7F8C93A6E2B0E0E6E2F0E015
:10014000808182608C93A6E2B0E0E6E2F0E08081FC
:100150008E7F8C93CF91DF910895DF93CF9300D062
:100160000F92CDB7DEB78B831A821982A7E2B0E077
:10017000E7E2F0E08081807E8C93A7E2B0E0E7E2E6
:10018000F0E08081982F8B818F71892B8C93A6E270
:10019000B0E0E6E2F0E0808180648C93E6E2F0E09B
:1001A000808182958F70882F90E081709070009789
:1001B000A9F3A6E2B0E0E6E2F0E0808180618C93F2
:1001C000E4E2F0E08081882F90E09A838983E5E281
:1001D000F0E08081882F90E0982F88279C0189810A
:1001E0009A81822B932B9A83898389819A810F909C
:1001F0000F900F90CF91DF910895DF93CF9300D0B0
:1002000000D000D0CDB7DEB78B836C838B81869511
:10021000869586958A838B81877089838A81282F2A
:1002200030E03E832D838D819E818130910509F4DC
:1002300043C02D813E81223031052CF48D819E8179
:10024000009771F0BCC02D813E812230310509F448
:100250005FC08D819E818330910509F485C0AFC058
:100260008C818130A1F4AAE3B0E0EAE3F0E0808180
:10027000482F8981282F30E081E090E0022E02C0D3
:10028000880F991F0A94E2F7842B8C9398C0AAE3F5
:10029000B0E0EAE3F0E08081482F8981282F30E048
:1002A00081E090E0022E02C0880F991F0A94E2F7C5
:1002B000809584238C9383C08C818130A1F4A7E343
:1002C000B0E0E7E3F0E08081482F8981282F30E01B
:1002D00081E090E0022E02C0880F991F0A94E2F795
:1002E000842B8C936CC0A7E3B0E0E7E3F0E080815F
:1002F000482F8981282F30E081E090E0022E02C053
:10030000880F991F0A94E2F7809584238C9357C035
:100310008C818130A1F4A4E3B0E0E4E3F0E08081DB
:10032000482F8981282F30E081E090E0022E02C022
:10033000880F991F0A94E2F7842B8C9340C0A4E3A2
:10034000B0E0E4E3F0E08081482F8981282F30E09D
:1003500081E090E0022E02C0880F991F0A94E2F714
:10036000809584238C932BC08C818130A1F4A1E3F0
:10037000B0E0E1E3F0E08081482F8981282F30E070
:1003800081E090E0022E02C0880F991F0A94E2F7E4
:10039000842B8C9314C0A1E3B0E0E1E3F0E0808112
:1003A000482F8981282F30E081E090E0022E02C0A2
:1003B000880F991F0A94E2F7809584238C932696E0
:1003C0000FB6F894DEBF0FBECDBFCF91DF91089579
:1003D000DF93CF9300D000D000D0CDB7DEB78B83B2
:1003E0006C838B818695869586958A838B818770B1
:1003F00089838A81282F30E03E832D838D819E81E1
:100400008130910509F443C02D813E8122303105B0
:100410002CF48D819E81009771F0BCC02D813E81AE
:100420002230310509F45FC08D819E8183309105B2
:1004300009F485C0AFC08C818130A1F4ABE3B0E09A
:10044000EBE3F0E08081482F8981282F30E081E0C4
:1004500090E0022E02C0880F991F0A94E2F7842BC5
:100460008C9398C0ABE3B0E0EBE3F0E08081482FE1
:100470008981282F30E081E090E0022E02C0880FB1
:10048000991F0A94E2F7809584238C9383C08C8112
:100490008130A1F4A8E3B0E0E8E3F0E08081482FE8
:1004A0008981282F30E081E090E0022E02C0880F81
:1004B000991F0A94E2F7842B8C936CC0A8E3B0E0F8
:1004C000E8E3F0E08081482F8981282F30E081E047
:1004D00090E0022E02C0880F991F0A94E2F78095DF
:1004E00084238C9357C08C818130A1F4A5E3B0E0C4
:1004F000E5E3F0E08081482F8981282F30E081E01A
:1005000090E0022E02C0880F991F0A94E2F7842B14
:100510008C9340C0A5E3B0E0E5E3F0E08081482F94
:100520008981282F30E081E090E0022E02C0880F00
:10053000991F0A94E2F7809584238C932BC08C81B9
:100540008130A1F4A2E3B0E0E2E3F0E08081482F43
:100550008981282F30E081E090E0022E02C0880FD0
:10056000991F0A94E2F7842B8C9314C0A2E3B0E0A5
:10057000E2E3F0E08081482F8981282F30E081E09C
:1005800090E0022E02C0880F991F0A94E2F780952E
:1005900084238C9326960FB6F894DEBF0FBECDBF92
:1005A000CF91DF910895DF93CF9300D00F92CDB715
:1005B000DEB789838981282F30E03B832A838A81B3
:1005C0009B8184309105C9F12A813B812530310519
:1005D00084F48A819B818230910529F12A813B81B3
:1005E000233031052CF58A819B8181309105B1F052
:1005F0003CC02A813B812630310549F18A819B81AB
:1006000086309105FCF02A813B812730310521F1AC
:100610008A819B818830910521F127C088E061E0C3
:100620000E94FD0022C089E061E00E94FD001DC023
:100630008AE061E00E94FD0018C08BE061E00E944A
:10064000FD0013C084E161E00E94FD000EC085E161
:1006500061E00E94FD0009C08EE161E00E94FD00A2
:1006600004C08FE161E00E94FD000F900F900F9099
:10067000CF91DF910895DF93CF9300D00F92CDB744
:10068000DEB789838981282F30E03B832A838A81E2
:100690009B8184309105C9F12A813B812530310548
:1006A00084F48A819B818230910529F12A813B81E2
:1006B000233031052CF58A819B8181309105B1F081
:1006C0003CC02A813B812630310549F18A819B81DA
:1006D00086309105FCF02A813B812730310521F1DC
:1006E0008A819B818830910521F127C088E061E0F3
:1006F0000E94E80122C089E061E00E94E8011DC07B
:100700008AE061E00E94E80118C08BE061E00E948D
:10071000E80113C084E161E00E94E8010EC085E1B8
:1007200061E00E94E80109C08EE161E00E94E801F9
:1007300004C08FE161E00E94E8010F900F900F90DC
:10074000CF91DF910895DF93CF9300D00F92CDB773
:10075000DEB789838981282F30E03B832A838A8111
:100760009B8184309105C9F12A813B812530310577
:1007700084F48A819B818230910529F12A813B8111
:10078000233031052CF58A819B8181309105B1F0B0
:100790003CC02A813B812630310549F18A819B8109
:1007A00086309105FCF02A813B812730310521F10B
:1007B0008A819B818830910521F127C088E060E023
:1007C0000E94E80122C089E060E00E94E8011DC0AB
:1007D0008AE060E00E94E80118C08BE060E00E94BF
:1007E000E80113C084E160E00E94E8010EC085E1E9
:1007F00060E00E94E80109C08EE160E00E94E8012B
:1008000004C08FE160E00E94E8010F900F900F900C
:10081000CF91DF910895DF93CF9300D00F92CDB7A2
:10082000DEB781E00E94D30282E00E94D3020E94E0
:10083000360080E00E94AD009B838A832A813B8141
:10084000C901880F991F880F991F820F931F892F45
:1008500099278695869589838981833048F081E040
:1008600090E00E943B0382E090E00E94A303E1CF6E
:1008700082E090E00E943B0381E090E00E94A303AD
:06088000D8CFF894FFCF71
:00000001FF
