:100000000C942A000C9447000C9447000C94470071
:100010000C9447000C9447000C94C30D0C944700BB
:100020000C9447000C94A60D0C9447000C944700C8
:100030000C9447000C9447000C9447000C94470024
:100040000C9447000C9447000C9447000C94470014
:100050000C94470011241FBECFE5D8E0DEBFCDBF12
:1000600011E0A8E6B1E001C01D92A038B107E1F7A8
:1000700011E0A0E6B0E0EAE4FEE102C005900D92D6
:10008000A836B107D9F70E944E0C0C94230F0C949C
:100090000000EF92FF920F931F937B018C0120E0F1
:1000A00030E040E05FE40E94F50388238CF0C80153
:1000B000B70120E030E040E05FE40E94C1010E940F
:1000C000B3049B01AC01205030404040504806C072
:1000D000C801B7010E94B3049B01AC01B901CA0178
:1000E0001F910F91FF90EF900895A0E0B0E0EBE733
:1000F000F0E00C94EC0EDC012B01FA019C919230A3
:1001000008F439C1EB018881823008F433C194309E
:1001100069F4843009F02FC111969C91119789815F
:10012000981709F428C1A0E6B0E025C1843009F48D
:1001300021C18230A9F4923009F01DC19A01AD01AC
:1001400088E0EA010990AE01E90109929E0181501F
:10015000C1F7E201898111969C918923818308C1AD
:10016000923009F407C112962D903C901397EB0141
:100170008A819B811496AD90BD90CD90DC901797AD
:10018000EC80FD800E811F819101281B390BB90184
:1001900037FF04C066277727621B730B6032710537
:1001A0000CF061C0121613066CF537014801062EDB
:1001B00004C096948794779467940A94D2F721E0C8
:1001C00030E040E050E004C0220F331F441F551FB1
:1001D0006A95D2F721503040404050402E213F21B7
:1001E00040235123211531054105510521F021E01E
:1001F00030E040E050E079018A01E628F72808293C
:1002000019293CC0232BD1F1260E371E350146019A
:10021000062E04C096948794779467940A94D2F734
:1002200021E030E040E050E004C0220F331F441FC3
:10023000551F6A95D2F721503040404050402A2146
:100240003B214C215D21211531054105510521F04E
:1002500021E030E040E050E059016A01A628B728CB
:10026000C828D9280BC0821593052CF01C01AA249C
:10027000BB24650103C0EE24FF24870111969C91E5
:10028000D20111968C91981709F445C0992339F041
:10029000A80197012A193B094C095D0906C0A6016E
:1002A00095012E193F09400B510B57FD08C01182D3
:1002B0003382228224833583468357831DC081E0A5
:1002C00081833382228288279927DC01821B930B4A
:1002D000A40BB50B84839583A683B7830DC0220F2F
:1002E000331F441F551F24833583468357838281E0
:1002F000938101979383828324813581468157813D
:10030000DA01C9010197A109B1098F5F9F4FAF4F72
:10031000BF4328F30BC0918333822282EA0CFB1C7B
:100320000C1D1D1DE482F5820683178383E0808304
:10033000248135814681578157FF1AC0C901AA27F8
:1003400097FDA095BA2F81709070A070B0705695EF
:10035000479537952795822B932BA42BB52B848318
:100360009583A683B7838281938101969383828349
:10037000DF0101C0D201CD01CDB7DEB7E2E10C94BF
:10038000080FA0E2B0E0E7ECF1E00C94F80E69830E
:100390007A838B839C832D833E834F835887E9E048
:1003A000EE2EF12CEC0EFD1ECE010196B7010E943F
:1003B0002B068E010F5E1F4FCE010596B8010E94DD
:1003C0002B068A8991E089278A8BC701B801AE0183
:1003D000475E5F4F0E9475000E945605A096E6E0BA
:1003E0000C94140FA0E2B0E0E8EFF1E00C94F80EEA
:1003F00069837A838B839C832D833E834F835887C5
:10040000F9E0EF2EF12CEC0EFD1ECE010196B701A6
:100410000E942B068E010F5E1F4FCE010596B8017C
:100420000E942B06C701B801AE01475E5F4F0E94D4
:1004300075000E945605A096E6E00C94140FA0E209
:10044000B0E0E5E2F2E00C94EC0E69837A838B83F2
:100450009C832D833E834F835887CE010196BE0136
:10046000675F7F4F0E942B06CE010596BE016F5E2F
:100470007F4F0E942B069985923088F089898230BF
:10048000C8F0943019F4823051F404C0843029F457
:10049000923081F480E690E0C6C0923049F420E0CA
:1004A0009A858A89981321E02A87CE010996BBC0D4
:1004B000823049F420E09A858A89981321E02A8BBA
:1004C000CE014196B0C02D843E844F8458886D88FB
:1004D0007E888F88988CEE24FF248701AA24BB2471
:1004E000650140E050E060E070E0E0E0F0E0C10174
:1004F00081709070892BE9F0E60CF71C081D191D1E
:100500009A01AB012A0D3B1D4C1D5D1D80E090E062
:10051000A0E0B0E0E614F7040805190520F481E036
:1005200090E0A0E0B0E0BA01A901480F591F6A1F8E
:100530007B1FAA0CBB1CCC1CDD1C97FE08C081E0F5
:1005400090E0A0E0B0E0A82AB92ACA2ADB2A3196B6
:10055000E032F10549F0660C771C881C991C569412
:10056000479437942794C3CFFA85EA892B893C892D
:100570008B859C85280F391F2E5F3F4F17C0CA01FE
:1005800081709070892B61F016950795F794E79428
:1005900080E090E0A0E0B0E8E82AF92A0A2B1B2BC3
:1005A00076956795579547952F5F3F4F77FDE7CF36
:1005B0000CC0440F551F661F771F17FD4160EE0CDE
:1005C000FF1C001F111F21503040403090E05907A0
:1005D00090E0690790E4790760F32B8F3C8FDB0193
:1005E000CA018F779070A070B07080349105A1051A
:1005F000B10561F447FD0AC0E114F10401051105DC
:1006000029F0405C5F4F6F4F7F4F40781A8EFE1786
:1006100011F081E08A8F4D8F5E8F6F8F78A383E01A
:10062000898FCE0149960E945605A096E2E10C946E
:10063000080FA8E1B0E0EFE1F3E00C94F40E698359
:100640007A838B839C832D833E834F835887B9E0C5
:10065000EB2EF12CEC0EFD1ECE010196B7010E948F
:100660002B068E010F5E1F4FCE010596B8010E942A
:100670002B062985223008F47EC03989323010F4E7
:10068000B8017CC08A859A8989278A87243011F02D
:10069000223031F4231709F06EC060E670E06EC0BE
:1006A000343039F41D861E861F86188A1C861B86E8
:1006B00004C0323021F484E08987B7015FC02B8504
:1006C0003C858B899C89281B390B3C872B87ED84C3
:1006D000FE840F851889AD88BE88CF88D88CEA142F
:1006E000FB040C051D0540F4EE0CFF1C001F111F40
:1006F000215030403C872B8720E030E040E050E044
:1007000080E090E0A0E0B0E460E070E0EA14FB0478
:100710000C051D0540F0282B392B4A2B5B2BEA18C2
:10072000FB080C091D09B695A79597958795EE0CC2
:10073000FF1C001F111F6F5F7F4F6F31710531F775
:10074000DA01C9018F779070A070B0708034910584
:10075000A105B10561F427FD0AC0E114F10401050A
:10076000110529F0205C3F4F4F4F5F4F20782D87B8
:100770003E874F87588BBE01675F7F4FCB010E943A
:1007800056056896EAE00C94100FA8E1B0E0EBEC97
:10079000F3E00C94F80E69837A838B839C832D831A
:1007A0003E834F83588789E0E82EF12CEC0EFD1E26
:1007B000CE010196B7010E942B068E010F5E1F4FDE
:1007C000CE010596B8010E942B068985823040F043
:1007D0008989823028F0C701B8010E94A30601C0B0
:1007E0008FEF6896E6E00C94140FA8E1B0E0EBEF11
:1007F000F3E00C94F80E69837A838B839C832D83BA
:100800003E834F83588789E0E82EF12CEC0EFD1EC5
:10081000CE010196B7010E942B068E010F5E1F4F7D
:10082000CE010596B8010E942B068985823040F0E2
:100830008989823028F0C701B8010E94A30601C04F
:100840008FEF6896E6E00C94140FA8E1B0E0EBE2BD
:10085000F4E00C94F80E69837A838B839C832D8358
:100860003E834F83588789E0E82EF12CEC0EFD1E65
:10087000CE010196B7010E942B068E010F5E1F4F1D
:10088000CE010596B8010E942B068985823040F082
:100890008989823028F0C701B8010E94A30601C0EF
:1008A00081E06896E6E00C94140FA8E0B0E0EBE578
:1008B000F4E00C94F50E9B01AC0183E08983DA012E
:1008C000C9018827B7FD83959927AA27BB27B82E8A
:1008D000211531054105510519F482E089833AC09B
:1008E0008823A9F0203080E0380780E0480780E8BE
:1008F000580729F460E070E080E09FEC30C0EE24FF
:10090000FF248701E21AF30A040B150B02C07901D8
:100910008A018EE1C82ED12CDC82CB82ED82FE8250
:100920000F831887C801B7010E94070501971816A1
:10093000190684F4082E04C0EE0CFF1C001F111FC2
:100940000A94D2F7ED82FE820F831887C81AD90A5B
:10095000DC82CB82BA82CE0101960E94560528968F
:10096000E9E00C94110FACE0B0E0E9EBF4E00C949A
:10097000FC0E69837A838B839C83CE010196BE0132
:100980006B5F7F4F0E942B068D81823061F1823038
:1009900050F1843021F48E81882351F12EC02F81B3
:1009A000388537FD20C06E812F3131051CF066235C
:1009B000F9F023C08EE190E0821B930B29853A85E4
:1009C0004B855C8504C056954795379527958A9544
:1009D000D2F76623B1F050954095309521953F4F61
:1009E0004F4F5F4F0EC020E030E040E050E009C0C4
:1009F0002FEF3FEF4FEF5FE704C020E030E040E033
:100A000050E8B901CA012C96E2E00C94180FEF925D
:100A1000FF920F931F937B018C0180E0E81680E02A
:100A2000F80681E0080780E0180788F48FEFE816E1
:100A3000F1040105110531F028F088E090E0A0E014
:100A4000B0E017C080E090E0A0E0B0E012C080E02D
:100A5000E81680E0F80680E0080781E0180728F033
:100A600088E190E0A0E0B0E004C080E190E0A0E088
:100A7000B0E020E230E040E050E0281B390B4A0BA8
:100A80005B0B04C016950795F794E7948A95D2F707
:100A9000F701E859FF4F8081281B310941095109AD
:100AA000C9011F910F91FF90EF900895DF92EF928F
:100AB000FF920F931F93FC01E480F580068117815C
:100AC000D1808081823048F480E090E0A0E1B0E005
:100AD000E82AF92A0A2B1B2BA5C0843009F49FC0F1
:100AE000823021F4EE24FF24870105C0E114F104D3
:100AF0000105110519F4E0E0F0E096C06281738110
:100B00009FEF623879070CF05BC022E83FEF261BAD
:100B1000370B2A3131052CF020E030E040E050E086
:100B20002AC0B801A701022E04C076956795579593
:100B300047950A94D2F781E090E0A0E0B0E004C0CD
:100B4000880F991FAA1FBB1F2A95D2F70197A109E9
:100B5000B1098E219F21A023B1230097A105B105E2
:100B600021F081E090E0A0E0B0E09A01AB01282BF9
:100B7000392B4A2B5B2BDA01C9018F779070A0705B
:100B8000B07080349105A105B10539F427FF09C083
:100B9000205C3F4F4F4F5F4F04C0215C3F4F4F4F92
:100BA0005F4FE0E0F0E02030A0E03A07A0E04A0725
:100BB000A0E45A0710F0E1E0F0E079018A0127C0D3
:100BC0006038710564F5FB01E158FF4FD801C7019A
:100BD0008F779070A070B07080349105A105B10539
:100BE00039F4E7FE0DC080E490E0A0E0B0E004C07E
:100BF0008FE390E0A0E0B0E0E80EF91E0A1F1B1F93
:100C000017FF05C016950795F794E794319687E08E
:100C100016950795F794E7948A95D1F705C0EE24C9
:100C2000FF248701EFEFF0E06E2F67956627679549
:100C3000902F9F77D794DD24D7948E2F8695492FB8
:100C4000462B582F5D29B701CA011F910F91FF90C4
:100C5000EF90DF900895FC01DB01408151812281FA
:100C6000622F6F7770E0221F2227221F9381892F26
:100C7000880F822B282F30E0991F9927991F1196F2
:100C80009C93119721153105A9F541155105610571
:100C9000710511F482E037C082E89FEF13969C93B0
:100CA0008E9312979A01AB0167E0220F331F441F06
:100CB000551F6A95D1F783E08C930DC0220F331F27
:100CC000441F551F12968D919C911397019713966F
:100CD0009C938E931297203080E0380780E048077D
:100CE00080E4580758F314962D933D934D935C93ED
:100CF000179708952F3F310579F441155105610586
:100D0000710519F484E08C93089564FF03C081E0B9
:100D10008C9312C01C9210C02F57304013963C93F6
:100D20002E93129783E08C9387E0440F551F661F24
:100D3000771F8A95D1F7706414964D935D936D93E8
:100D40007C93179708951F93DC01FB019C919230CF
:100D500008F447C08081823008F443C0943051F4D5
:100D600011961C91843099F58181682F70E0611B88
:100D700071093FC0843021F0923031F48230B9F1F2
:100D80008181882389F12DC011961C9111978230A1
:100D9000F1F081811817D9F412962D913C91139797
:100DA000828193818217930794F028173907BCF04A
:100DB00014968D919D910D90BC91A02D248135812B
:100DC00046815781281739074A075B0718F4112312
:100DD00041F00AC082179307A407B50740F4112316
:100DE00019F061E070E005C06FEF7FEF02C060E0D6
:100DF00070E0CB011F910895DF93CF9300D000D016
:100E000000D0CDB7DEB78B836C838B8186958695BA
:100E100086958A838B81877089838A81282F30E029
:100E20003E832D838D819E818130910509F443C0DD
:100E30002D813E81223031052CF48D819E810097D9
:100E400071F0BCC02D813E812230310509F45FC0B4
:100E50008D819E818330910509F485C0AFC08C815E
:100E60008130A1F4AAE3B0E0EAE3F0E08081482F0A
:100E70008981282F30E081E090E0022E02C0880FA7
:100E8000991F0A94E2F7842B8C9398C0AAE3B0E0F0
:100E9000EAE3F0E08081482F8981282F30E081E06B
:100EA00090E0022E02C0880F991F0A94E2F7809505
:100EB00084238C9383C08C818130A1F4A7E3B0E0BC
:100EC000E7E3F0E08081482F8981282F30E081E03E
:100ED00090E0022E02C0880F991F0A94E2F7842B3B
:100EE0008C936CC0A7E3B0E0E7E3F0E08081482F8B
:100EF0008981282F30E081E090E0022E02C0880F27
:100F0000991F0A94E2F7809584238C9357C08C81B3
:100F10008130A1F4A4E3B0E0E4E3F0E08081482F65
:100F20008981282F30E081E090E0022E02C0880FF6
:100F3000991F0A94E2F7842B8C9340C0A4E3B0E09D
:100F4000E4E3F0E08081482F8981282F30E081E0C0
:100F500090E0022E02C0880F991F0A94E2F7809554
:100F600084238C932BC08C818130A1F4A1E3B0E069
:100F7000E1E3F0E08081482F8981282F30E081E093
:100F800090E0022E02C0880F991F0A94E2F7842B8A
:100F90008C9314C0A1E3B0E0E1E3F0E08081482F3E
:100FA0008981282F30E081E090E0022E02C0880F76
:100FB000991F0A94E2F7809584238C9326960FB6A6
:100FC000F894DEBF0FBECDBFCF91DF910895DF93C0
:100FD000CF9300D000D000D0CDB7DEB78B836C8329
:100FE0008B818695869586958A838B818770898388
:100FF0008A81282F30E03E832D838D819E81813030
:10100000910509F443C02D813E81223031052CF435
:101010008D819E81009771F0BCC02D813E81223070
:10102000310509F45FC08D819E818330910509F4FB
:1010300085C0AFC08C818130A1F4ABE3B0E0EBE3BD
:10104000F0E08081482F8981282F30E081E090E016
:10105000022E02C0880F991F0A94E2F7842B8C930A
:1010600098C0ABE3B0E0EBE3F0E08081482F8981EA
:10107000282F30E081E090E0022E02C0880F991FF7
:101080000A94E2F7809584238C9383C08C8181300D
:10109000A1F4A8E3B0E0E8E3F0E08081482F898183
:1010A000282F30E081E090E0022E02C0880F991FC7
:1010B0000A94E2F7842B8C936CC0A8E3B0E0E8E3D9
:1010C000F0E08081482F8981282F30E081E090E096
:1010D000022E02C0880F991F0A94E2F7809584239C
:1010E0008C9357C08C818130A1F4A5E3B0E0E5E397
:1010F000F0E08081482F8981282F30E081E090E066
:10110000022E02C0880F991F0A94E2F7842B8C9359
:1011100040C0A5E3B0E0E5E3F0E08081482F89819D
:10112000282F30E081E090E0022E02C0880F991F46
:101130000A94E2F7809584238C932BC08C818130B4
:10114000A1F4A2E3B0E0E2E3F0E08081482F8981DE
:10115000282F30E081E090E0022E02C0880F991F16
:101160000A94E2F7842B8C9314C0A2E3B0E0E2E38C
:10117000F0E08081482F8981282F30E081E090E0E5
:10118000022E02C0880F991F0A94E2F780958423EB
:101190008C9326960FB6F894DEBF0FBECDBFCF91CD
:1011A000DF910895DF93CF93CDB7DEB72F970FB6BA
:1011B000F894DEBF0FBECDBF8F8780E060E00E9455
:1011C000E70781E060E00E94E7078F85982F917024
:1011D00080E1692F0E94E7078F858695982F91708F
:1011E00081E1692F0E94E7078F8586958695982F64
:1011F000917082E1692F0E94E7078F858695869519
:101200008695982F917083E1692F0E94E7078F855B
:1012100082958F70982F917084E1692F0E94E70763
:101220008F85829586958770982F917085E1692FBB
:101230000E94E7078F858295869586958370982F03
:10124000917086E1692F0E94E7078F85982F991F7B
:101250009927991F87E1692F0E94E70782E061E0E3
:101260000E94E70780E090E0A0E0B0E48B879C87D5
:10127000AD87BE876B857C858D859E8520E030E0BF
:101280004AEF54E40E941F02DC01CB018F83988750
:10129000A987BA876F81788589859A8520E030E0B3
:1012A00040E85FE30E94250488232CF481E090E06D
:1012B0009E838D833FC06F81788589859A8520E0E4
:1012C0003FEF4FE757E40E94C50318164CF56B85B6
:1012D0007C858D859E8520E030E040E251E40E94CF
:1012E0001F02DC01CB01BC01CD010E944900DC01E1
:1012F000CB019E838D830FC088EC90E09C838B8311
:101300008B819C810197F1F79C838B838D819E81DA
:1013100001979E838D838D819E81009769F714C00C
:101320006F81788589859A850E944900DC01CB010F
:101330009E838D838D819E819A83898389819A8101
:101340000197F1F79A83898382E060E00E94E707C2
:101350002F960FB6F894DEBF0FBECDBFCF91DF91B1
:101360000895DF93CF93CDB7DEB72F970FB6F894DC
:10137000DEBF0FBECDBF8F8780E061E00E94E70730
:1013800081E060E00E94E7078F85982F917080E1EF
:10139000692F0E94E7078F858695982F917081E1CC
:1013A000692F0E94E7078F8586958695982F917003
:1013B00082E1692F0E94E7078F858695869586953D
:1013C000982F917083E1692F0E94E7078F8582959E
:1013D0008F70982F917084E1692F0E94E7078F85A5
:1013E000829586958770982F917085E1692F0E946C
:1013F000E7078F858295869586958370982F9170E3
:1014000086E1692F0E94E7078F85982F991F9927FA
:10141000991F87E1692F0E94E70782E061E00E943F
:10142000E70780E090E0A0E0B0E48B879C87AD8781
:10143000BE876B857C858D859E8520E030E04AEFF8
:1014400054E40E941F02DC01CB018F839887A98797
:10145000BA876F81788589859A8520E030E040E8F9
:101460005FE30E94250488232CF481E090E09E83B2
:101470008D833FC06F81788589859A8520E03FEF15
:101480004FE757E40E94C50318164CF56B857C8521
:101490008D859E8520E030E040E251E40E941F02ED
:1014A000DC01CB01BC01CD010E944900DC01CB0174
:1014B0009E838D830FC088EC90E09C838B838B810F
:1014C0009C810197F1F79C838B838D819E8101978D
:1014D0009E838D838D819E81009769F714C06F81F3
:1014E000788589859A850E944900DC01CB019E831D
:1014F0008D838D819E819A83898389819A810197C9
:10150000F1F79A83898382E060E00E94E7072F96D3
:101510000FB6F894DEBF0FBECDBFCF91DF91089517
:10152000DF93CF93CDB7DEB7AA970FB6F894DEBF9F
:101530000FBECDBF80E061E00E94FC0681E061E06B
:101540000E94FC0682E061E00E94FC0680E161E00E
:101550000E94FC0681E161E00E94FC0682E161E0FC
:101560000E94FC0683E161E00E94FC0684E161E0E8
:101570000E94FC0685E161E00E94FC0686E161E0D4
:101580000E94FC0687E161E00E94FC0688E30E945D
:10159000D20880E090E0A0E0B0E48FA398A7A9A7CC
:1015A000BAA76FA178A589A59AA520E030E04AEFF7
:1015B00054E40E941F02DC01CB018BA39CA3ADA3CA
:1015C000BEA36BA17CA18DA19EA120E030E040E8EC
:1015D0005FE30E94250488232CF481E090E09AA325
:1015E00089A33FC06BA17CA18DA19EA120E03FEF0C
:1015F0004FE757E40E94C50318164CF56FA178A574
:1016000089A59AA520E030E040E251E40E941F0243
:10161000DC01CB01BC01CD010E944900DC01CB0102
:101620009AA389A30FC088EC90E098A38F8F8F8D29
:1016300098A10197F1F798A38F8F89A19AA101979B
:101640009AA389A389A19AA1009769F714C06BA1F5
:101650007CA18DA19EA10E944900DC01CB019AA32F
:1016600089A389A19AA19E8F8D8F8D8D9E8D0197C3
:10167000F1F79E8F8D8F8CE00E94D20880E090E081
:10168000A0E0B0E4898F9A8FAB8FBC8F698D7A8D83
:101690008B8D9C8D20E030E04AEF54E40E941F02C5
:1016A000DC01CB018D8B9E8BAF8BB88F6D897E89D2
:1016B0008F89988D20E030E040E85FE30E942504A8
:1016C00088232CF481E090E09C8B8B8B3FC06D894C
:1016D0007E898F89988D20E03FEF4FE757E40E9485
:1016E000C50318164CF5698D7A8D8B8D9C8D20E085
:1016F00030E040E251E40E941F02DC01CB01BC015A
:10170000CD010E944900DC01CB019C8B8B8B0FC06B
:1017100088EC90E09A8B898B89899A890197F1F7F7
:101720009A8B898B8B899C8901979C8B8B8B8B895E
:101730009C89009769F714C06D897E898F89988D7F
:101740000E944900DC01CB019C8B8B8B8B899C898F
:10175000988B8F878F8598890197F1F7988B8F8762
:1017600081E00E94D20880E090E0A0E0B0E48B87A6
:101770009C87AD87BE876B857C858D859E8520E0A7
:1017800030E04AEF54E40E941F02DC01CB018F835A
:101790009887A987BA876F81788589859A8520E09F
:1017A00030E040E85FE30E94250488232CF481E0C8
:1017B00090E09E838D833FC06F81788589859A856F
:1017C00020E03FEF4FE757E40E94C50318164CF5A1
:1017D0006B857C858D859E8520E030E040E251E47C
:1017E0000E941F02DC01CB01BC01CD010E94490017
:1017F000DC01CB019E838D830FC088EC90E09C833D
:101800008B838B819C810197F1F79C838B838D81E6
:101810009E8101979E838D838D819E81009769F7BC
:1018200014C06F81788589859A850E944900DC0102
:10183000CB019E838D838D819E819A83898389814B
:101840009A810197F1F79A838983AA960FB6F89443
:10185000DEBF0FBECDBFCF91DF910895DF93CF9351
:1018600000D00F92CDB7DEB78B831A82198208C0E1
:1018700080E10E94D20889819A8101969A838983A6
:101880008B81282F30E089819A818217930784F316
:101890000F900F900F90CF91DF910895DF93CF932A
:1018A000CDB7DEB765970FB6F894DEBF0FBECDBFDC
:1018B0008AE0FE013296DF01982F1D929A95E9F792
:1018C00086E48A8382E78B8385E68C8381E78D8338
:1018D0008DE38E838AE0FE013C96DF01982F1D92F6
:1018E0009A95E9F784E48C8785E78D8784E78E876E
:1018F00089E78F870E94900A0E94880E8091680174
:1019000090916901A0916A01B0916B0120917001E1
:10191000309171014091720150917301BC01CD0170
:101920000E94F201DC01CB0180936C0190936D0168
:10193000A0936E01B0936F0120916C0130916D0105
:1019400040916E0150916F0160E070E080E89FE38C
:101950000E941903DC01CB018093740190937501FF
:10196000A0937601B093770180916801909169010D
:10197000A0916A01B0916B01BC01CD0120E030E083
:1019800048EC52E40E941F02DC01CB0120916C0163
:1019900030916D0140916E0150916F01BC01CD01FC
:1019A0000E941903DC01CB0180937C0190937D019F
:1019B000A0937E01B0937F0180E80E94D208198233
:1019C0000EC08981282F30E0CE010296FC01E20F83
:1019D000F31F80810E94B10989818F5F898389818A
:1019E000853078F38091740190917501A091760112
:1019F000B0917701BC01CD010E944900DC01CB010F
:101A000094E6692F0E94E00E805D0E94B1098091EA
:101A1000740190917501A0917601B0917701BC019C
:101A2000CD010E944900DC01CB0194E6692F0E94A0
:101A3000E00E892F9AE0692F0E94E00E805D0E94DF
:101A4000B1098091740190917501A0917601B091D6
:101A50007701BC01CD010E944900DC01CB0194E675
:101A6000692F0E94E00E892F9AE0692F0E94E00EF4
:101A7000892F805D0E94B10988E40E94B1098AE53E
:101A80000E94B10980EC0E94D20819820EC089819F
:101A9000282F30E0CE010C96FC01E20FF31F80816D
:101AA0000E94B10989818F5F89838981843078F3AD
:101AB00080917C0190917D01A0917E01B0917F0188
:101AC000BC01CD010E944900DC01CB0194E6692FE5
:101AD0000E94E00E805D0E94B10980917C0190918E
:101AE0007D01A0917E01B0917F01BC01CD010E94DA
:101AF0004900DC01CB0194E6692F0E94E00E892F9A
:101B00009AE0692F0E94E00E805D0E94B1098091E9
:101B10007C0190917D01A0917E01B0917F01BC017B
:101B2000CD010E944900DC01CB0194E6692F0E949F
:101B3000E00E892F9AE0692F0E94E00E892F805DC8
:101B40000E94B10985E20E94B109D8CE1F920F927E
:101B50000FB60F9211248F939F93DF93CF93CDB73E
:101B6000DEB780917A0190917B01019690937B0181
:101B700080937A01CF91DF919F918F910F900FBE4B
:101B80000F901F9018951F920F920FB60F9211246D
:101B90002F933F934F935F936F937F938F939F9375
:101BA000AF93BF93EF93FF93DF93CF93CDB7DEB7A0
:101BB000809179018823B1F4ECE4F0E01182108285
:101BC000AEE4B0E0EEE4F0E080818F7B8C9381E0C6
:101BD0008093780110927B0110927A0181E08093CA
:101BE000790183C080917801813009F03FC0ECE435
:101BF000F0E011821082AEE4B0E0EEE4F0E080812B
:101C000080648C93E6E4F0E0808191819C0140E067
:101C100050E080917A0190917B01CC01A0E0B0E08E
:101C2000DC0199278827820F931FA41FB51FBC01D1
:101C3000CD010E945504DC01CB01BC01CD0120E0A7
:101C400034E244EF5AE40E941903DC01CB01809393
:101C5000680190936901A0936A01B0936B0110929F
:101C6000780110927B0110927A013FC0ECE4F0E021
:101C700011821082AEE4B0E0EEE4F0E080818F7B70
:101C80008C93E6E4F0E0808191819C0140E050E09B
:101C900080917A0190917B01CC01A0E0B0E0DC0161
:101CA00099278827820F931FA41FB51FBC01CD0160
:101CB0000E945504DC01CB01BC01CD0120E034E2DF
:101CC00044EF5AE40E941903DC01CB0180937001B8
:101CD00090937101A0937201B093730181E080939E
:101CE000780110927B0110927A01CF91DF91FF91E0
:101CF000EF91BF91AF919F918F917F916F915F9184
:101D00004F913F912F910F900FBE0F901F901895FC
:101D1000DF93CF93CDB7DEB7AFE4B0E0EFE4F0E010
:101D200080818D7F8C93AFE4B0E0EFE4F0E08081C0
:101D30008E7F8C93AEE4B0E0EEE4F0E08081877FAC
:101D40008C93AEE4B0E0EEE4F0E080818F7E8C9383
:101D5000AEE4B0E0EEE4F0E0808180648C93AEE429
:101D6000B0E0EEE4F0E080818B7F8C93AEE4B0E0F5
:101D7000EEE4F0E080818D7F8C93AEE4B0E0EEE4A1
:101D8000F0E0808181608C93A9E5B0E0E9E5F0E0C6
:101D9000808180628C93A9E5B0E0E9E5F0E0808184
:101DA00084608C93AFE5B0E0EFE5F0E0808180687F
:101DB0008C938EE160E00E94FC06CF91DF91089544
:101DC000991B79E004C0991F961708F0961B881F8D
:101DD0007A95C9F7809508952F923F924F925F921E
:101DE0006F927F928F929F92AF92BF92CF92DF922B
:101DF000EF92FF920F931F93CF93DF93CDB7DEB790
:101E0000CA1BDB0B0FB6F894DEBF0FBECDBF099423
:101E10002A88398848885F846E847D848C849B847A
:101E2000AA84B984C884DF80EE80FD800C811B8188
:101E3000AA81B981CE0FD11D0FB6F894DEBF0FBEB7
:0A1E4000CDBFED010895F894FFCF27
:101E4A000000000000000000000102020303030377
:101E5A000404040404040404050505050505050530
:101E6A000505050505050505060606060606060610
:101E7A0006060606060606060606060606060606F8
:101E8A0006060606060606060707070707070707E0
:101E9A0007070707070707070707070707070707C8
:101EAA0007070707070707070707070707070707B8
:101EBA0007070707070707070707070707070707A8
:101ECA000707070707070707080808080808080890
:101EDA000808080808080808080808080808080878
:101EEA000808080808080808080808080808080868
:101EFA000808080808080808080808080808080858
:101F0A000808080808080808080808080808080847
:101F1A000808080808080808080808080808080837
:101F2A000808080808080808080808080808080827
:101F3A000808080808080808080808080808080817
:081F4A0008080808080808084F
:00000001FF
