:100000000C942A000C943F000C943F000C943F0089
:100010000C943F000C943F000C943F000C943F0064
:100020000C943F000C943F000C943F000C943F0054
:100030000C943F000C943F000C943F000C943F0044
:100040000C943F000C943F000C943F000C943F0034
:100050000C943F0011241FBECFE5D8E0DEBFCDBF1A
:1000600010E0A0E6B0E0E6EEF7E402C005900D92E5
:10007000AE36B107D9F70E94080D0C94F1230C9409
:100080000000EF92FF920F931F937B018C0120E001
:1000900030E040E05FE40E94410388238CF0C80117
:1000A000B70120E030E040E05FE40E94B9010E9427
:1000B000A1039B01AC01205030404040504806C095
:1000C000C801B7010E94A1039B01AC01B901CA019B
:1000D0001F910F91FF90EF900895A0E0B0E0E3E74B
:1000E000F0E00C94B123DC012B01FA019C919230D9
:1000F00008F439C1EB018881823008F433C19430AF
:1001000069F4843009F02FC111969C91119789816F
:10011000981709F428C1A0E6B0E025C1843009F49D
:1001200021C18230A9F4923009F01DC19A01AD01BC
:1001300088E0EA010990AE01E90109929E0181502F
:10014000C1F7E201898111969C918923818308C1BD
:10015000923009F407C112962D903C901397EB0151
:100160008A819B811496AD90BD90CD90DC901797BD
:10017000EC80FD800E811F819101281B390BB90194
:1001800037FF04C066277727621B730B6032710547
:100190000CF061C0121613066CF537014801062EEB
:1001A00004C096948794779467940A94D2F721E0D8
:1001B00030E040E050E004C0220F331F441F551FC1
:1001C0006A95D2F721503040404050402E213F21C7
:1001D00040235123211531054105510521F021E02E
:1001E00030E040E050E079018A01E628F72808294C
:1001F00019293CC0232BD1F1260E371E35014601AB
:10020000062E04C096948794779467940A94D2F744
:1002100021E030E040E050E004C0220F331F441FD3
:10022000551F6A95D2F721503040404050402A2156
:100230003B214C215D21211531054105510521F05E
:1002400021E030E040E050E059016A01A628B728DB
:10025000C828D9280BC0821593052CF01C01AA24AC
:10026000BB24650103C0EE24FF24870111969C91F5
:10027000D20111968C91981709F445C0992339F051
:10028000A80197012A193B094C095D0906C0A6017E
:1002900095012E193F09400B510B57FD08C01182E3
:1002A0003382228224833583468357831DC081E0B5
:1002B00081833382228288279927DC01821B930B5A
:1002C000A40BB50B84839583A683B7830DC0220F3F
:1002D000331F441F551F24833583468357838281F0
:1002E000938101979383828324813581468157814D
:1002F000DA01C9010197A109B1098F5F9F4FAF4F83
:10030000BF4328F30BC0918333822282EA0CFB1C8B
:100310000C1D1D1DE482F5820683178383E0808314
:10032000248135814681578157FF1AC0C901AA2708
:1003300097FDA095BA2F81709070A070B0705695FF
:10034000479537952795822B932BA42BB52B848328
:100350009583A683B7838281938101969383828359
:10036000DF0101C0D201CD01CDB7DEB7E2E10C94CF
:10037000CD23A0E2B0E0EFEBF1E00C94BD23698364
:100380007A838B839C832D833E834F835887E9E058
:10039000EE2EF12CEC0EFD1ECE010196B7010E944F
:1003A000CA048E010F5E1F4FCE010596B8010E9450
:1003B000CA048A8991E089278A8BC701B801AE01F6
:1003C000475E5F4F0E946D000E94F503A096E6E035
:1003D0000C94D923A0E2B0E0E0EFF1E00C94BD234F
:1003E00069837A838B839C832D833E834F835887D5
:1003F000F9E0EF2EF12CEC0EFD1ECE010196B701B7
:100400000E94CA048E010F5E1F4FCE010596B801EF
:100410000E94CA04C701B801AE01475E5F4F0E9447
:100420006D000E94F503A096E6E00C94D923A0E2AB
:10043000B0E0EDE1F2E00C94B12369837A838B8321
:100440009C832D833E834F835887CE010196BE0146
:10045000675F7F4F0E94CA04CE010596BE016F5EA2
:100460007F4F0E94CA049985923088F08989823032
:10047000C8F0943019F4823051F404C0843029F467
:10048000923081F480E690E0C6C0923049F420E0DA
:100490009A858A89981321E02A87CE010996BBC0E4
:1004A000823049F420E09A858A89981321E02A8BCA
:1004B000CE014196B0C02D843E844F8458886D880B
:1004C0007E888F88988CEE24FF248701AA24BB2481
:1004D000650140E050E060E070E0E0E0F0E0C10184
:1004E00081709070892BE9F0E60CF71C081D191D2E
:1004F0009A01AB012A0D3B1D4C1D5D1D80E090E073
:10050000A0E0B0E0E614F7040805190520F481E046
:1005100090E0A0E0B0E0BA01A901480F591F6A1F9E
:100520007B1FAA0CBB1CCC1CDD1C97FE08C081E005
:1005300090E0A0E0B0E0A82AB92ACA2ADB2A3196C6
:10054000E032F10549F0660C771C881C991C569422
:10055000479437942794C3CFFA85EA892B893C893D
:100560008B859C85280F391F2E5F3F4F17C0CA010E
:1005700081709070892B61F016950795F794E79438
:1005800080E090E0A0E0B0E8E82AF92A0A2B1B2BD3
:1005900076956795579547952F5F3F4F77FDE7CF46
:1005A0000CC0440F551F661F771F17FD4160EE0CEE
:1005B000FF1C001F111F21503040403090E05907B0
:1005C00090E0690790E4790760F32B8F3C8FDB01A3
:1005D000CA018F779070A070B07080349105A1052A
:1005E000B10561F447FD0AC0E114F10401051105EC
:1005F00029F0405C5F4F6F4F7F4F40781A8EFE1797
:1006000011F081E08A8F4D8F5E8F6F8F78A383E02A
:10061000898FCE0149960E94F503A096E2E10C94E1
:10062000CD23A8E1B0E0E7E1F3E00C94BD236983BA
:100630007A838B839C832D833E834F83588789E005
:10064000E82EF12CEC0EFD1ECE010196B7010E94A2
:10065000CA048E010F5E1F4FCE010596B8010E949D
:10066000CA048985823040F08989823028F0C70128
:10067000B8010E94420501C08FEF6896E6E00C9435
:10068000D923A8E1B0E0E7E4F3E00C94BD2369834B
:100690007A838B839C832D833E834F83588789E0A5
:1006A000E82EF12CEC0EFD1ECE010196B7010E9442
:1006B000CA048E010F5E1F4FCE010596B8010E943D
:1006C000CA048985823040F08989823028F0C701C8
:1006D000B8010E94420501C08FEF6896E6E00C94D5
:1006E000D923A8E1B0E0E7E7F3E00C94BD236983E8
:1006F0007A838B839C832D833E834F83588789E045
:10070000E82EF12CEC0EFD1ECE010196B7010E94E1
:10071000CA048E010F5E1F4FCE010596B8010E94DC
:10072000CA048985823040F08989823028F0C70167
:10073000B8010E94420501C081E06896E6E00C9491
:10074000D923ACE0B0E0E7EAF3E00C94C12369837D
:100750007A838B839C83CE010196BE016B5F7F4FB2
:100760000E94CA048D81823061F1823050F1843060
:1007700021F48E81882351F12EC02F81388537FDD9
:1007800020C06E812F3131051CF06623F9F023C0A3
:100790008EE190E0821B930B29853A854B855C8521
:1007A00004C056954795379527958A95D2F76623C5
:1007B000B1F050954095309521953F4F4F4F5F4F89
:1007C0000EC020E030E040E050E009C02FEF3FEFE6
:1007D0004FEF5FE704C020E030E040E050E8B901AF
:1007E000CA012C96E2E00C94DD23DF92EF92FF9297
:1007F0000F931F93FC01E480F58006811781D1805F
:100800008081823048F480E090E0A0E1B0E0E82A06
:10081000F92A0A2B1B2BA5C0843009F49FC0823013
:1008200021F4EE24FF24870105C0E114F104010541
:10083000110519F4E0E0F0E096C0628173819FEF4A
:10084000623879070CF05BC022E83FEF261B370BBC
:100850002A3131052CF020E030E040E050E02AC0A1
:10086000B801A701022E04C0769567955795479564
:100870000A94D2F781E090E0A0E0B0E004C0880FD5
:10088000991FAA1FBB1F2A95D2F70197A109B10989
:100890008E219F21A023B1230097A105B10521F04E
:1008A00081E090E0A0E0B0E09A01AB01282B392B69
:1008B0004A2B5B2BDA01C9018F779070A070B07062
:1008C00080349105A105B10539F427FF09C0205CEA
:1008D0003F4F4F4F5F4F04C0215C3F4F4F4F5F4F23
:1008E000E0E0F0E02030A0E03A07A0E04A07A0E412
:1008F0005A0710F0E1E0F0E079018A0127C0603882
:10090000710564F5FB01E158FF4FD801C7018F77EE
:100910009070A070B07080349105A105B10539F4D4
:10092000E7FE0DC080E490E0A0E0B0E004C08FE3FB
:1009300090E0A0E0B0E0E80EF91E0A1F1B1F17FFB1
:1009400005C016950795F794E794319687E01695BC
:100950000795F794E7948A95D1F705C0EE24FF2414
:100960008701EFEFF0E06E2F679566276795902F70
:100970009F77D794DD24D7948E2F8695492F462BC9
:10098000582F5D29B701CA011F910F91FF90EF9079
:10099000DF900895FC01DB01408151812281622FAB
:1009A0006F7770E0221F2227221F9381892F880FE3
:1009B000822B282F30E0991F9927991F11969C931D
:1009C000119721153105A9F54115510561057105ED
:1009D00011F482E037C082E89FEF13969C938E93C8
:1009E00012979A01AB0167E0220F331F441F551F76
:1009F0006A95D1F783E08C930DC0220F331F441FFB
:100A0000551F12968D919C911397019713969C9365
:100A10008E931297203080E0380780E0480780E40A
:100A2000580758F314962D933D934D935C93179765
:100A300008952F3F310579F4411551056105710580
:100A400019F484E08C93089564FF03C081E08C93D3
:100A500012C01C9210C02F57304013963C932E9317
:100A6000129783E08C9387E0440F551F661F771F12
:100A70008A95D1F7706414964D935D936D937C9332
:100A8000179708951F93DC01FB019C91923008F4A5
:100A900047C08081823008F443C0943051F41196ED
:100AA0001C91843099F58181682F70E0611B710978
:100AB0003FC0843021F0923031F48230B9F181812D
:100AC000882389F12DC011961C9111978230F1F085
:100AD00081811817D9F412962D913C911397828138
:100AE00093818217930794F028173907BCF0149666
:100AF0008D919D910D90BC91A02D248135814681D1
:100B00005781281739074A075B0718F4112341F06A
:100B10000AC082179307A407B50740F4112319F000
:100B200061E070E005C06FEF7FEF02C060E070E051
:100B3000CB011F910895DF93CF93CDB7DEB7A7E226
:100B4000B0E0E7E2F0E080818F778C93A7E2B0E03D
:100B5000E7E2F0E0808180648C93A7E2B0E0E7E216
:100B6000F0E080818F7D8C93A7E2B0E0E7E2F0E0D7
:100B700080818F7E8C93A7E2B0E0E7E2F0E0808195
:100B8000877F8C93A7E2B0E0E7E2F0E080818B7F83
:100B90008C93A7E2B0E0E7E2F0E080818D7F8C9358
:100BA000A7E2B0E0E7E2F0E080818E7F8C93A6E2DE
:100BB000B0E0E6E2F0E0808180688C93A6E2B0E0ED
:100BC000E6E2F0E080818F7B8C93A6E2B0E0E6E283
:100BD000F0E080818F7D8C93A6E2B0E0E6E2F0E069
:100BE000808180618C93A6E2B0E0E6E2F0E0808153
:100BF000877F8C93A6E2B0E0E6E2F0E080818B7F15
:100C00008C93A6E2B0E0E6E2F0E0808182608C9313
:100C1000A6E2B0E0E6E2F0E080818E7F8C93CF9197
:100C2000DF910895DF93CF9300D00F92CDB7DEB759
:100C30008B831A821982A7E2B0E0E7E2F0E08081BC
:100C4000807E8C93A7E2B0E0E7E2F0E08081982F0D
:100C50008B818F71892B8C93A6E2B0E0E6E2F0E005
:100C6000808180648C93E6E2F0E0808182958F70D1
:100C7000882F90E0817090700097A9F3A6E2B0E011
:100C8000E6E2F0E0808180618C93E4E2F0E0808134
:100C9000882F90E09A838983E5E2F0E08081882FB5
:100CA00090E0982F88279C0189819A81822B932B31
:100CB0009A83898389819A810F900F900F90CF91A9
:100CC000DF910895DF93CF9300D000D000D0CDB74F
:100CD000DEB78B836C838B818695869586958A8318
:100CE0008B81877089838A81282F30E03E832D8312
:100CF0008D819E818130910509F443C02D813E8113
:100D0000223031052CF48D819E81009771F0BCC09A
:100D10002D813E812230310509F45FC08D819E8195
:100D20008330910509F485C0AFC08C818130A1F476
:100D3000AAE3B0E0EAE3F0E08081482F8981282F20
:100D400030E081E090E0022E02C0880F991F0A94E3
:100D5000E2F7842B8C9398C0AAE3B0E0EAE3F0E0DA
:100D60008081482F8981282F30E081E090E0022E99
:100D700002C0880F991F0A94E2F7809584238C9310
:100D800083C08C818130A1F4A7E3B0E0E7E3F0E019
:100D90008081482F8981282F30E081E090E0022E69
:100DA00002C0880F991F0A94E2F7842B8C936CC0C1
:100DB000A7E3B0E0E7E3F0E08081482F8981282FA6
:100DC00030E081E090E0022E02C0880F991F0A9463
:100DD000E2F7809584238C9357C08C818130A1F4F5
:100DE000A4E3B0E0E4E3F0E08081482F8981282F7C
:100DF00030E081E090E0022E02C0880F991F0A9433
:100E0000E2F7842B8C9340C0A4E3B0E0E4E3F0E08D
:100E10008081482F8981282F30E081E090E0022EE8
:100E200002C0880F991F0A94E2F7809584238C935F
:100E30002BC08C818130A1F4A1E3B0E0E1E3F0E0CC
:100E40008081482F8981282F30E081E090E0022EB8
:100E500002C0880F991F0A94E2F7842B8C9314C068
:100E6000A1E3B0E0E1E3F0E08081482F8981282F01
:100E700030E081E090E0022E02C0880F991F0A94B2
:100E8000E2F7809584238C9326960FB6F894DEBF04
:100E90000FBECDBFCF91DF910895DF93CF9300D0E8
:100EA00000D000D0CDB7DEB78B836C838B81869565
:100EB000869586958A838B81877089838A81282F7E
:100EC00030E03E832D838D819E818130910509F430
:100ED00043C02D813E81223031052CF48D819E81CD
:100EE000009771F0BCC02D813E812230310509F49C
:100EF0005FC08D819E818330910509F485C0AFC0AC
:100F00008C818130A1F4ABE3B0E0EBE3F0E08081D1
:100F1000482F8981282F30E081E090E0022E02C026
:100F2000880F991F0A94E2F7842B8C9398C0ABE347
:100F3000B0E0EBE3F0E08081482F8981282F30E09A
:100F400081E090E0022E02C0880F991F0A94E2F718
:100F5000809584238C9383C08C818130A1F4A8E395
:100F6000B0E0E8E3F0E08081482F8981282F30E06D
:100F700081E090E0022E02C0880F991F0A94E2F7E8
:100F8000842B8C936CC0A8E3B0E0E8E3F0E08081B0
:100F9000482F8981282F30E081E090E0022E02C0A6
:100FA000880F991F0A94E2F7809584238C9357C089
:100FB0008C818130A1F4A5E3B0E0E5E3F0E080812D
:100FC000482F8981282F30E081E090E0022E02C076
:100FD000880F991F0A94E2F7842B8C9340C0A5E3F5
:100FE000B0E0E5E3F0E08081482F8981282F30E0F0
:100FF00081E090E0022E02C0880F991F0A94E2F768
:10100000809584238C932BC08C818130A1F4A2E342
:10101000B0E0E2E3F0E08081482F8981282F30E0C2
:1010200081E090E0022E02C0880F991F0A94E2F737
:10103000842B8C9314C0A2E3B0E0E2E3F0E0808163
:10104000482F8981282F30E081E090E0022E02C0F5
:10105000880F991F0A94E2F7809584238C93269633
:101060000FB6F894DEBF0FBECDBFCF91DF910895CC
:10107000DF93CF93CDB7DEB7E1E3F0E08FE080837D
:10108000E2E3F0E08FEF8083CF91DF910895DF936B
:10109000CF93CDB7DEB72A970FB6F894DEBF0FBE59
:1010A000CDBFA2E3B0E0E2E3F0E080818E7F8C93DD
:1010B000A2E3B0E0E2E3F0E0808182608C93A2E3FF
:1010C000B0E0E2E3F0E0808184608C93A2E3B0E0E2
:1010D000E2E3F0E0808188608C93E0E3F0E08081DF
:1010E000807F89838981282F30E03A872987898505
:1010F0009A85803B9105D9F029853A85213B3105B8
:1011000034F489859A8580379105A1F016C0298528
:101110003A85203D310541F089859A85803E9105CB
:1011200061F491E09887EEC022E02887EBC033E0BD
:101130003887E8C08BE28887E5C0A2E3B0E0E2E34D
:10114000F0E0808181608C93A2E3B0E0E2E3F0E024
:1011500080818D7F8C93A2E3B0E0E2E3F0E08081B8
:1011600084608C93A2E3B0E0E2E3F0E080818860E9
:101170008C93E0E3F0E08081807F89838981282F50
:1011800030E03F832E838E819F81803B9105D9F093
:101190002E813F81213B310534F48E819F81803740
:1011A0009105A1F016C02E813F81203D310541F00F
:1011B0008E819F81803E910561F494E09887A2C062
:1011C00025E028879FC036E038879CC08DE288875D
:1011D00099C0A2E3B0E0E2E3F0E0808181608C930B
:1011E000A2E3B0E0E2E3F0E0808182608C93A2E3CE
:1011F000B0E0E2E3F0E080818B7F8C93A2E3B0E08B
:10120000E2E3F0E0808188608C93E0E3F0E08081AD
:10121000807F89838981282F30E03D832C838C81D6
:101220009D81803B9105D9F02C813D81213B310589
:1012300034F48C819D8180379105A1F016C02C81FA
:101240003D81203D310541F08C819D81803E91059D
:1012500061F497E0988756C028E0288753C039E0AA
:10126000388750C08AE288874DC0A2E3B0E0E2E34D
:10127000F0E0808181608C93A2E3B0E0E2E3F0E0F3
:10128000808182608C93A2E3B0E0E2E3F0E08081B1
:1012900084608C93A2E3B0E0E2E3F0E08081877F9A
:1012A0008C93E0E3F0E08081807F89838981282F1F
:1012B00030E03B832A838A819B81803B9105D1F07A
:1012C0002A813B81213B310534F48A819B8180371F
:1012D000910599F015C02A813B81203D310541F0EF
:1012E0008A819B81803E910559F493E298870AC0D8
:1012F000188608C02DE3288705C03FE2388702C062
:101300008FEF888788852A960FB6F894DEBF0FBEC8
:10131000CDBFCF91DF910895DF93CF93CDB7DEB7E7
:101320002F970FB6F894DEBF0FBECDBF8F8780E03A
:1013300060E00E944D0781E060E00E944D078F85CC
:10134000982F917080E1692F0E944D078F858695B7
:10135000982F917081E1692F0E944D078F858695A6
:101360008695982F917082E1692F0E944D078F8595
:10137000869586958695982F917083E1692F0E94B6
:101380004D078F8582958F70982F917084E1692F1A
:101390000E944D078F85829586958770982F917052
:1013A00085E1692F0E944D078F85829586958695E8
:1013B0008370982F917086E1692F0E944D078F8569
:1013C000982F991F9927991F87E1692F0E944D0730
:1013D00082E061E00E944D0780E090E0A0E0B0E490
:1013E0008B879C87AD87BE876B857C858D859E8529
:1013F00020E030E04AEF54E40E941702DC01CB0108
:101400008F839887A987BA876F81788589859A8520
:1014100020E030E040E85FE30E94710388232CF471
:1014200081E090E09E838D833FC06F8178858985C0
:101430009A8520E03FEF4FE757E40E94110318160A
:101440004CF56B857C858D859E8520E030E040E203
:1014500051E40E941702DC01CB01BC01CD010E94C6
:101460004100DC01CB019E838D830FC088EC90E0AE
:101470009C838B838B819C810197F1F79C838B8369
:101480008D819E8101979E838D838D819E810097A2
:1014900069F714C06F81788589859A850E9441001B
:1014A000DC01CB019E838D838D819E819A8389830C
:1014B00089819A810197F1F79A83898382E060E0BC
:1014C0000E944D072F960FB6F894DEBF0FBECDBF1A
:1014D000CF91DF910895DF93CF93CDB7DEB72F97EC
:1014E0000FB6F894DEBF0FBECDBF8F8780E061E0FE
:1014F0000E944D0781E060E00E944D078F85982F84
:10150000917080E1692F0E944D078F858695982FF5
:10151000917081E1692F0E944D078F858695869590
:10152000982F917082E1692F0E944D078F858695D3
:1015300086958695982F917083E1692F0E944D07BB
:101540008F8582958F70982F917084E1692F0E940A
:101550004D078F85829586958770982F917085E1CC
:10156000692F0E944D078F85829586958695837099
:10157000982F917086E1692F0E944D078F85982FD3
:10158000991F9927991F87E1692F0E944D0782E0D3
:1015900061E00E944D0780E090E0A0E0B0E48B871E
:1015A0009C87AD87BE876B857C858D859E8520E079
:1015B00030E04AEF54E40E941702DC01CB018F8334
:1015C0009887A987BA876F81788589859A8520E071
:1015D00030E040E85FE30E94710388232CF481E04F
:1015E00090E09E838D833FC06F81788589859A8541
:1015F00020E03FEF4FE757E40E94110318164CF527
:101600006B857C858D859E8520E030E040E251E44D
:101610000E941702DC01CB01BC01CD010E944100F8
:10162000DC01CB019E838D830FC088EC90E09C830E
:101630008B838B819C810197F1F79C838B838D81B8
:101640009E8101979E838D838D819E81009769F78E
:1016500014C06F81788589859A850E944100DC01DC
:10166000CB019E838D838D819E819A83898389811D
:101670009A810197F1F79A83898382E060E00E9462
:101680004D072F960FB6F894DEBF0FBECDBFCF919A
:10169000DF910895DF93CF93CDB7DEB7AA970FB64A
:1016A000F894DEBF0FBECDBF80E061E00E9462060D
:1016B00081E061E00E94620682E061E00E946206D1
:1016C00080E161E00E94620681E161E00E946206C1
:1016D00082E161E00E94620683E161E00E946206AD
:1016E00084E161E00E94620685E161E00E94620699
:1016F00086E161E00E94620687E161E00E94620685
:1017000088E30E948C0980E090E0A0E0B0E48FA321
:1017100098A7A9A7BAA76FA178A589A59AA520E03F
:1017200030E04AEF54E40E941702DC01CB018BA3A6
:101730009CA3ADA3BEA36BA17CA18DA19EA120E023
:1017400030E040E85FE30E94710388232CF481E0DD
:1017500090E09AA389A33FC06BA17CA18DA19EA11B
:1017600020E03FEF4FE757E40E94110318164CF5B5
:101770006FA178A589A59AA520E030E040E251E468
:101780000E941702DC01CB01BC01CD010E94410087
:10179000DC01CB019AA389A30FC088EC90E098A349
:1017A0008F8F8F8D98A10197F1F798A38F8F89A1C3
:1017B0009AA101979AA389A389A19AA1009769F791
:1017C00014C06BA17CA18DA19EA10E944100DC01EF
:1017D000CB019AA389A389A19AA19E8F8D8F8D8D0C
:1017E0009E8D0197F1F79E8F8D8F8CE00E948C0962
:1017F00080E090E0A0E0B0E4898F9A8FAB8FBC8F3F
:10180000698D7A8D8B8D9C8D20E030E04AEF54E419
:101810000E941702DC01CB018D8B9E8BAF8BB88FA2
:101820006D897E898F89988D20E030E040E85FE304
:101830000E94710388232CF481E090E09C8B8B8BB9
:101840003FC06D897E898F89988D20E03FEF4FE7FB
:1018500057E40E94110318164CF5698D7A8D8B8D13
:101860009C8D20E030E040E251E40E941702DC0150
:10187000CB01BC01CD010E944100DC01CB019C8B5E
:101880008B8B0FC088EC90E09A8B898B89899A8921
:101890000197F1F79A8B898B8B899C8901979C8B97
:1018A0008B8B8B899C89009769F714C06D897E8921
:1018B0008F89988D0E944100DC01CB019C8B8B8B22
:1018C0008B899C89988B8F878F8598890197F1F7F1
:1018D000988B8F8781E00E948C0980E090E0A0E0E7
:1018E000B0E48B879C87AD87BE876B857C858D85B3
:1018F0009E8520E030E04AEF54E40E941702DC01AC
:10190000CB018F839887A987BA876F81788589856E
:101910009A8520E030E040E85FE30E94710388236D
:101920002CF481E090E09E838D833FC06F817885A9
:1019300089859A8520E03FEF4FE757E40E94110325
:1019400018164CF56B857C858D859E8520E030E0F2
:1019500040E251E40E941702DC01CB01BC01CD0141
:101960000E944100DC01CB019E838D830FC088EC77
:1019700090E09C838B838B819C810197F1F79C8302
:101980008B838D819E8101979E838D838D819E8126
:10199000009769F714C06F81788589859A850E94C0
:1019A0004100DC01CB019E838D838D819E819A83D2
:1019B000898389819A810197F1F79A838983AA960D
:1019C0000FB6F894DEBF0FBECDBFCF91DF91089563
:1019D000DF93CF9300D00F92CDB7DEB78B831A82FF
:1019E000198208C080E10E948C0989819A81019640
:1019F0009A8389838B81282F30E089819A8182178D
:101A0000930784F30F900F900F90CF91DF9108957B
:101A10000F931F93DF93CF93CDB7DEB7CF59D1404C
:101A20000FB6F894DEBF0FBECDBFCE0182589E4FD9
:101A3000C556DE4F99838883CB59D14088E690E024
:101A4000C356DE4F99838883CD59D14095E0C15666
:101A5000DE4F9883CF59D140C356DE4FE881F981DC
:101A6000CD59D1400080C356DE4F88819981CD5930
:101A7000D1400196C356DE4F99838883CD59D1401A
:101A8000C556DE4FE881F981CB59D1400082C55659
:101A9000DE4F88819981CB59D1400196C556DE4FE2
:101AA00099838883CB59D140C156DE4F9881CF5955
:101AB000D1409150C156DE4F9883CF59D140C15685
:101AC000DE4FE881CF59D140EE2331F6FE01ED57CC
:101AD000FE4F1082118212821382FE01ED57FE4FDB
:101AE00084E68083FE01ED57FE4F81E68183FE018F
:101AF000ED57FE4F8EE68283FE01E957FE4F1082BE
:101B0000118212821382FE01E957FE4F8DE6808317
:101B1000FE01E957FE4F81E68183FE01E957FE4F42
:101B20008EE68283FE01E557FE4F108211821282FB
:101B30001382FE01E557FE4F83E68083FE01E557E1
:101B4000FE4F81E68183FE01E557FE4F82E68283E8
:101B5000FE01E157FE4F1082118212821382FE01B4
:101B6000E157FE4F82E08083FE01E157FE4F82E0A5
:101B70008183FE01E157FE4F85E08283FE01ED5631
:101B8000FE4F1082118212821382FE01ED56FE4F2B
:101B900083E08083FE01ED56FE4F82E08183FE01EB
:101BA000ED56FE4F87E08283FE01E956FE4F10821C
:101BB000118212821382FE01E956FE4F88E0808373
:101BC000FE01E956FE4F86E08183FE01E956FE4F95
:101BD00089E08283FE01E059FE4F80E88083FE01A8
:101BE000E159FE4F80EC8083FE01E259FE4F85E80B
:101BF0008083FE01E359FE4F85EC8083FE01EE58A1
:101C0000FE4F108280E060E00E94620680E061E0AA
:101C10000E944D070E944A0BE9E3F0E0DE01AC5858
:101C2000BE4F80818C93FE01EC58FE4F8081813045
:101C300011F00C94EC1AFE01ED58FE4F10820C943A
:101C400093190E944708FE01EB58FE4F8083FE0166
:101C5000E059FE4F80810E948C09FE01EB58FE4F37
:101C600080818F3F11F40C948119FE01EB58FE4FD7
:101C700080818D3311F40C948119FE01EB58FE4FD5
:101C80008081833211F40C948119FE01EB58FE4FD0
:101C90008081813009F0C8C0FE01ED58FE4F80817F
:101CA000282F30E0CE018A589E4FFC01E20FF31F2F
:101CB00081E6808381E60E946B0AFE01E759FE4FB0
:101CC00080E090E0AAEFB4E480839183A283B383A1
:101CD0008E010B591E4FFE01E759FE4F6081718145
:101CE0008281938120E030E04AEF54E40E941702A1
:101CF000DC01CB01F80180839183A283B383FE01D1
:101D0000EB59FE4F608171818281938120E030E048
:101D100040E85FE30E947103882344F4FE01ED591B
:101D2000FE4F81E090E09183808365C0FE01EB5916
:101D3000FE4F608171818281938120E03FEF4FE708
:101D400057E40E94110318160CF044C0FE01E75935
:101D5000FE4F608171818281938120E030E040E21A
:101D600051E40E941702DC01CB018E010D591E4F78
:101D7000BC01CD010E944100DC01CB01F80191833F
:101D800080831FC0FE01EF59FE4F88EC90E09183E5
:101D90008083FE01EF59FE4F808191810197F1F719
:101DA000FE01EF59FE4F91838083DE01AD59BE4F96
:101DB000FE01ED59FE4F80819181019711969C9310
:101DC0008E93FE01ED59FE4F808191810097D1F6EF
:101DD0000C9481198E010D591E4FFE01EB59FE4FD7
:101DE00060817181828193810E944100DC01CB017D
:101DF000F80191838083DE01A15ABE4FFE01ED59A7
:101E0000FE4F8081918111969C938E93FE01E15A41
:101E1000FE4F808191810197F1F7FE01E15AFE4F5B
:101E2000918380830C948119FE01EB58FE4F8081D1
:101E3000823009F0C8C0FE01ED58FE4F8081282F86
:101E400030E0CE018A589E4FFC01E20FF31F82E67C
:101E5000808382E60E946B0AFE01E55AFE4F80E015
:101E600090E0AAEFB4E480839183A283B3838E01D0
:101E7000095A1E4FFE01E55AFE4F60817181828131
:101E8000938120E030E04AEF54E40E941702DC0125
:101E9000CB01F80180839183A283B383FE01E95AC9
:101EA000FE4F608171818281938120E030E040E8C3
:101EB0005FE30E947103882344F4FE01EB5AFE4F56
:101EC00081E090E09183808365C0FE01E95AFE4F76
:101ED000608171818281938120E03FEF4FE757E479
:101EE0000E94110318160CF044C0FE01E55AFE4F83
:101EF000608171818281938120E030E040E251E491
:101F00000E941702DC01CB018E010B5A1E4FBC014F
:101F1000CD010E944100DC01CB01F8019183808357
:101F20001FC0FE01ED5AFE4F88EC90E09183808344
:101F3000FE01ED5AFE4F808191810197F1F7FE017C
:101F4000ED5AFE4F91838083DE01AB5ABE4FFE01F6
:101F5000EB5AFE4F80819181019711969C938E934D
:101F6000FE01EB5AFE4F808191810097D1F60C94CF
:101F700081198E010B5A1E4FFE01E95AFE4F6081F6
:101F80007181828193810E944100DC01CB01F801C3
:101F900091838083DE01AF5ABE4FFE01EB5AFE4FA4
:101FA0008081918111969C938E93FE01EF5AFE4F92
:101FB000808191810197F1F7FE01EF5AFE4F9183E5
:101FC00080830C948119FE01EB58FE4F8081833091
:101FD00009F0C8C0FE01ED58FE4F8081282F30E087
:101FE000CE018A589E4FFC01E20FF31F83E68083E7
:101FF00083E60E946B0AFE01E35BFE4F80E090E007
:10200000AAEFB4E480839183A283B3838E01075B3C
:102010001E4FFE01E35BFE4F6081718182819381DF
:1020200020E030E04AEF54E40E941702DC01CB01CB
:10203000F80180839183A283B383FE01E75BFE4FA7
:10204000608171818281938120E030E040E85FE32C
:102050000E947103882344F4FE01E95BFE4F81E096
:1020600090E09183808365C0FE01E75BFE4F608155
:1020700071818281938120E03FEF4FE757E40E9416
:10208000110318160CF044C0FE01E35BFE4F6081A3
:1020900071818281938120E030E040E251E40E942E
:1020A0001702DC01CB018E01095B1E4FBC01CD0183
:1020B0000E944100DC01CB01F801918380831FC0A5
:1020C000FE01EB5BFE4F88EC90E091838083FE0184
:1020D000EB5BFE4F808191810197F1F7FE01EB5B95
:1020E000FE4F91838083DE01A95BBE4FFE01E95B59
:1020F000FE4F80819181019711969C938E93FE01F2
:10210000E95BFE4F808191810097D1F60C94811993
:102110008E01095B1E4FFE01E75BFE4F60817181FE
:10212000828193810E944100DC01CB01F8019183FF
:102130008083DE01AD5BBE4FFE01E95BFE4F808117
:10214000918111969C938E93FE01ED5BFE4F8081F1
:1021500091810197F1F7FE01ED5BFE4F9183808342
:102160000C948119FE01EB58FE4F80818B3209F0EF
:10217000C8C0FE01ED58FE4F8081282F30E0CE010F
:102180008A589E4FFC01E20FF31F84E6808384E6A9
:102190000E946B0AFE01E15CFE4F80E090E0AAEF36
:1021A000B4E480839183A283B3838E01055C1E4FC8
:1021B000FE01E15CFE4F608171818281938120E0AC
:1021C00030E04AEF54E40E941702DC01CB01F80131
:1021D00080839183A283B383FE01E55CFE4F60811F
:1021E00071818281938120E030E040E85FE30E94CA
:1021F0007103882344F4FE01E75CFE4F81E090E028
:102200009183808365C0FE01E55CFE4F6081718132
:102210008281938120E03FEF4FE757E40E94110352
:1022200018160CF044C0FE01E15CFE4F6081718124
:102230008281938120E030E040E251E40E94170265
:10224000DC01CB018E01075C1E4FBC01CD010E9459
:102250004100DC01CB01F801918380831FC0FE01A6
:10226000E95CFE4F88EC90E091838083FE01E95C9D
:10227000FE4F808191810197F1F7FE01E95CFE4FED
:1022800091838083DE01A75CBE4FFE01E75CFE4FB9
:1022900080819181019711969C938E93FE01E75C5A
:1022A000FE4F808191810097D1F60C9481198E01A7
:1022B000075C1E4FFE01E55CFE4F608171818281EB
:1022C00093810E944100DC01CB01F801918380835E
:1022D000DE01AB5CBE4FFE01E75CFE4F8081918169
:1022E00011969C938E93FE01EB5CFE4F8081918151
:1022F0000197F1F7FE01EB5CFE4F918380830C9414
:102300008119FE01EB58FE4F8081843009F0C6C070
:10231000FE01ED58FE4F8081282F30E0CE018A5813
:102320009E4FFC01E20FF31F85E6808385E60E9445
:102330006B0AFE01EF5CFE4F80E090E0AAEFB4E490
:1023400080839183A283B3838E01035D1E4FFE01C0
:10235000EF5CFE4F608171818281938120E030E0EB
:102360004AEF54E40E941702DC01CB01F80180839C
:102370009183A283B383FE01E35DFE4F608171818F
:102380008281938120E030E040E85FE30E947103A6
:10239000882344F4FE01E55DFE4F81E090E09183E7
:1023A000808364C0FE01E35DFE4F608171818281A4
:1023B000938120E03FEF4FE757E40E941103181686
:1023C0000CF043C0FE01EF5CFE4F608171818281A1
:1023D000938120E030E040E251E40E941702DC01EA
:1023E000CB018E01055D1E4FBC01CD010E94410055
:1023F000DC01CB01F801918380831FC0FE01E75D02
:10240000FE4F88EC90E091838083FE01E75DFE4FF4
:10241000808191810197F1F7FE01E75DFE4F918385
:102420008083DE01A55DBE4FFE01E55DFE4F80812C
:102430009181019711969C938E93FE01E55DFE4F6D
:10244000808191810097D1F65CC78E01055D1E4F9A
:10245000FE01E35DFE4F60817181828193810E9464
:102460004100DC01CB01F80191838083DE01A95D8D
:10247000BE4FFE01E55DFE4F8081918111969C93D8
:102480008E93FE01E95DFE4F808191810197F1F706
:10249000FE01E95DFE4F9183808333C7FE01EB5857
:1024A000FE4F8081853009F0C6C0FE01ED58FE4F19
:1024B0008081282F30E0CE018A589E4FFC01E20F28
:1024C000F31F86E6808386E60E946B0AFE01ED5DBF
:1024D000FE4F80E090E0AAEFB4E480839183A28372
:1024E000B3838E01015E1E4FFE01ED5DFE4F6081E4
:1024F00071818281938120E030E04AEF54E40E94B0
:102500001702DC01CB01F80180839183A283B3839E
:10251000FE01E15EFE4F608171818281938120E046
:1025200030E040E85FE30E947103882344F4FE0139
:10253000E35EFE4F81E090E09183808364C0FE0102
:10254000E15EFE4F608171818281938120E03FEFE7
:102550004FE757E40E94110318160CF043C0FE0128
:10256000ED5DFE4F608171818281938120E030E0DA
:1025700040E251E40E941702DC01CB018E01035EB0
:102580001E4FBC01CD010E944100DC01CB01F801CE
:10259000918380831FC0FE01E55EFE4F88EC90E0D2
:1025A00091838083FE01E55EFE4F808191810197DA
:1025B000F1F7FE01E55EFE4F91838083DE01A35EAD
:1025C000BE4FFE01E35EFE4F80819181019711961F
:1025D0009C938E93FE01E35EFE4F80819181009774
:1025E000D1F68FC68E01035E1E4FFE01E15EFE4FE7
:1025F00060817181828193810E944100DC01CB0165
:10260000F80191838083DE01A75EBE4FFE01E35E89
:10261000FE4F8081918111969C938E93FE01E75E1F
:10262000FE4F808191810197F1F7FE01E75EFE4F39
:102630009183808366C6FE01EB58FE4F8081863011
:1026400009F0C6C0FE01ED58FE4F8081282F30E012
:10265000CE018A589E4FFC01E20FF31F87E680836C
:1026600087E60E946B0AFE01EB5EFE4F80E090E081
:10267000AAEFB4E480839183A283B3838E010F5EBB
:102680001E4FFE01EB5EFE4F60817181828193815E
:1026900020E030E04AEF54E40E941702DC01CB0155
:1026A000F80180839183A283B383FE01EF5EFE4F26
:1026B000608171818281938120E030E040E85FE3B6
:1026C0000E947103882344F4FE01E15FFE4F81E024
:1026D00090E09183808364C0FE01EF5EFE4F6081D5
:1026E00071818281938120E03FEF4FE757E40E94A0
:1026F000110318160CF043C0FE01EB5EFE4F608123
:1027000071818281938120E030E040E251E40E94B7
:102710001702DC01CB018E01015F1E4FBC01CD0110
:102720000E944100DC01CB01F801918380831FC02E
:10273000FE01E35FFE4F88EC90E091838083FE0111
:10274000E35FFE4F808191810197F1F7FE01E35F26
:10275000FE4F91838083DE01A15FBE4FFE01E15FEA
:10276000FE4F80819181019711969C938E93FE017B
:10277000E15FFE4F808191810097D1F6C2C58E0145
:10278000015F1E4FFE01EF5EFE4F6081718182810D
:1027900093810E944100DC01CB01F8019183808389
:1027A000DE01A55FBE4FFE01E15FFE4F808191819A
:1027B00011969C938E93FE01E55FFE4F808191817F
:1027C0000197F1F7FE01E55FFE4F9183808399C584
:1027D000FE01EB58FE4F80818D3209F0C6C0FE012C
:1027E000ED58FE4F8081282F30E0CE018A589E4F51
:1027F000FC01E20FF31F88E6808388E60E946B0AE3
:10280000FE01E95FFE4F80E090E0AAEFB4E4808330
:102810009183A283B3838E010D5F1E4FFE01E95F9A
:10282000FE4F608171818281938120E030E04AEF28
:1028300054E40E941702DC01CB01F80180839183EC
:10284000A283B383FE01ED5FFE4F608171818281BF
:10285000938120E030E040E85FE30E947103882329
:1028600044F4FE01EF5FFE4F81E090E091838083AE
:1028700064C0FE01ED5FFE4F6081718182819381B2
:1028800020E03FEF4FE757E40E94110318160CF0C9
:1028900043C0FE01E95FFE4F6081718182819381B7
:1028A00020E030E040E251E40E941702DC01CB015D
:1028B0008E010F5F1E4FBC01CD010E944100DC0163
:1028C000CB01F801918380831FC0FE01E150FF4FCF
:1028D00088EC90E091838083FE01E150FF4F80817E
:1028E00091810197F1F7FE01E150FF4F91838083C1
:1028F000DE01AF5FBE4FFE01EF5FFE4F8081918131
:10290000019711969C938E93FE01EF5FFE4F80819D
:1029100091810097D1F6F5C48E010F5F1E4FFE0125
:10292000ED5FFE4F60817181828193810E94410041
:10293000DC01CB01F80191838083DE01A350BF4FFE
:10294000FE01EF5FFE4F8081918111969C938E93E3
:10295000FE01E350FF4F808191810197F1F7FE0165
:10296000E350FF4F91838083CCC4FE01EB58FE4FB0
:102970008081873009F0C6C0FE01ED58FE4F80818E
:10298000282F30E0CE018A589E4FFC01E20FF31F42
:1029900089E6808389E60E946B0AFE01E750FF4FBB
:1029A00080E090E0AAEFB4E480839183A283B383B4
:1029B0008E010B501F4FFE01E750FF4F6081718168
:1029C0008281938120E030E04AEF54E40E941702B4
:1029D000DC01CB01F80180839183A283B383FE01E4
:1029E000EB50FF4F608171818281938120E030E064
:1029F00040E85FE30E947103882344F4FE01ED5038
:102A0000FF4F81E090E09183808364C0FE01EB5032
:102A1000FF4F608171818281938120E03FEF4FE71A
:102A200057E40E94110318160CF043C0FE01E75052
:102A3000FF4F608171818281938120E030E040E22C
:102A400051E40E941702DC01CB018E010D501F4F93
:102A5000BC01CD010E944100DC01CB01F801918352
:102A600080831FC0FE01EF50FF4F88EC90E0918300
:102A70008083FE01EF50FF4F808191810197F1F734
:102A8000FE01EF50FF4F91838083DE01AD50BF4FB9
:102A9000FE01ED50FF4F80819181019711969C932B
:102AA0008E93FE01ED50FF4F808191810097D1F60A
:102AB00028C48E010D501F4FFE01EB50FF4F608167
:102AC0007181828193810E944100DC01CB01F80178
:102AD00091838083DE01A151BF4FFE01ED50FF4F76
:102AE0008081918111969C938E93FE01E151FF4F5D
:102AF000808191810197F1F7FE01E151FF4F9183B0
:102B00008083FFC3FE01EB58FE4F8081883009F0BF
:102B1000C6C0FE01ED58FE4F8081282F30E0CE0167
:102B20008A589E4FFC01E20FF31F8AE680838AE6F3
:102B30000E946B0AFE01E551FF4F80E090E0AAEF92
:102B4000B4E480839183A283B3838E0109511F4F24
:102B5000FE01E551FF4F608171818281938120E008
:102B600030E04AEF54E40E941702DC01CB01F80187
:102B700080839183A283B383FE01E951FF4F60817B
:102B800071818281938120E030E040E85FE30E9420
:102B90007103882344F4FE01EB51FF4F81E090E084
:102BA0009183808364C0FE01E951FF4F6081718190
:102BB0008281938120E03FEF4FE757E40E941103A9
:102BC00018160CF043C0FE01E551FF4F6081718182
:102BD0008281938120E030E040E251E40E941702BC
:102BE000DC01CB018E010B511F4FBC01CD010E94B6
:102BF0004100DC01CB01F801918380831FC0FE01FD
:102C0000ED51FF4F88EC90E091838083FE01ED5100
:102C1000FF4F808191810197F1F7FE01ED51FF4F48
:102C200091838083DE01AB51BF4FFE01EB51FF4F1B
:102C300080819181019711969C938E93FE01EB51B7
:102C4000FF4F808191810097D1F65BC38E010B51BC
:102C50001F4FFE01E951FF4F608171818281938195
:102C60000E944100DC01CB01F80191838083DE01E9
:102C7000AF51BF4FFE01EB51FF4F80819181119603
:102C80009C938E93FE01EF51FF4F808191810197BC
:102C9000F1F7FE01EF51FF4F9183808332C3FE01B4
:102CA000EB58FE4F8081893009F0C6C0FE01ED5817
:102CB000FE4F8081282F30E0CE018A589E4FFC01C4
:102CC000E20FF31F8BE680838BE60E946B0AFE0106
:102CD000E352FF4F80E090E0AAEFB4E48083918359
:102CE000A283B3838E0107521F4FFE01E352FF4FB1
:102CF000608171818281938120E030E04AEF54E469
:102D00000E941702DC01CB01F80180839183A2832A
:102D1000B383FE01E752FF4F60817181828193810D
:102D200020E030E040E85FE30E947103882344F430
:102D3000FE01E952FF4F81E090E09183808364C0FF
:102D4000FE01E752FF4F608171818281938120E013
:102D50003FEF4FE757E40E94110318160CF043C0F1
:102D6000FE01E352FF4F608171818281938120E0F7
:102D700030E040E251E40E941702DC01CB018E01F9
:102D800009521F4FBC01CD010E944100DC01CB0163
:102D9000F801918380831FC0FE01EB52FF4F88EC46
:102DA00090E091838083FE01EB52FF4F80819181FF
:102DB0000197F1F7FE01EB52FF4F91838083DE0113
:102DC000A952BF4FFE01E952FF4F808191810197C7
:102DD00011969C938E93FE01E952FF4F8081918161
:102DE0000097D1F68EC28E0109521F4FFE01E752A5
:102DF000FF4F60817181828193810E944100DC01DB
:102E0000CB01F80191838083DE01AD52BF4FFE01FB
:102E1000E952FF4F8081918111969C938E93FE0120
:102E2000ED52FF4F808191810197F1F7FE01ED5244
:102E3000FF4F9183808365C2FE01EB58FE4F808176
:102E40008A3209F0C6C0FE01ED58FE4F8081282F5E
:102E500030E0CE018A589E4FFC01E20FF31F8CE652
:102E600080838CE60E946B0AFE01E153FF4F80E0F5
:102E700090E0AAEFB4E480839183A283B3838E01B0
:102E800005531F4FFE01E153FF4F60817181828125
:102E9000938120E030E04AEF54E40E941702DC0105
:102EA000CB01F80180839183A283B383FE01E553B4
:102EB000FF4F608171818281938120E030E040E8A2
:102EC0005FE30E947103882344F4FE01E753FF4F40
:102ED00081E090E09183808364C0FE01E553FF4F61
:102EE000608171818281938120E03FEF4FE757E459
:102EF0000E94110318160CF043C0FE01E153FF4F6E
:102F0000608171818281938120E030E040E251E470
:102F10000E941702DC01CB018E0107531F4FBC0139
:102F2000CD010E944100DC01CB01F8019183808337
:102F30001FC0FE01E953FF4F88EC90E0918380832E
:102F4000FE01E953FF4F808191810197F1F7FE0166
:102F5000E953FF4F91838083DE01A753BF4FFE01EA
:102F6000E753FF4F80819181019711969C938E9337
:102F7000FE01E753FF4F808191810097D1F6C1C1D7
:102F80008E0107531F4FFE01E553FF4F6081718192
:102F9000828193810E944100DC01CB01F801918381
:102FA0008083DE01AB53BF4FFE01E753FF4F8081AB
:102FB000918111969C938E93FE01EB53FF4F80817C
:102FC00091810197F1F7FE01EB53FF4F91838083CD
:102FD00098C1FE01EB58FE4F8081882309F0C6C0DE
:102FE000FE01ED58FE4F8081282F30E0CE018A5837
:102FF0009E4FFC01E20FF31F8DE680838DE60E9459
:103000006B0AFE01EF53FF4F80E090E0AAEFB4E4BB
:1030100080839183A283B3838E0103541F4FFE01EB
:10302000EF53FF4F608171818281938120E030E016
:103030004AEF54E40E941702DC01CB01F8018083BF
:103040009183A283B383FE01E354FF4F60817181BA
:103050008281938120E030E040E85FE30E947103C9
:10306000882344F4FE01E554FF4F81E090E0918312
:10307000808364C0FE01E354FF4F608171818281CF
:10308000938120E03FEF4FE757E40E9411031816A9
:103090000CF043C0FE01EF53FF4F608171818281CC
:1030A000938120E030E040E251E40E941702DC010D
:1030B000CB018E0105541F4FBC01CD010E94410080
:1030C000DC01CB01F801918380831FC0FE01E7542E
:1030D000FF4F88EC90E091838083FE01E754FF4F1F
:1030E000808191810197F1F7FE01E754FF4F9183B1
:1030F0008083DE01A554BF4FFE01E554FF4F808160
:103100009181019711969C938E93FE01E554FF4F98
:10311000808191810097D1F6F4C08E0105541F4F34
:10312000FE01E354FF4F60817181828193810E948F
:103130004100DC01CB01F80191838083DE01A954B9
:10314000BF4FFE01E554FF4F8081918111969C9302
:103150008E93FE01E954FF4F808191810197F1F731
:10316000FE01E954FF4F91838083CBC0FE01EB58F1
:10317000FE4F80818F3209F0C4C0FE01ED58FE4F32
:103180008081282F30E0CE018A589E4FFC01E20F4B
:10319000F31F8EE680838EE60E946B0AFE01ED54DB
:1031A000FF4F80E090E0AAEFB4E480839183A28394
:1031B000B3838E0101551F4FFE01ED54FF4F608117
:1031C00071818281938120E030E04AEF54E40E94D3
:1031D0001702DC01CB01F80180839183A283B383C2
:1031E000FE01E155FF4F608171818281938120E072
:1031F00030E040E85FE30E947103882344F4FE015D
:10320000E355FF4F81E090E09183808364C0FE012D
:10321000E155FF4F608171818281938120E03FEF12
:103220004FE757E40E94110318160CF043C0FE014B
:10323000ED54FF4F608171818281938120E030E005
:1032400040E251E40E941702DC01CB018E010355DC
:103250001F4FBC01CD010E944100DC01CB01F801F0
:10326000918380831FC0FE01E555FF4F88EC90E0FD
:1032700091838083FE01E555FF4F80819181019705
:10328000F1F7FE01E555FF4F91838083DE01A355E1
:10329000BF4FFE01E355FF4F808191810197119649
:1032A0009C938E93FE01E355FF4F8081918100979F
:1032B000D1F627C08E0103551F4FFE01E155FF4F88
:1032C00060817181828193810E944100DC01CB0188
:1032D000F80191838083DE01A755BF4FFE01E355BE
:1032E000FF4F808191818D939C93FE01E755FF4FA5
:1032F000808191810197F1F7FE01E755FF4F91839E
:103300008083DE01A059BE4FFE01E059FE4F80814F
:103310008F5F8C93DE01AD58BE4FFE01ED58FE4F1E
:1033200080818F5F8C93FE01ED58FE4F808183304A
:1033300010F40C94210E0E944708FE01EB58FE4F3A
:103340008083FE01EB58FE4F80818D33A1F7DE01B3
:10335000AE58BE4FFE01EE58FE4F80818F5F8C93BA
:10336000CE018A589E4F9E012D573E4FB9010E94B3
:10337000E8230097F1F0CE018A589E4F9E0129570D
:103380003E4FB9010E94E823009799F0CE018A5878
:103390009E4F9E0125573E4FB9010E94E82300979A
:1033A00041F0FE01EE58FE4F8081833010F40C9402
:1033B0001B0ECE018A589E4F9E012D573E4FB901DC
:1033C0000E94E823009711F40C940C0ECE018A5849
:1033D0009E4F9E0129573E4FB9010E94E823009756
:1033E00011F40C940C0ECE018A589E4F9E01255765
:1033F0003E4FB9010E94E823009711F40C940C0E83
:1034000081E00E948C09FE01ED58FE4F108227C01A
:10341000FE01E259FE4F80810E948C09FE01ED58A9
:10342000FE4F8081282F30E0CE0182589E4FFC0154
:10343000E20FF31F80810E946B0ADE01A259BE4F8A
:10344000FE01E259FE4F80818F5F8C93DE01AD5803
:10345000BE4FFE01ED58FE4F80818F5F8C93FE01C1
:10346000ED58FE4F8081853098F2FE01EB55FF4FFD
:1034700080E090E4ACE9B5E480839183A283B383D8
:103480008E010F551F4FFE01EB55FF4F608171817B
:103490008281938120E030E04AEF54E40E941702D9
:1034A000DC01CB01F80180839183A283B383FE0109
:1034B000EF55FF4F608171818281938120E030E080
:1034C00040E85FE30E947103882344F4FE01E15663
:1034D000FF4F81E090E09183808365C0FE01EF554E
:1034E000FF4F608171818281938120E03FEF4FE740
:1034F00057E40E94110318160CF044C0FE01EB556E
:10350000FF4F608171818281938120E030E040E251
:1035100051E40E941702DC01CB018E0101561F4FBE
:10352000BC01CD010E944100DC01CB01F801918377
:1035300080831FC0FE01E356FF4F88EC90E091832B
:103540008083FE01E356FF4F808191810197F1F75F
:10355000FE01E356FF4F91838083DE01A156BF4FEA
:10356000FE01E156FF4F80819181019711969C9356
:103570008E93FE01E156FF4F808191810097D1F635
:103580000C940C0E8E0101561F4FFE01EF55FF4F9C
:1035900060817181828193810E944100DC01CB01B5
:1035A000F80191838083DE01A556BF4FFE01E156ED
:1035B000FF4F8081918111969C938E93FE01E55679
:1035C000FF4F808191810197F1F7FE01E556FF4F92
:1035D000918380830C940C0EFE01EC58FE4F808189
:1035E000882311F00C940C0EFE01ED58FE4F108252
:1035F0000C949B220E944708FE01EB58FE4F8083EB
:10360000FE01E159FE4F80810E948C09FE01EB58BA
:10361000FE4F80818F3F09F47CC7FE01EB58FE4FBF
:1036200080818D3309F475C7FE01EB58FE4F808110
:10363000833209F46EC7FE01EB58FE4F80818B3256
:1036400009F467C7FE01EB58FE4F80818A3209F406
:1036500060C7FE01EB58FE4F80818F3209F459C7D5
:10366000FE01EB58FE4F80818D3209F452C7FE01F6
:10367000EB58FE4F8081882309F0CDC0FE01ED5844
:10368000FE4F8081282F30E0CE0186589E4FDC010E
:10369000A20FB31FFE01EB58FE4F80818C93FE01F9
:1036A000EB58FE4F8081805D0E946B0AFE01E95657
:1036B000FF4F80E090E0AAEFB4E480839183A2837F
:1036C000B3838E010D561F4FFE01E956FF4F6081F7
:1036D00071818281938120E030E04AEF54E40E94BE
:1036E0001702DC01CB01F80180839183A283B383AD
:1036F000FE01ED56FF4F608171818281938120E050
:1037000030E040E85FE30E947103882344F4FE0147
:10371000EF56FF4F81E090E09183808364C0FE010B
:10372000ED56FF4F608171818281938120E03FEFF0
:103730004FE757E40E94110318160CF043C0FE0136
:10374000E956FF4F608171818281938120E030E0F2
:1037500040E251E40E941702DC01CB018E010F56BA
:103760001F4FBC01CD010E944100DC01CB01F801DB
:10377000918380831FC0FE01E157FF4F88EC90E0EA
:1037800091838083FE01E157FF4F808191810197F2
:10379000F1F7FE01E157FF4F91838083DE01AF56C1
:1037A000BF4FFE01EF56FF4F808191810197119627
:1037B0009C938E93FE01EF56FF4F8081918100977D
:1037C000D1F6A7C68E010F561F4FFE01ED56FF4FD3
:1037D00060817181828193810E944100DC01CB0173
:1037E000F80191838083DE01A357BF4FFE01EF569E
:1037F000FF4F8081918111969C938E93FE01E35738
:10380000FF4F808191810197F1F7FE01E357FF4F50
:10381000918380837EC6FE01EB58FE4F808181300C
:1038200009F0CDC0FE01ED58FE4F8081282F30E019
:10383000CE0186589E4FDC01A20FB31FFE01EB584C
:10384000FE4F80818C93FE01EB58FE4F8081805D9E
:103850000E946B0AFE01E757FF4F80E090E0AAEF5D
:10386000B4E480839183A283B3838E010B571F4FEF
:10387000FE01E757FF4F608171818281938120E0D3
:1038800030E04AEF54E40E941702DC01CB01F8015A
:1038900080839183A283B383FE01EB57FF4F608146
:1038A00071818281938120E030E040E85FE30E94F3
:1038B0007103882344F4FE01ED57FF4F81E090E04F
:1038C0009183808364C0FE01EB57FF4F608171815B
:1038D0008281938120E03FEF4FE757E40E9411037C
:1038E00018160CF043C0FE01E757FF4F608171814D
:1038F0008281938120E030E040E251E40E9417028F
:10390000DC01CB018E010D571F4FBC01CD010E9480
:103910004100DC01CB01F801918380831FC0FE01CF
:10392000EF57FF4F88EC90E091838083FE01EF57C3
:10393000FF4F808191810197F1F7FE01EF57FF4F13
:1039400091838083DE01AD57BF4FFE01ED57FF4FDE
:1039500080819181019711969C938E93FE01ED5782
:10396000FF4F808191810097D1F6D3C58E010D570D
:103970001F4FFE01EB57FF4F608171818281938160
:103980000E944100DC01CB01F80191838083DE01BC
:10399000A158BF4FFE01ED57FF4F808191811196D5
:1039A0009C938E93FE01E158FF4F80819181019796
:1039B000F1F7FE01E158FF4F91838083AAC5FE0114
:1039C000EB58FE4F8081823009F0CDC0FE01ED58EA
:1039D000FE4F8081282F30E0CE0186589E4FDC01BB
:1039E000A20FB31FFE01EB58FE4F80818C93FE01A6
:1039F000EB58FE4F8081805D0E946B0AFE01E55806
:103A0000FF4F80E090E0AAEFB4E480839183A2832B
:103A1000B3838E0109581F4FFE01E558FF4F6081A7
:103A200071818281938120E030E04AEF54E40E946A
:103A30001702DC01CB01F80180839183A283B38359
:103A4000FE01E958FF4F608171818281938120E0FE
:103A500030E040E85FE30E947103882344F4FE01F4
:103A6000EB58FF4F81E090E09183808364C0FE01BA
:103A7000E958FF4F608171818281938120E03FEF9F
:103A80004FE757E40E94110318160CF043C0FE01E3
:103A9000E558FF4F608171818281938120E030E0A1
:103AA00040E251E40E941702DC01CB018E010B5869
:103AB0001F4FBC01CD010E944100DC01CB01F80188
:103AC000918380831FC0FE01ED58FF4F88EC90E08A
:103AD00091838083FE01ED58FF4F80819181019792
:103AE000F1F7FE01ED58FF4F91838083DE01AB5863
:103AF000BF4FFE01EB58FF4F8081918101971196D6
:103B00009C938E93FE01EB58FF4F8081918100972B
:103B1000D1F6FFC48E010B581F4FFE01E958FF4F2D
:103B200060817181828193810E944100DC01CB011F
:103B3000F80191838083DE01AF58BF4FFE01EB583F
:103B4000FF4F8081918111969C938E93FE01EF58D7
:103B5000FF4F808191810197F1F7FE01EF58FF4FF0
:103B600091838083D6C4FE01EB58FE4F8081833061
:103B700009F0CDC0FE01ED58FE4F8081282F30E0C6
:103B8000CE0186589E4FDC01A20FB31FFE01EB58F9
:103B9000FE4F80818C93FE01EB58FE4F8081805D4B
:103BA0000E946B0AFE01E359FF4F80E090E0AAEF0C
:103BB000B4E480839183A283B3838E0107591F4F9E
:103BC000FE01E359FF4F608171818281938120E082
:103BD00030E04AEF54E40E941702DC01CB01F80107
:103BE00080839183A283B383FE01E759FF4F6081F5
:103BF00071818281938120E030E040E85FE30E94A0
:103C00007103882344F4FE01E959FF4F81E090E0FD
:103C10009183808364C0FE01E759FF4F6081718109
:103C20008281938120E03FEF4FE757E40E94110328
:103C300018160CF043C0FE01E359FF4F60817181FB
:103C40008281938120E030E040E251E40E9417023B
:103C5000DC01CB018E0109591F4FBC01CD010E942F
:103C60004100DC01CB01F801918380831FC0FE017C
:103C7000EB59FF4F88EC90E091838083FE01EB5974
:103C8000FF4F808191810197F1F7FE01EB59FF4FC2
:103C900091838083DE01A959BF4FFE01E959FF4F8F
:103CA00080819181019711969C938E93FE01E95931
:103CB000FF4F808191810097D1F62BC48E01095965
:103CC0001F4FFE01E759FF4F60817181828193810F
:103CD0000E944100DC01CB01F80191838083DE0169
:103CE000AD59BF4FFE01E959FF4F80819181119677
:103CF0009C938E93FE01ED59FF4F80819181019736
:103D0000F1F7FE01ED59FF4F9183808302C4FE015C
:103D1000EB58FE4F8081843009F0CDC0FE01ED5894
:103D2000FE4F8081282F30E0CE0186589E4FDC0167
:103D3000A20FB31FFE01EB58FE4F80818C93FE0152
:103D4000EB58FE4F8081805D0E946B0AFE01E15AB4
:103D5000FF4F80E090E0AAEFB4E480839183A283D8
:103D6000B3838E01055A1F4FFE01E15AFF4F608158
:103D700071818281938120E030E04AEF54E40E9417
:103D80001702DC01CB01F80180839183A283B38306
:103D9000FE01E55AFF4F608171818281938120E0AD
:103DA00030E040E85FE30E947103882344F4FE01A1
:103DB000E75AFF4F81E090E09183808364C0FE0169
:103DC000E55AFF4F608171818281938120E03FEF4E
:103DD0004FE757E40E94110318160CF043C0FE0190
:103DE000E15AFF4F608171818281938120E030E050
:103DF00040E251E40E941702DC01CB018E01075A18
:103E00001F4FBC01CD010E944100DC01CB01F80134
:103E1000918380831FC0FE01E95AFF4F88EC90E038
:103E200091838083FE01E95AFF4F80819181019740
:103E3000F1F7FE01E95AFF4F91838083DE01A75A13
:103E4000BF4FFE01E75AFF4F808191810197119684
:103E50009C938E93FE01E75AFF4F808191810097DA
:103E6000D1F657C38E01075A1F4FFE01E55AFF4F87
:103E700060817181828193810E944100DC01CB01CC
:103E8000F80191838083DE01AB5ABF4FFE01E75AF0
:103E9000FF4F8081918111969C938E93FE01EB5A86
:103EA000FF4F808191810197F1F7FE01EB5AFF4F9F
:103EB000918380832EC3FE01EB58FE4F80818530B5
:103EC00009F0CDC0FE01ED58FE4F8081282F30E073
:103ED000CE0186589E4FDC01A20FB31FFE01EB58A6
:103EE000FE4F80818C93FE01EB58FE4F8081805DF8
:103EF0000E946B0AFE01EF5AFF4F80E090E0AAEFAC
:103F0000B4E480839183A283B3838E01035B1F4F4C
:103F1000FE01EF5AFF4F608171818281938120E021
:103F200030E04AEF54E40E941702DC01CB01F801B3
:103F300080839183A283B383FE01E35BFF4F6081A3
:103F400071818281938120E030E040E85FE30E944C
:103F50007103882344F4FE01E55BFF4F81E090E0AC
:103F60009183808364C0FE01E35BFF4F60817181B8
:103F70008281938120E03FEF4FE757E40E941103D5
:103F800018160CF043C0FE01EF5AFF4F608171819B
:103F90008281938120E030E040E251E40E941702E8
:103FA000DC01CB018E01055B1F4FBC01CD010E94DE
:103FB0004100DC01CB01F801918380831FC0FE0129
:103FC000E75BFF4F88EC90E091838083FE01E75B25
:103FD000FF4F808191810197F1F7FE01E75BFF4F71
:103FE00091838083DE01A55BBF4FFE01E55BFF4F40
:103FF00080819181019711969C938E93FE01E55BE0
:10400000FF4F808191810097D1F683C28E01055BBD
:104010001F4FFE01E35BFF4F6081718182819381BD
:104020000E944100DC01CB01F80191838083DE0115
:10403000A95BBF4FFE01E55BFF4F80819181119627
:104040009C938E93FE01E95BFF4F808191810197E4
:10405000F1F7FE01E95BFF4F918380835AC2FE01B5
:10406000EB58FE4F8081863009F09EC0FE01ED586E
:10407000FE4F8081282F30E0CE0186589E4FDC0114
:10408000A20FB31FFE01EB58FE4F80818C93FE01FF
:10409000EB58FE4F8081805D0E946B0AFE01ED5B54
:1040A000FF4F80E090E0AAEFB4E480839183A28385
:1040B000B3838E01015C1F4FFE01ED5BFF4F6081FA
:1040C00071818281938120E030E04AEF54E40E94C4
:1040D0001702DC01CB01F80180839183A283B383B3
:1040E000FE01FF96608171818281938120E030E042
:1040F00040E85FE30E94710388232CF481E090E0A4
:104100009EAF8DAF46C0FE01FF96608171818281B6
:10411000938120E03FEF4FE757E40E941103181608
:1041200064F5FE01ED5BFF4F6081718182819381B7
:1041300020E030E040E251E40E941702DC01CB01B4
:10414000BC01CD010E944100DC01CB019EAF8DAFCF
:104150000FC088EC90E09CAF8BAF8BAD9CAD01970E
:10416000F1F79CAF8BAF8DAD9EAD01979EAF8DAF3C
:104170008DAD9EAD009769F7CCC1FE01FF966081C1
:104180007181828193810E944100DC01CB019EAF4D
:104190008DAF8DAD9EAD9AAF89AF89AD9AAD0197C8
:1041A000F1F79AAF89AFB5C1FE01EB58FE4F8081A0
:1041B000873009F08BC0FE01ED58FE4F8081282F1B
:1041C00030E0CE0186589E4FDC01A20FB31FFE01E6
:1041D000EB58FE4F80818C93FE01EB58FE4F80819F
:1041E000805D0E946B0A80E090E0AAEFB4E48DABA2
:1041F0009EABAFABB8AF6DA97EA98FA998AD20E0FB
:1042000030E04AEF54E40E941702DC01CB0189AB95
:104210009AABABABBCAB69A97AA98BA99CA920E0EE
:1042200030E040E85FE30E94710388232CF481E0D2
:1042300090E098AB8FA73FC069A97AA98BA99CA9E8
:1042400020E03FEF4FE757E40E94110318164CF5AA
:104250006DA97EA98FA998AD20E030E040E251E43D
:104260000E941702DC01CB01BC01CD010E9441007C
:10427000DC01CB0198AB8FA70FC088EC90E09EA724
:104280008DA78DA59EA50197F1F79EA78DA78FA558
:1042900098A9019798AB8FA78FA598A9009769F760
:1042A00038C169A97AA98BA99CA90E944100DC01A7
:1042B000CB0198AB8FA78FA598A99CA78BA78BA59F
:1042C0009CA50197F1F79CA78BA723C1FE01EB5892
:1042D000FE4F8081883009F08BC0FE01ED58FE4F03
:1042E0008081282F30E0CE0186589E4FDC01A20F3E
:1042F000B31FFE01EB58FE4F80818C93FE01EB58FB
:10430000FE4F8081805D0E946B0A80E090E0AAEF02
:10431000B4E48FA398A7A9A7BAA76FA178A589A588
:104320009AA520E030E04AEF54E40E941702DC0135
:10433000CB018BA39CA3ADA3BEA36BA17CA18DA13C
:104340009EA120E030E040E85FE30E9471038823F3
:104350002CF481E090E09AA389A33FC06BA17CA1DB
:104360008DA19EA120E03FEF4FE757E40E9411038B
:1043700018164CF56FA178A589A59AA520E030E024
:1043800040E251E40E941702DC01CB01BC01CD01E7
:104390000E944100DC01CB019AA389A30FC088ECE5
:1043A00090E098A38F8F8F8D98A10197F1F798A334
:1043B0008F8F89A19AA101979AA389A389A19AA114
:1043C000009769F7A6C06BA17CA18DA19EA10E9458
:1043D0004100DC01CB019AA389A389A19AA19E8FF8
:1043E0008D8F8D8D9E8D0197F1F79E8F8D8F91C052
:1043F000FE01EB58FE4F8081893009F08AC0FE0132
:10440000ED58FE4F8081282F30E0CE0186589E4F18
:10441000DC01A20FB31FFE01EB58FE4F80818C938D
:10442000FE01EB58FE4F8081805D0E946B0A80E0A8
:1044300090E0AAEFB4E4898F9A8FAB8FBC8F698D1F
:104440007A8D8B8D9C8D20E030E04AEF54E40E9401
:104450001702DC01CB018D8B9E8BAF8BB88F6D89E2
:104460007E898F89988D20E030E040E85FE30E94EC
:10447000710388232CF481E090E09C8B8B8B3FC0F0
:104480006D897E898F89988D20E03FEF4FE757E453
:104490000E94110318164CF5698D7A8D8B8D9C8DB9
:1044A00020E030E040E251E40E941702DC01CB0141
:1044B000BC01CD010E944100DC01CB019C8B8B8BA8
:1044C0000FC088EC90E09A8B898B89899A89019733
:1044D000F1F79A8B898B8B899C8901979C8B8B8BAD
:1044E0008B899C89009769F714C06D897E898F89B3
:1044F000988D0E944100DC01CB019C8B8B8B8B89BA
:104500009C89988B8F878F8598890197F1F7988B75
:104510008F87DE01A159BE4FFE01E159FE4F808118
:104520008F5F8C93DE01AD58BE4FFE01ED58FE4FFC
:1045300080818F5F8C93FE01ED58FE4F8081833028
:1045400008F458C80E944708FE01EB58FE4F8083CC
:10455000FE01EB58FE4F80818D33A1F7DE01AF588D
:10456000BE4FFE01EF58FE4F80818F5F8C93CE01CE
:1045700086589E4F9E0121573E4FB9010E94E82365
:104580000097F1F0CE0186589E4F9E012D563E4F6A
:10459000B9010E94E823009799F0CE0186589E4FFA
:1045A0009E0129563E4FB9010E94E823009741F031
:1045B000FE01EF58FE4F8081833010F40C94F41A02
:1045C000CE0186589E4F9E0121573E4FB9010E9451
:1045D000E823009711F40C940C0ECE0186589E4FE0
:1045E0009E012D563E4FB9010E94E823009711F419
:1045F0000C940C0ECE0186589E4F9E0129563E4FBC
:10460000B9010E94E823009711F40C940C0E81E08C
:104610000E948C09FE01ED58FE4F108227C0FE015A
:10462000E359FE4F80810E948C09FE01ED58FE4F38
:104630008081282F30E0CE0182589E4FFC01E20F8E
:10464000F31F80810E946B0ADE01A359BE4FFE0159
:10465000E359FE4F80818F5F8C93DE01AD58BE4FD2
:10466000FE01ED58FE4F80818F5F8C93FE01ED5867
:10467000FE4F8081853098F280E090E4ACE9B5E4AB
:104680008B879C87AD87BE876B857C858D859E8556
:1046900020E030E04AEF54E40E941702DC01CB0135
:1046A0008F839887A987BA876F81788589859A854E
:1046B00020E030E040E85FE30E94710388232CF49F
:1046C00081E090E09E838D8340C06F8178858985ED
:1046D0009A8520E03FEF4FE757E40E941103181638
:1046E00054F56B857C858D859E8520E030E040E229
:1046F00051E40E941702DC01CB01BC01CD010E94F4
:104700004100DC01CB019E838D830FC088EC90E0DB
:104710009C838B838B819C810197F1F79C838B8396
:104720008D819E8101979E838D838D819E810097CF
:1047300069F70C940C0E6F81788589859A850E94A3
:104740004100DC01CB019E838D838D819E819A8304
:10475000898389819A810197F1F79A8389830C94DF
:104760000C0E2F923F924F925F926F927F928F9298
:104770009F92AF92BF92CF92DF92EF92FF920F93F0
:104780001F93CF93DF93CDB7DEB7CA1BDB0B0FB6FA
:10479000F894DEBF0FBECDBF09942A8839884888B7
:1047A0005F846E847D848C849B84AA84B984C8844D
:1047B000DF80EE80FD800C811B81AA81B981CE0F44
:1047C000D11D0FB6F894DEBF0FBECDBFED01089529
:1047D000FB01DC018D91019080190110D9F3990B37
:0647E0000895F894FFCFDC
:0E47E60000000000000000004552524F52003B
:00000001FF
