:100000000C942A000C943F000C943F000C943F0089
:100010000C943F000C943F000C943F000C943F0064
:100020000C943F000C943F000C943F000C943F0054
:100030000C943F000C943F000C943F000C943F0044
:100040000C943F000C943F000C943F000C943F0034
:100050000C943F0011241FBECFE5D8E0DEBFCDBF1A
:1000600010E0A0E6B0E0ECE5F8E302C005900D92E8
:10007000A836B107D9F70E946E1B0C942C1C0C9467
:100080000000EF92FF920F931F937B018C0120E001
:1000900030E040E05FE40E94ED0388238CF0C8016B
:1000A000B70120E030E040E05FE40E94B9010E9427
:1000B0004D049B01AC01205030404040504806C0E8
:1000C000C801B7010E944D049B01AC01B901CA01EE
:1000D0001F910F91FF90EF900895A0E0B0E0E3E74B
:1000E000F0E00C94F51BDC012B01FA019C9192309D
:1000F00008F439C1EB018881823008F433C19430AF
:1001000069F4843009F02FC111969C91119789816F
:10011000981709F428C1A0E6B0E025C1843009F49D
:1001200021C18230A9F4923009F01DC19A01AD01BC
:1001300088E0EA010990AE01E90109929E0181502F
:10014000C1F7E201898111969C918923818308C1BD
:10015000923009F407C112962D903C901397EB0151
:100160008A819B811496AD90BD90CD90DC901797BD
:10017000EC80FD800E811F819101281B390BB90194
:1001800037FF04C066277727621B730B6032710547
:100190000CF061C0121613066CF537014801062EEB
:1001A00004C096948794779467940A94D2F721E0D8
:1001B00030E040E050E004C0220F331F441F551FC1
:1001C0006A95D2F721503040404050402E213F21C7
:1001D00040235123211531054105510521F021E02E
:1001E00030E040E050E079018A01E628F72808294C
:1001F00019293CC0232BD1F1260E371E35014601AB
:10020000062E04C096948794779467940A94D2F744
:1002100021E030E040E050E004C0220F331F441FD3
:10022000551F6A95D2F721503040404050402A2156
:100230003B214C215D21211531054105510521F05E
:1002400021E030E040E050E059016A01A628B728DB
:10025000C828D9280BC0821593052CF01C01AA24AC
:10026000BB24650103C0EE24FF24870111969C91F5
:10027000D20111968C91981709F445C0992339F051
:10028000A80197012A193B094C095D0906C0A6017E
:1002900095012E193F09400B510B57FD08C01182E3
:1002A0003382228224833583468357831DC081E0B5
:1002B00081833382228288279927DC01821B930B5A
:1002C000A40BB50B84839583A683B7830DC0220F3F
:1002D000331F441F551F24833583468357838281F0
:1002E000938101979383828324813581468157814D
:1002F000DA01C9010197A109B1098F5F9F4FAF4F83
:10030000BF4328F30BC0918333822282EA0CFB1C8B
:100310000C1D1D1DE482F5820683178383E0808314
:10032000248135814681578157FF1AC0C901AA2708
:1003300097FDA095BA2F81709070A070B0705695FF
:10034000479537952795822B932BA42BB52B848328
:100350009583A683B7838281938101969383828359
:10036000DF0101C0D201CD01CDB7DEB7E2E10C94CF
:10037000111CA0E2B0E0EFEBF1E00C94011C6983EA
:100380007A838B839C832D833E834F835887E9E058
:10039000EE2EF12CEC0EFD1ECE010196B7010E944F
:1003A00076058E010F5E1F4FCE010596B8010E94A3
:1003B00076058A8991E089278A8BC701B801AE0149
:1003C000475E5F4F0E946D000E94A104A096E6E088
:1003D0000C941D1CA0E2B0E0E0EFF1E00C94011CD5
:1003E00069837A838B839C832D833E834F835887D5
:1003F000F9E0EF2EF12CEC0EFD1ECE010196B701B7
:100400000E9476058E010F5E1F4FCE010596B80142
:100410000E947605C701B801AE01475E5F4F0E949A
:100420006D000E94A104A096E6E00C941D1CA0E2C1
:10043000B0E0EDE1F2E00C94F51B69837A838B83E5
:100440009C832D833E834F835887CE010196BE0146
:10045000675F7F4F0E947605CE010596BE016F5EF5
:100460007F4F0E9476059985923088F08989823085
:10047000C8F0943019F4823051F404C0843029F467
:10048000923081F480E690E0C6C0923049F420E0DA
:100490009A858A89981321E02A87CE010996BBC0E4
:1004A000823049F420E09A858A89981321E02A8BCA
:1004B000CE014196B0C02D843E844F8458886D880B
:1004C0007E888F88988CEE24FF248701AA24BB2481
:1004D000650140E050E060E070E0E0E0F0E0C10184
:1004E00081709070892BE9F0E60CF71C081D191D2E
:1004F0009A01AB012A0D3B1D4C1D5D1D80E090E073
:10050000A0E0B0E0E614F7040805190520F481E046
:1005100090E0A0E0B0E0BA01A901480F591F6A1F9E
:100520007B1FAA0CBB1CCC1CDD1C97FE08C081E005
:1005300090E0A0E0B0E0A82AB92ACA2ADB2A3196C6
:10054000E032F10549F0660C771C881C991C569422
:10055000479437942794C3CFFA85EA892B893C893D
:100560008B859C85280F391F2E5F3F4F17C0CA010E
:1005700081709070892B61F016950795F794E79438
:1005800080E090E0A0E0B0E8E82AF92A0A2B1B2BD3
:1005900076956795579547952F5F3F4F77FDE7CF46
:1005A0000CC0440F551F661F771F17FD4160EE0CEE
:1005B000FF1C001F111F21503040403090E05907B0
:1005C00090E0690790E4790760F32B8F3C8FDB01A3
:1005D000CA018F779070A070B07080349105A1052A
:1005E000B10561F447FD0AC0E114F10401051105EC
:1005F00029F0405C5F4F6F4F7F4F40781A8EFE1797
:1006000011F081E08A8F4D8F5E8F6F8F78A383E02A
:10061000898FCE0149960E94A104A096E2E10C9434
:10062000111CA8E1B0E0E7E1F3E00C94FD1B698345
:100630007A838B839C832D833E834F835887B9E0D5
:10064000EB2EF12CEC0EFD1ECE010196B7010E949F
:1006500076058E010F5E1F4FCE010596B8010E94F0
:1006600076052985223008F47EC03989323010F4AD
:10067000B8017CC08A859A8989278A87243011F03D
:10068000223031F4231709F06EC060E670E06EC0CE
:10069000343039F41D861E861F86188A1C861B86F8
:1006A00004C0323021F484E08987B7015FC02B8514
:1006B0003C858B899C89281B390B3C872B87ED84D3
:1006C000FE840F851889AD88BE88CF88D88CEA143F
:1006D000FB040C051D0540F4EE0CFF1C001F111F50
:1006E000215030403C872B8720E030E040E050E054
:1006F00080E090E0A0E0B0E460E070E0EA14FB0489
:100700000C051D0540F0282B392B4A2B5B2BEA18D2
:10071000FB080C091D09B695A79597958795EE0CD2
:10072000FF1C001F111F6F5F7F4F6F31710531F785
:10073000DA01C9018F779070A070B0708034910594
:10074000A105B10561F427FD0AC0E114F10401051A
:10075000110529F0205C3F4F4F4F5F4F20782D87C8
:100760003E874F87588BBE01675F7F4FCB010E944A
:10077000A1046896EAE00C94191CA8E1B0E0E3EC4F
:10078000F3E00C94011C69837A838B839C832D8313
:100790003E834F83588789E0E82EF12CEC0EFD1E36
:1007A000CE010196B7010E9476058E010F5E1F4FA4
:1007B000CE010596B8010E9476058985823040F009
:1007C0008989823028F0C701B8010E94EE0501C076
:1007D0008FEF6896E6E00C941D1CA8E1B0E0E3EF13
:1007E000F3E00C94011C69837A838B839C832D83B3
:1007F0003E834F83588789E0E82EF12CEC0EFD1ED6
:10080000CE010196B7010E9476058E010F5E1F4F43
:10081000CE010596B8010E9476058985823040F0A8
:100820008989823028F0C701B8010E94EE0501C015
:100830008FEF6896E6E00C941D1CA8E1B0E0E3E2BF
:10084000F4E00C94011C69837A838B839C832D8351
:100850003E834F83588789E0E82EF12CEC0EFD1E75
:10086000CE010196B7010E9476058E010F5E1F4FE3
:10087000CE010596B8010E9476058985823040F048
:100880008989823028F0C701B8010E94EE0501C0B5
:1008900081E06896E6E00C941D1CACE0B0E0E3E576
:1008A000F4E00C94051C69837A838B839C83CE01CE
:1008B0000196BE016B5F7F4F0E9476058D8182306D
:1008C00061F1823050F1843021F48E81882351F11E
:1008D0002EC02F81388537FD20C06E812F31310524
:1008E0001CF06623F9F023C08EE190E0821B930B8D
:1008F00029853A854B855C8504C056954795379583
:1009000027958A95D2F76623B1F05095409530959A
:1009100021953F4F4F4F5F4F0EC020E030E040E049
:1009200050E009C02FEF3FEF4FEF5FE704C020E03A
:1009300030E040E050E8B901CA012C96E2E00C94A6
:10094000211CDF92EF92FF920F931F93FC01E48032
:10095000F58006811781D1808081823048F480E063
:1009600090E0A0E1B0E0E82AF92A0A2B1B2BA5C0F1
:10097000843009F49FC0823021F4EE24FF248701E3
:1009800005C0E114F1040105110519F4E0E0F0E0FF
:1009900096C0628173819FEF623879070CF05BC06B
:1009A00022E83FEF261B370B2A3131052CF020E0DF
:1009B00030E040E050E02AC0B801A701022E04C098
:1009C00076956795579547950A94D2F781E090E020
:1009D000A0E0B0E004C0880F991FAA1FBB1F2A9592
:1009E000D2F70197A109B1098E219F21A023B1233C
:1009F0000097A105B10521F081E090E0A0E0B0E012
:100A00009A01AB01282B392B4A2B5B2BDA01C90148
:100A10008F779070A070B07080349105A105B105FA
:100A200039F427FF09C0205C3F4F4F4F5F4F04C090
:100A3000215C3F4F4F4F5F4FE0E0F0E02030A0E0FF
:100A40003A07A0E04A07A0E45A0710F0E1E0F0E01E
:100A500079018A0127C06038710564F5FB01E1580E
:100A6000FF4FD801C7018F779070A070B0708034AD
:100A70009105A105B10539F4E7FE0DC080E490E0D1
:100A8000A0E0B0E004C08FE390E0A0E0B0E0E80EAA
:100A9000F91E0A1F1B1F17FF05C016950795F7942F
:100AA000E794319687E016950795F794E7948A9531
:100AB000D1F705C0EE24FF248701EFEFF0E06E2FA1
:100AC000679566276795902F9F77D794DD24D794F5
:100AD0008E2F8695492F462B582F5D29B701CA01C5
:100AE0001F910F91FF90EF90DF900895FC01DB01C3
:100AF000408151812281622F6F7770E0221F22276F
:100B0000221F9381892F880F822B282F30E0991F75
:100B10009927991F11969C93119721153105A9F5D5
:100B2000411551056105710511F482E037C082E875
:100B30009FEF13969C938E9312979A01AB0167E0F7
:100B4000220F331F441F551F6A95D1F783E08C9302
:100B50000DC0220F331F441F551F12968D919C917B
:100B60001397019713969C938E931297203080E0F1
:100B7000380780E0480780E4580758F314962D930F
:100B80003D934D935C93179708952F3F310579F46A
:100B9000411551056105710519F484E08C930895A0
:100BA00064FF03C081E08C9312C01C9210C02F57C9
:100BB000304013963C932E93129783E08C9387E0FA
:100BC000440F551F661F771F8A95D1F770641496DE
:100BD0004D935D936D937C93179708951F93DC015C
:100BE000FB019C91923008F447C08081823008F468
:100BF00043C0943051F411961C91843099F5818151
:100C0000682F70E0611B71093FC0843021F0923081
:100C100031F48230B9F18181882389F12DC0119698
:100C20001C9111978230F1F081811817D9F4129636
:100C30002D913C911397828193818217930794F0B1
:100C400028173907BCF014968D919D910D90BC9199
:100C5000A02D2481358146815781281739074A07FD
:100C60005B0718F4112341F00AC082179307A40709
:100C7000B50740F4112319F061E070E005C06FEF93
:100C80007FEF02C060E070E0CB011F910895DF9319
:100C9000CF9300D000D000D0CDB7DEB78B836C836C
:100CA0008B818695869586958A838B8187708983CB
:100CB0008A81282F30E03E832D838D819E81813073
:100CC000910509F443C02D813E81223031052CF479
:100CD0008D819E81009771F0BCC02D813E812230B4
:100CE000310509F45FC08D819E818330910509F43F
:100CF00085C0AFC08C818130A1F4AAE3B0E0EAE303
:100D0000F0E08081482F8981282F30E081E090E059
:100D1000022E02C0880F991F0A94E2F7842B8C934D
:100D200098C0AAE3B0E0EAE3F0E08081482F89812F
:100D3000282F30E081E090E0022E02C0880F991F3A
:100D40000A94E2F7809584238C9383C08C81813050
:100D5000A1F4A7E3B0E0E7E3F0E08081482F8981C8
:100D6000282F30E081E090E0022E02C0880F991F0A
:100D70000A94E2F7842B8C936CC0A7E3B0E0E7E31E
:100D8000F0E08081482F8981282F30E081E090E0D9
:100D9000022E02C0880F991F0A94E2F780958423DF
:100DA0008C9357C08C818130A1F4A4E3B0E0E4E3DC
:100DB000F0E08081482F8981282F30E081E090E0A9
:100DC000022E02C0880F991F0A94E2F7842B8C939D
:100DD00040C0A4E3B0E0E4E3F0E08081482F8981E3
:100DE000282F30E081E090E0022E02C0880F991F8A
:100DF0000A94E2F7809584238C932BC08C818130F8
:100E0000A1F4A1E3B0E0E1E3F0E08081482F898123
:100E1000282F30E081E090E0022E02C0880F991F59
:100E20000A94E2F7842B8C9314C0A1E3B0E0E1E3D1
:100E3000F0E08081482F8981282F30E081E090E028
:100E4000022E02C0880F991F0A94E2F7809584232E
:100E50008C9326960FB6F894DEBF0FBECDBFCF9110
:100E6000DF910895DF93CF9300D000D000D0CDB7AD
:100E7000DEB78B836C838B818695869586958A8376
:100E80008B81877089838A81282F30E03E832D8370
:100E90008D819E818130910509F443C02D813E8171
:100EA000223031052CF48D819E81009771F0BCC0F9
:100EB0002D813E812230310509F45FC08D819E81F4
:100EC0008330910509F485C0AFC08C818130A1F4D5
:100ED000ABE3B0E0EBE3F0E08081482F8981282F7D
:100EE00030E081E090E0022E02C0880F991F0A9442
:100EF000E2F7842B8C9398C0ABE3B0E0EBE3F0E037
:100F00008081482F8981282F30E081E090E0022EF7
:100F100002C0880F991F0A94E2F7809584238C936E
:100F200083C08C818130A1F4A8E3B0E0E8E3F0E075
:100F30008081482F8981282F30E081E090E0022EC7
:100F400002C0880F991F0A94E2F7842B8C936CC01F
:100F5000A8E3B0E0E8E3F0E08081482F8981282F02
:100F600030E081E090E0022E02C0880F991F0A94C1
:100F7000E2F7809584238C9357C08C818130A1F453
:100F8000A5E3B0E0E5E3F0E08081482F8981282FD8
:100F900030E081E090E0022E02C0880F991F0A9491
:100FA000E2F7842B8C9340C0A5E3B0E0E5E3F0E0EA
:100FB0008081482F8981282F30E081E090E0022E47
:100FC00002C0880F991F0A94E2F7809584238C93BE
:100FD0002BC08C818130A1F4A2E3B0E0E2E3F0E029
:100FE0008081482F8981282F30E081E090E0022E17
:100FF00002C0880F991F0A94E2F7842B8C9314C0C7
:10100000A2E3B0E0E2E3F0E08081482F8981282F5D
:1010100030E081E090E0022E02C0880F991F0A9410
:10102000E2F7809584238C9326960FB6F894DEBF62
:101030000FBECDBFCF91DF910895DF93CF93CDB792
:10104000DEB789E061E00E9447068AE061E00E9425
:1010500047068BE061E00E9447068CE061E00E9459
:101060004706CF91DF9108950F931F93DF93CF939E
:10107000CDB7DEB7C758D1400FB6F894DEBF0FBE6C
:10108000CDBFFE01EE57FE4F8083FE01ED57FE4FB0
:101090006083FE01EE57FE4F80818C3411F00C947A
:1010A0006812FE01ED57FE4F8081282F30E0CA57AD
:1010B000DE4F39832883C658D140CA57DE4F888116
:1010C0009981C658D1408A35910561F0CA57DE4FE3
:1010D000E881F981C658D140E43BF10509F4FDC42B
:1010E0000C94621BFE01EF57FE4F1082EDC489E0A5
:1010F00060E00E9432078AE060E00E9432078BE0E5
:1011000060E00E9432078CE061E00E943207FE013D
:10111000E358FE4F80E090E0AAE7B4E48083918337
:10112000A283B3838E0107581E4FFE01E358FE4F82
:1011300060817181828193812BEA3AEA4AE250E42C
:101140000E941702DC01CB01F80180839183A28306
:10115000B383FE01E758FE4F6081718182819381E4
:1011600020E030E040E85FE30E941D04882334F46F
:10117000FE01E858FE4F81E08083E0C0FE01E758A1
:10118000FE4F608171818281938120E030E04FE7E2
:1011900053E40E94BD0318160CF0C0C0FE01E358D2
:1011A000FE4F608171818281938120E030E04AE7C7
:1011B00054E40E941103DC01CB01FE01EC58FE4F08
:1011C00080839183A283B3838E0100591E4FFE0159
:1011D000EC58FE4F608171818281938120E030E084
:1011E0004AEF54E40E941702DC01CB01F80180832E
:1011F0009183A283B383FE01E059FE4F6081718128
:101200008281938120E030E040E85FE30E941D048A
:10121000882344F4FE01E259FE4F81E090E091837F
:10122000808364C0FE01E059FE4F6081718182813C
:10123000938120E03FEF4FE757E40E94BD0318166B
:101240000CF043C0FE01EC58FE4F60817181828139
:10125000938120E030E040E251E40E941702DC017B
:10126000CB018E0102591E4FBC01CD010E944100ED
:10127000DC01CB01F801918380831FC0FE01E4599A
:10128000FE4F88EC90E091838083FE01E459FE4F8D
:10129000808191810197F1F7FE01E459FE4F91831E
:1012A0008083DE01A259BE4FFE01E259FE4F8081CC
:1012B0009181019711969C938E93FE01E259FE4F06
:1012C000808191810097D1F64BC08E0102591E4F4B
:1012D000FE01E059FE4F60817181828193810E94FD
:1012E0004100DC01CB01F80191838083DE01A65926
:1012F000BE4FFE01E259FE4F8081918111969C9371
:101300008E93FE01E659FE4F808191810197F1F79E
:10131000FE01E659FE4F9183808322C08E0108585A
:101320001E4FFE01E758FE4F6081718182819381DB
:101330000E944100DC01CB01F8018083DE01A75946
:10134000BE4FFE01E858FE4F80818C93FE01E759A5
:10135000FE4F80818A95F1F7FE01E759FE4F8083A9
:1013600089E060E00E9432078AE060E00E94320774
:101370008BE061E00E9432078CE060E00E9432075F
:10138000FE01EB59FE4F80E090E0AAE7B4E48083D1
:101390009183A283B3838E010F591E4FFE01EB5937
:1013A000FE4F60817181828193812BEA3AEA4AE2A1
:1013B00050E40E941702DC01CB01F8018083918385
:1013C000A283B383FE01EF59FE4F60817181828158
:1013D000938120E030E040E85FE30E941D04882311
:1013E00034F4FE01E05AFE4F81E08083E0C0FE014C
:1013F000EF59FE4F608171818281938120E030E05E
:101400004FE753E40E94BD0318160CF0C0C0FE0164
:10141000EB59FE4F608171818281938120E030E041
:101420004AE754E40E941103DC01CB01FE01E45AB7
:10143000FE4F80839183A283B3838E01085A1E4F8F
:10144000FE01E45AFE4F608171818281938120E028
:1014500030E04AEF54E40E941702DC01CB01F801AE
:1014600080839183A283B383FE01E85AFE4F60819B
:1014700071818281938120E030E040E85FE30E9447
:101480001D04882344F4FE01EA5AFE4F81E090E0F7
:101490009183808364C0FE01E85AFE4F60817181B0
:1014A0008281938120E03FEF4FE757E40E94BD0324
:1014B00018160CF043C0FE01E45AFE4F60817181A2
:1014C0008281938120E030E040E251E40E941702E3
:1014D000DC01CB018E010A5A1E4FBC01CD010E94D6
:1014E0004100DC01CB01F801918380831FC0FE0124
:1014F000EC5AFE4F88EC90E091838083FE01EC5A19
:10150000FE4F808191810197F1F7FE01EC5AFE4F69
:1015100091838083DE01AA5ABE4FFE01EA5AFE4F34
:1015200080819181019711969C938E93FE01EA5AD6
:10153000FE4F808191810097D1F64BC08E010A5AEF
:101540001E4FFE01E85AFE4F6081718182819381B6
:101550000E944100DC01CB01F80191838083DE0110
:10156000AE5ABE4FFE01EA5AFE4F8081918111961C
:101570009C938E93FE01EE5AFE4F808191810197DC
:10158000F1F7FE01EE5AFE4F9183808322C08E0157
:10159000005A1E4FFE01EF59FE4F6081718182811A
:1015A00093810E944100DC01CB01F8018083DE01C0
:1015B000AF5ABE4FFE01E05AFE4F80818C93FE0170
:1015C000EF5AFE4F80818A95F1F7FE01EF5AFE4FE8
:1015D000808389E060E00E9432078AE061E00E9437
:1015E00032078BE060E00E9432078CE060E00E94EE
:1015F0003207FE01E35BFE4F80E090E0AAE7B4E42F
:1016000080839183A283B3838E01075B1E4FFE010B
:10161000E35BFE4F60817181828193812BEA3AEA1C
:101620004AE250E40E941702DC01CB01F8018083FA
:101630009183A283B383FE01E75BFE4F60817181DA
:101640008281938120E030E040E85FE30E941D0446
:10165000882334F4FE01E85BFE4F81E08083E0C024
:10166000FE01E75BFE4F608171818281938120E002
:1016700030E04FE753E40E94BD0318160CF0C0C0E1
:10168000FE01E35BFE4F608171818281938120E0E6
:1016900030E04AE754E40E941103DC01CB01FE0173
:1016A000EC5BFE4F80839183A283B3838E01005C49
:1016B0001E4FFE01EC5BFE4F608171818281938140
:1016C00020E030E04AEF54E40E941702DC01CB0135
:1016D000F80180839183A283B383FE01E05CFE4F17
:1016E000608171818281938120E030E040E85FE396
:1016F0000E941D04882344F4FE01E25CFE4F81E059
:1017000090E09183808364C0FE01E05CFE4F6081C5
:1017100071818281938120E03FEF4FE757E40E947F
:10172000BD0318160CF043C0FE01EC5BFE4F608158
:1017300071818281938120E030E040E251E40E9497
:101740001702DC01CB018E01025C1E4FBC01CD01F2
:101750000E944100DC01CB01F801918380831FC00E
:10176000FE01E45CFE4F88EC90E091838083FE01F3
:10177000E45CFE4F808191810197F1F7FE01E45C0A
:10178000FE4F91838083DE01A25CBE4FFE01E25CCE
:10179000FE4F80819181019711969C938E93FE015B
:1017A000E25CFE4F808191810097D1F64BC08E01A3
:1017B000025C1E4FFE01E05CFE4F60817181828100
:1017C00093810E944100DC01CB01F8019183808369
:1017D000DE01A65CBE4FFE01E25CFE4F808191817E
:1017E00011969C938E93FE01E65CFE4F8081918161
:1017F0000197F1F7FE01E65CFE4F9183808322C0E2
:101800008E01085B1E4FFE01E75BFE4F6081718118
:10181000828193810E944100DC01CB01F801808329
:10182000DE01A75CBE4FFE01E85BFE4F80818C931A
:10183000FE01E75CFE4F80818A95F1F7FE01E75CCF
:10184000FE4F808389E061E00E9432078AE060E019
:101850000E9432078BE060E00E9432078CE060E07B
:101860000E943207FE01EB5CFE4F80E090E0AAE7A9
:10187000B4E480839183A283B3838E010F5C1E4FF7
:10188000FE01EB5CFE4F60817181828193812BEAC6
:101890003AEA4AE250E40E941702DC01CB01F80167
:1018A00080839183A283B383FE01EF5CFE4F60814E
:1018B00071818281938120E030E040E85FE30E9403
:1018C0001D04882334F4FE01E05DFE4F81E0808337
:1018D000E0C0FE01EF5CFE4F6081718182819381E7
:1018E00020E030E04FE753E40E94BD0318160CF0EF
:1018F000C0C0FE01EB5CFE4F6081718182819381EB
:1019000020E030E04AE754E40E941103DC01CB01FF
:10191000FE01E45DFE4F80839183A283B3838E0139
:10192000085D1E4FFE01E45DFE4F60817181828182
:10193000938120E030E04AEF54E40E941702DC017A
:10194000CB01F80180839183A283B383FE01E85D1C
:10195000FE4F608171818281938120E030E040E818
:101960005FE30E941D04882344F4FE01EA5DFE4FFC
:1019700081E090E09183808364C0FE01E85DFE4FCA
:10198000608171818281938120E03FEF4FE757E4CE
:101990000E94BD0318160CF043C0FE01E45DFE4F2B
:1019A000608171818281938120E030E040E251E4E6
:1019B0000E941702DC01CB018E010A5D1E4FBC01A3
:1019C000CD010E944100DC01CB01F80191838083AD
:1019D0001FC0FE01EC5DFE4F88EC90E09183808398
:1019E000FE01EC5DFE4F808191810197F1F7FE01D0
:1019F000EC5DFE4F91838083DE01AA5DBE4FFE0148
:101A0000EA5DFE4F80819181019711969C938E93A0
:101A1000FE01EA5DFE4F808191810097D1F64BC0B7
:101A20008E010A5D1E4FFE01E85DFE4F60817181EF
:101A3000828193810E944100DC01CB01F8019183F6
:101A40008083DE01AE5DBE4FFE01EA5DFE4F808108
:101A5000918111969C938E93FE01EE5DFE4F8081E5
:101A600091810197F1F7FE01EE5DFE4F9183808336
:101A700022C08E01005D1E4FFE01EF5CFE4F6081B3
:101A80007181828193810E944100DC01CB01F801C8
:101A90008083DE01AF5DBE4FFE01E05DFE4F8081C1
:101AA0008C93FE01EF5DFE4F80818A95F1F7FE0178
:101AB000EF5DFE4F8083DE01AF57BE4FFE01EF5753
:101AC000FE4F80818F5F8C93FE01EF57FE4F808128
:101AD000873808F40CCB0C94621BFE01EF57FE4FC5
:101AE0001082EDC489E060E00E9432078AE060E085
:101AF0000E9432078BE060E00E9432078CE061E0D8
:101B00000E943207FE01E35EFE4F80E090E0AAE70C
:101B1000B4E480839183A283B3838E01075E1E4F5A
:101B2000FE01E35EFE4F60817181828193812BEA29
:101B30003AEA4AE250E40E941702DC01CB01F801C4
:101B400080839183A283B383FE01E75EFE4F6081B1
:101B500071818281938120E030E040E85FE30E9460
:101B60001D04882334F4FE01E85EFE4F81E080838B
:101B7000E0C0FE01E75EFE4F60817181828193814A
:101B800020E030E04FE753E40E94BD0318160CF04C
:101B9000C0C0FE01E35EFE4F60817181828193814E
:101BA00020E030E04AE754E40E941103DC01CB015D
:101BB000FE01EC5EFE4F80839183A283B3838E018E
:101BC000005F1E4FFE01EC5EFE4F608171818281DD
:101BD000938120E030E04AEF54E40E941702DC01D8
:101BE000CB01F80180839183A283B383FE01E05F80
:101BF000FE4F608171818281938120E030E040E876
:101C00005FE30E941D04882344F4FE01E25FFE4F5F
:101C100081E090E09183808364C0FE01E05FFE4F2D
:101C2000608171818281938120E03FEF4FE757E42B
:101C30000E94BD0318160CF043C0FE01EC5EFE4F7F
:101C4000608171818281938120E030E040E251E443
:101C50000E941702DC01CB018E01025F1E4FBC0106
:101C6000CD010E944100DC01CB01F801918380830A
:101C70001FC0FE01E45FFE4F88EC90E091838083FB
:101C8000FE01E45FFE4F808191810197F1F7FE0133
:101C9000E45FFE4F91838083DE01A25FBE4FFE01B1
:101CA000E25FFE4F80819181019711969C938E9304
:101CB000FE01E25FFE4F808191810097D1F64BC01B
:101CC0008E01025F1E4FFE01E05FFE4F6081718159
:101CD000828193810E944100DC01CB01F801918354
:101CE0008083DE01A65FBE4FFE01E25FFE4F808172
:101CF000918111969C938E93FE01E65FFE4F808149
:101D000091810197F1F7FE01E65FFE4F9183808399
:101D100022C08E01085E1E4FFE01E75EFE4F60810D
:101D20007181828193810E944100DC01CB01F80125
:101D30008083DE01A75FBE4FFE01E85EFE4F80811B
:101D40008C93FE01E75FFE4F80818A95F1F7FE01DB
:101D5000E75FFE4F808389E060E00E9432078AE0FF
:101D600060E00E9432078BE061E00E9432078CE065
:101D700060E00E943207FE01EB5FFE4F80E090E0E2
:101D8000AAE7B4E480839183A283B3838E010F5FBB
:101D90001E4FFE01EB5FFE4F608171818281938156
:101DA0002BEA3AEA4AE250E40E941702DC01CB0136
:101DB000F80180839183A283B383FE01EF5FFE4F1E
:101DC000608171818281938120E030E040E85FE3AF
:101DD0000E941D04882334F4FE01E050FF4F81E08F
:101DE0008083E0C0FE01EF5FFE4F608171818281E0
:101DF000938120E030E04FE753E40E94BD031816C2
:101E00000CF0C0C0FE01EB5FFE4F608171818281EA
:101E1000938120E030E04AE754E40E941103DC01A2
:101E2000CB01FE01E450FF4F80839183A283B383F3
:101E30008E0108501F4FFE01E450FF4F60817181F9
:101E40008281938120E030E04AEF54E40E9417023F
:101E5000DC01CB01F80180839183A283B383FE016F
:101E6000E850FF4F608171818281938120E030E0F2
:101E700040E85FE30E941D04882344F4FE01EA5019
:101E8000FF4F81E090E09183808364C0FE01E850C1
:101E9000FF4F608171818281938120E03FEF4FE7A6
:101EA00057E40E94BD0318160CF043C0FE01E45035
:101EB000FF4F608171818281938120E030E040E2B8
:101EC00051E40E941702DC01CB018E010A501F4F22
:101ED000BC01CD010E944100DC01CB01F8019183DE
:101EE00080831FC0FE01EC50FF4F88EC90E091838F
:101EF0008083FE01EC50FF4F808191810197F1F7C3
:101F0000FE01EC50FF4F91838083DE01AA50BF4F4A
:101F1000FE01EA50FF4F80819181019711969C93B9
:101F20008E93FE01EA50FF4F808191810097D1F698
:101F30004BC08E010A501F4FFE01E850FF4F6081D9
:101F40007181828193810E944100DC01CB01F80103
:101F500091838083DE01AE50BF4FFE01EA50FF4FF8
:101F60008081918111969C938E93FE01EE50FF4FDC
:101F7000808191810197F1F7FE01EE50FF4F91832F
:101F8000808322C08E0100501F4FFE01EF5FFE4F85
:101F900060817181828193810E944100DC01CB01CB
:101FA000F8018083DE01AF50BF4FFE01E050FF4FCC
:101FB00080818C93FE01EF50FF4F80818A95F1F76D
:101FC000FE01EF50FF4F808389E060E00E943207FE
:101FD0008AE061E00E9432078BE060E00E943207F5
:101FE0008CE060E00E943207FE01E351FF4F80E089
:101FF00090E0AAE7B4E480839183A283B3838E0147
:1020000007511F4FFE01E351FF4F608171818281B3
:1020100093812BEA3AEA4AE250E40E941702DC017B
:10202000CB01F80180839183A283B383FE01E75142
:10203000FF4F608171818281938120E030E040E830
:102040005FE30E941D04882334F4FE01E851FF4F32
:1020500081E08083E0C0FE01E751FF4F6081718124
:102060008281938120E030E04FE753E40E94BD037A
:1020700018160CF0C0C0FE01E351FF4F6081718162
:102080008281938120E030E04AE754E40E9411030A
:10209000DC01CB01FE01EC51FF4F80839183A283D1
:1020A000B3838E0100521F4FFE01EC51FF4F608140
:1020B00071818281938120E030E04AEF54E40E94F4
:1020C0001702DC01CB01F80180839183A283B383E3
:1020D000FE01E052FF4F608171818281938120E097
:1020E00030E040E85FE30E941D04882344F4FE01D1
:1020F000E252FF4F81E090E09183808364C0FE0153
:10210000E052FF4F608171818281938120E03FEF37
:102110004FE757E40E94BD0318160CF043C0FE01C0
:10212000EC51FF4F608171818281938120E030E02A
:1021300040E251E40E941702DC01CB018E01025201
:102140001F4FBC01CD010E944100DC01CB01F80111
:10215000918380831FC0FE01E452FF4F88EC90E022
:1021600091838083FE01E452FF4F8081918101972A
:10217000F1F7FE01E452FF4F91838083DE01A2520A
:10218000BF4FFE01E252FF4F80819181019711966E
:102190009C938E93FE01E252FF4F808191810097C4
:1021A000D1F64BC08E0102521F4FFE01E052FF4F8D
:1021B00060817181828193810E944100DC01CB01A9
:1021C000F80191838083DE01A652BF4FFE01E252E7
:1021D000FF4F8081918111969C938E93FE01E65270
:1021E000FF4F808191810197F1F7FE01E652FF4F89
:1021F0009183808322C08E0108511F4FFE01E75159
:10220000FF4F60817181828193810E944100DC01D6
:10221000CB01F8018083DE01A752BF4FFE01E851D8
:10222000FF4F80818C93FE01E752FF4F80818A959A
:10223000F1F7FE01E752FF4F808389E061E00E94E1
:1022400032078AE060E00E9432078BE060E00E9483
:1022500032078CE060E00E943207FE01EB52FF4F34
:1022600080E090E0AAE7B4E480839183A283B38303
:102270008E010F521F4FFE01EB52FF4F60817181A3
:10228000828193812BEA3AEA4AE250E40E941702E3
:10229000DC01CB01F80180839183A283B383FE012B
:1022A000EF52FF4F608171818281938120E030E0A5
:1022B00040E85FE30E941D04882334F4FE01E053EC
:1022C000FF4F81E08083E0C0FE01EF52FF4F60814D
:1022D00071818281938120E030E04FE753E40E94D6
:1022E000BD0318160CF0C0C0FE01EB52FF4F608119
:1022F00071818281938120E030E04AE754E40E94BA
:102300001103DC01CB01FE01E453FF4F8083918375
:10231000A283B3838E0108531F4FFE01E453FF4F86
:10232000608171818281938120E030E04AEF54E442
:102330000E941702DC01CB01F80180839183A28304
:10234000B383FE01E853FF4F6081718182819381E5
:1023500020E030E040E85FE30E941D04882344F45D
:10236000FE01EA53FF4F81E090E09183808364C0D7
:10237000FE01E853FF4F608171818281938120E0EB
:102380003FEF4FE757E40E94BD0318160CF043C01F
:10239000FE01E453FF4F608171818281938120E0CF
:1023A00030E040E251E40E941702DC01CB018E01D3
:1023B0000A531F4FBC01CD010E944100DC01CB013B
:1023C000F801918380831FC0FE01EC53FF4F88EC1E
:1023D00090E091838083FE01EC53FF4F80819181D7
:1023E0000197F1F7FE01EC53FF4F91838083DE01EB
:1023F000AA53BF4FFE01EA53FF4F8081918101979D
:1024000011969C938E93FE01EA53FF4F8081918138
:102410000097D1F64BC08E010A531F4FFE01E853BF
:10242000FF4F60817181828193810E944100DC01B4
:10243000CB01F80191838083DE01AE53BF4FFE01D3
:10244000EA53FF4F8081918111969C938E93FE01F8
:10245000EE53FF4F808191810197F1F7FE01EE531A
:10246000FF4F9183808322C08E0100531F4FFE01D6
:10247000EF52FF4F60817181828193810E94410000
:10248000DC01CB01F8018083DE01AF53BF4FFE01B9
:10249000E053FF4F80818C93FE01EF53FF4F80810B
:1024A0008A95F1F7FE01EF53FF4F8083DE01AF57AE
:1024B000BE4FFE01EF57FE4F80818F5F8C93FE0170
:1024C000EF57FE4F80818A3F08F40CCB0C94621BBF
:1024D000FE01EE57FE4F8081823511F00C94621B95
:1024E000FE01ED57FE4F8081282F30E0CC57DE4FA4
:1024F00039832883C458D140CC57DE4F88819981D5
:10250000C458D1408A35910561F0CC57DE4FE8813F
:10251000F981C458D140E43BF10509F4FCC40C94A2
:10252000621BFE01EF57FE4F1082EDC489E061E0AF
:102530000E9432078AE060E00E9432078BE060E090
:102540000E9432078CE060E00E943207FE01E354F3
:10255000FF4F80E090E8A4E5B4E480839183A283F8
:10256000B3838E0107541F4FFE01E354FF4F608178
:102570007181828193812BEA3AEA4AE250E40E9417
:102580001702DC01CB01F80180839183A283B3831E
:10259000FE01E754FF4F608171818281938120E0C9
:1025A00030E040E85FE30E941D04882334F4FE011C
:1025B000E854FF4F81E08083E0C0FE01E754FF4F05
:1025C000608171818281938120E030E04FE753E4A4
:1025D0000E94BD0318160CF0C0C0FE01E354FF4F6B
:1025E000608171818281938120E030E04AE754E488
:1025F0000E941103DC01CB01FE01EC54FF4F8083EC
:102600009183A283B3838E0100551F4FFE01EC54CA
:10261000FF4F608171818281938120E030E04AEF39
:1026200054E40E941702DC01CB01F80180839183FE
:10263000A283B383FE01E055FF4F608171818281E7
:10264000938120E030E040E85FE30E941D0488238E
:1026500044F4FE01E255FF4F81E090E091838083D6
:1026600064C0FE01E055FF4F6081718182819381DA
:1026700020E03FEF4FE757E40E94BD0318160CF02F
:1026800043C0FE01EC54FF4F6081718182819381D0
:1026900020E030E040E251E40E941702DC01CB016F
:1026A0008E0102551F4FBC01CD010E944100DC018B
:1026B000CB01F801918380831FC0FE01E455FF4FD9
:1026C00088EC90E091838083FE01E455FF4F808188
:1026D00091810197F1F7FE01E455FF4F91838083CB
:1026E000DE01A255BF4FFE01E255FF4F808191816F
:1026F000019711969C938E93FE01E255FF4F8081C6
:1027000091810097D1F64BC08E0102551F4FFE01FB
:10271000E055FF4F60817181828193810E94410069
:10272000DC01CB01F80191838083DE01A655BF4F08
:10273000FE01E255FF4F8081918111969C938E930B
:10274000FE01E655FF4F808191810197F1F7FE016F
:10275000E655FF4F9183808322C08E0108541F4F9E
:10276000FE01E754FF4F60817181828193810E9455
:102770004100DC01CB01F8018083DE01A755BF4F8A
:10278000FE01E854FF4F80818C93FE01E755FF4F17
:1027900080818A95F1F7FE01E755FF4F808389E03C
:1027A00060E00E9432078AE061E00E9432078BE01D
:1027B00060E00E9432078CE060E00E943207FE0178
:1027C000EB55FF4F80E090E8A4E5B4E4808391836B
:1027D000A283B3838E010F551F4FFE01EB55FF4FB0
:1027E00060817181828193812BEA3AEA4AE250E466
:1027F0000E941702DC01CB01F80180839183A28340
:10280000B383FE01EF55FF4F608171818281938117
:1028100020E030E040E85FE30E941D04882334F4A8
:10282000FE01E056FF4F81E08083E0C0FE01EF55DE
:10283000FF4F608171818281938120E030E04FE71A
:1028400053E40E94BD0318160CF0C0C0FE01EB5506
:10285000FF4F608171818281938120E030E04AE7FF
:1028600054E40E941103DC01CB01FE01E456FF4F4A
:1028700080839183A283B3838E0108561F4FFE018C
:10288000E456FF4F608171818281938120E030E0C6
:102890004AEF54E40E941702DC01CB01F801808367
:1028A0009183A283B383FE01E856FF4F608171815B
:1028B0008281938120E030E040E85FE30E941D04C4
:1028C000882344F4FE01EA56FF4F81E090E09183B3
:1028D000808364C0FE01E856FF4F60817181828170
:1028E000938120E03FEF4FE757E40E94BD031816A5
:1028F0000CF043C0FE01E456FF4F6081718182817C
:10290000938120E030E040E251E40E941702DC01B4
:10291000CB018E010A561F4FBC01CD010E94410020
:10292000DC01CB01F801918380831FC0FE01EC56CE
:10293000FF4F88EC90E091838083FE01EC56FF4FBF
:10294000808191810197F1F7FE01EC56FF4F918351
:102950008083DE01AA56BF4FFE01EA56FF4F8081F9
:102960009181019711969C938E93FE01EA56FF4F39
:10297000808191810097D1F64BC08E010A561F4F7E
:10298000FE01E856FF4F60817181828193810E9430
:102990004100DC01CB01F80191838083DE01AE565A
:1029A000BF4FFE01EA56FF4F8081918111969C93A3
:1029B0008E93FE01EE56FF4F808191810197F1F7D2
:1029C000FE01EE56FF4F9183808322C08E01005698
:1029D0001F4FFE01EF55FF4F60817181828193810E
:1029E0000E944100DC01CB01F8018083DE01AF567B
:1029F000BF4FFE01E056FF4F80818C93FE01EF56E2
:102A0000FF4F80818A95F1F7FE01EF56FF4F8083DB
:102A100089E060E00E9432078AE060E00E943207AD
:102A20008BE061E00E9432078CE060E00E94320798
:102A3000FE01E357FF4F80E090E8A4E5B4E4808313
:102A40009183A283B3838E0107571F4FFE01E35783
:102A5000FF4F60817181828193812BEA3AEA4AE2D9
:102A600050E40E941702DC01CB01F80180839183BE
:102A7000A283B383FE01E757FF4F6081718182819A
:102A8000938120E030E040E85FE30E941D0488234A
:102A900034F4FE01E857FF4F81E08083E0C0FE017F
:102AA000E757FF4F608171818281938120E030E0A0
:102AB0004FE753E40E94BD0318160CF0C0C0FE019E
:102AC000E357FF4F608171818281938120E030E084
:102AD0004AE754E40E941103DC01CB01FE01EC57EC
:102AE000FF4F80839183A283B3838E0100581F4FD1
:102AF000FE01EC57FF4F608171818281938120E05C
:102B000030E04AEF54E40E941702DC01CB01F801E7
:102B100080839183A283B383FE01E058FF4F6081DD
:102B200071818281938120E030E040E85FE30E9480
:102B30001D04882344F4FE01E258FF4F81E090E039
:102B40009183808364C0FE01E058FF4F60817181F2
:102B50008281938120E03FEF4FE757E40E94BD035D
:102B600018160CF043C0FE01EC57FF4F60817181D5
:102B70008281938120E030E040E251E40E9417021C
:102B8000DC01CB018E0102581F4FBC01CD010E9418
:102B90004100DC01CB01F801918380831FC0FE015D
:102BA000E458FF4F88EC90E091838083FE01E45865
:102BB000FF4F808191810197F1F7FE01E458FF4FAB
:102BC00091838083DE01A258BF4FFE01E258FF4F80
:102BD00080819181019711969C938E93FE01E2581A
:102BE000FF4F808191810097D1F64BC08E01025832
:102BF0001F4FFE01E058FF4F6081718182819381F8
:102C00000E944100DC01CB01F80191838083DE0149
:102C1000A658BF4FFE01E258FF4F80819181119667
:102C20009C938E93FE01E658FF4F8081918101971E
:102C3000F1F7FE01E658FF4F9183808322C08E0199
:102C400008571F4FFE01E757FF4F60817181828156
:102C500093810E944100DC01CB01F8018083DE01F9
:102C6000A758BF4FFE01E857FF4F80818C93FE01AC
:102C7000E758FF4F80818A95F1F7FE01E758FF4F33
:102C8000808389E060E00E9432078AE060E00E9471
:102C900032078BE060E00E9432078CE061E00E9426
:102CA0003207FE01EB58FF4F80E090E8A4E5B4E462
:102CB00080839183A283B3838E010F581F4FFE013F
:102CC000EB58FF4F60817181828193812BEA3AEA50
:102CD0004AE250E40E941702DC01CB01F801808334
:102CE0009183A283B383FE01EF58FF4F608171810E
:102CF0008281938120E030E040E85FE30E941D0480
:102D0000882334F4FE01E059FF4F81E08083E0C066
:102D1000FE01EF58FF4F608171818281938120E035
:102D200030E04FE753E40E94BD0318160CF0C0C01A
:102D3000FE01EB58FF4F608171818281938120E019
:102D400030E04AE754E40E941103DC01CB01FE01AC
:102D5000E459FF4F80839183A283B3838E01085986
:102D60001F4FFE01E459FF4F608171818281938181
:102D700020E030E04AEF54E40E941702DC01CB016E
:102D8000F80180839183A283B383FE01E859FF4F4A
:102D9000608171818281938120E030E040E85FE3CF
:102DA0000E941D04882344F4FE01EA59FF4F81E08C
:102DB00090E09183808364C0FE01E859FF4F6081F9
:102DC00071818281938120E03FEF4FE757E40E94B9
:102DD000BD0318160CF043C0FE01E459FF4F60819B
:102DE00071818281938120E030E040E251E40E94D1
:102DF0001702DC01CB018E010A591F4FBC01CD0126
:102E00000E944100DC01CB01F801918380831FC047
:102E1000FE01EC59FF4F88EC90E091838083FE0126
:102E2000EC59FF4F808191810197F1F7FE01EC5938
:102E3000FF4F91838083DE01AA59BF4FFE01EA59FB
:102E4000FF4F80819181019711969C938E93FE0193
:102E5000EA59FF4F808191810097D1F64BC08E01D6
:102E60000A591F4FFE01E859FF4F6081718182812D
:102E700093810E944100DC01CB01F80191838083A2
:102E8000DE01AE59BF4FFE01EA59FF4F80819181AB
:102E900011969C938E93FE01EE59FF4F8081918194
:102EA0000197F1F7FE01EE59FF4F9183808322C015
:102EB0008E0100591F4FFE01EF58FF4F6081718155
:102EC000828193810E944100DC01CB01F801808363
:102ED000DE01AF59BF4FFE01E059FF4F80818C9357
:102EE000FE01EF59FF4F80818A95F1F7FE01EF59FE
:102EF000FF4F8083DE01AF57BE4FFE01EF57FE4FFD
:102F000080818F5F8C93FE01EF57FE4F8081873861
:102F100008F40CCBD7C3FE01EF57FE4F1082CBC392
:102F200089E061E00E9432078AE060E00E94320797
:102F30008BE060E00E9432078CE060E00E94320784
:102F4000FE01E35AFF4F80E090E8A4E5B4E48083FB
:102F50009183A283B3838E01075A1F4FFE01E35A68
:102F6000FF4F60817181828193812BEA3AEA4AE2C4
:102F700050E40E941702DC01CB01F80180839183A9
:102F8000A283B383FE01E75AFF4F60817181828182
:102F9000938120E030E040E85FE30E941D04882335
:102FA00034F4FE01E85AFF4F81E08083E0C0FE0167
:102FB000E75AFF4F608171818281938120E030E088
:102FC0004FE753E40E94BD0318160CF0C0C0FE0189
:102FD000E35AFF4F608171818281938120E030E06C
:102FE0004AE754E40E941103DC01CB01FE01EC5AD4
:102FF000FF4F80839183A283B3838E01005B1F4FB9
:10300000FE01EC5AFF4F608171818281938120E043
:1030100030E04AEF54E40E941702DC01CB01F801D2
:1030200080839183A283B383FE01E05BFF4F6081C5
:1030300071818281938120E030E040E85FE30E946B
:103040001D04882344F4FE01E25BFF4F81E090E021
:103050009183808364C0FE01E05BFF4F60817181DA
:103060008281938120E03FEF4FE757E40E94BD0348
:1030700018160CF043C0FE01EC5AFF4F60817181BD
:103080008281938120E030E040E251E40E94170207
:10309000DC01CB018E01025B1F4FBC01CD010E9400
:1030A0004100DC01CB01F801918380831FC0FE0148
:1030B000E45BFF4F88EC90E091838083FE01E45B4A
:1030C000FF4F808191810197F1F7FE01E45BFF4F93
:1030D00091838083DE01A25BBF4FFE01E25BFF4F65
:1030E00080819181019711969C938E93FE01E25B02
:1030F000FF4F808191810097D1F64BC08E01025B1A
:103100001F4FFE01E05BFF4F6081718182819381DF
:103110000E944100DC01CB01F80191838083DE0134
:10312000A65BBF4FFE01E25BFF4F8081918111964C
:103130009C938E93FE01E65BFF4F80819181019706
:10314000F1F7FE01E65BFF4F9183808322C08E0181
:10315000085A1F4FFE01E75AFF4F6081718182813B
:1031600093810E944100DC01CB01F8018083DE01E4
:10317000A75BBF4FFE01E85AFF4F80818C93FE0191
:10318000E75BFF4F80818A95F1F7FE01E75BFF4F18
:10319000808389E060E00E9432078AE061E00E945B
:1031A00032078BE060E00E9432078CE060E00E9412
:1031B0003207FE01EB5BFF4F80E090E8A4E5B4E44A
:1031C00080839183A283B3838E010F5B1F4FFE0127
:1031D000EB5BFF4F60817181828193812BEA3AEA38
:1031E0004AE250E40E941702DC01CB01F80180831F
:1031F0009183A283B383FE01EF5BFF4F60817181F6
:103200008281938120E030E040E85FE30E941D046A
:10321000882334F481E0FE01E05CFF4F80839DC091
:10322000FE01EF5BFF4F608171818281938120E01D
:1032300030E04FE753E40E94BD0318160CF07EC047
:10324000FE01EB5BFF4F608171818281938120E001
:1032500030E04AE754E40E941103DC01CB018CAF5B
:103260009DAFAEAFBFAF6CAD7DAD8EAD9FAD20E07D
:1032700030E04AEF54E40E941702DC01CB0188AF32
:1032800099AFAAAFBBAF68AD79AD8AAD9BAD20E079
:1032900030E040E85FE30E941D0488232CF481E0C5
:1032A00090E09FAB8EAB3FC068AD79AD8AAD9BAD72
:1032B00020E03FEF4FE757E40E94BD0318164CF59E
:1032C0006CAD7DAD8EAD9FAD20E030E040E251E4CD
:1032D0000E941702DC01CB01BC01CD010E9441001C
:1032E000DC01CB019FAB8EAB0FC088EC90E09DABB7
:1032F0008CAB8CA99DA90197F1F79DAB8CAB8EA9E6
:103300009FA901979FAB8EAB8EA99FA9009769F7E4
:103310002DC068AD79AD8AAD9BAD0E944100DC0146
:10332000CB019FAB8EAB8EA99FA99BAB8AAB8AA921
:103330009BA90197F1F79BAB8AAB18C0FE01EF5B2D
:10334000FF4F60817181828193810E944100DC0185
:10335000CB01FE01E05CFF4F8083FE01E05CFF4F8C
:10336000808189AB89A98A95F1F789AB89E060E012
:103370000E9432078AE060E00E9432078BE061E041
:103380000E9432078CE060E00E94320780E090E803
:10339000A4E5B4E48DA79EA7AFA7B8AB6DA57EA5A5
:1033A0008FA598A92BEA3AEA4AE250E40E94170254
:1033B000DC01CB0189A79AA7ABA7BCA769A57AA511
:1033C0008BA59CA520E030E040E85FE30E941D044F
:1033D00088231CF481E088A791C069A57AA58BA5F4
:1033E0009CA520E030E04FE753E40E94BD0318168F
:1033F0000CF07BC06DA57EA58FA598A920E030E0DC
:103400004AE754E40E941103DC01CB018CA39DA385
:10341000AEA3BFA36CA17DA18EA19FA120E030E04F
:103420004AEF54E40E941702DC01CB0188A399A360
:10343000AAA3BBA368A179A18AA19BA120E030E047
:1034400040E85FE30E941D0488232CF481E090E0B3
:103450009F8F8E8F3FC068A179A18AA19BA120E098
:103460003FEF4FE757E40E94BD0318164CF56CA1DF
:103470007DA18EA19FA120E030E040E251E40E94B6
:103480001702DC01CB01BC01CD010E944100DC012F
:10349000CB019F8F8E8F0FC088EC90E09D8F8C8F1B
:1034A0008C8D9D8D0197F1F79D8F8C8F8E8D9F8DCB
:1034B00001979F8F8E8F8E8D9F8D009769F724C007
:1034C00068A179A18AA19BA10E944100DC01CB01E6
:1034D0009F8F8E8F8E8D9F8D9B8F8A8F8A8D9B8DD8
:1034E0000197F1F79B8F8A8F0FC069A57AA58BA5ED
:1034F0009CA50E944100DC01CB0188A788A5898F8B
:10350000898D8A95F1F7898F89E060E00E94320702
:103510008AE060E00E9432078BE060E00E943207A0
:103520008CE061E00E94320780E090E8A4E5B4E41A
:103530008D8B9E8BAF8BB88F6D897E898F89988D8F
:103540002BEA3AEA4AE250E40E941702DC01CB017E
:10355000898B9A8BAB8BBC8B69897A898B899C8987
:1035600020E030E040E85FE30E941D0488231CF463
:1035700081E0888B91C069897A898B899C8920E058
:1035800030E04FE753E40E94BD0318160CF07BC0F7
:103590006D897E898F89988D20E030E04AE754E478
:1035A0000E941103DC01CB018C879D87AE87BF870A
:1035B0006C857D858E859F8520E030E04AEF54E460
:1035C0000E941702DC01CB0188879987AA87BB87F5
:1035D000688579858A859B8520E030E040E85FE357
:1035E0000E941D0488232CF481E090E09F838E8349
:1035F0003FC0688579858A859B8520E03FEF4FE74E
:1036000057E40E94BD0318164CF56C857D858E85A8
:103610009F8520E030E040E251E40E941702DC0187
:10362000CB01BC01CD010E944100DC01CB019F8395
:103630008E830FC088EC90E09D838C838C819D816C
:103640000197F1F79D838C838E819F8101979F83E2
:103650008E838E819F81009769F724C06885798564
:103660008A859B850E944100DC01CB019F838E836C
:103670008E819F819B838A838A819B810197F1F749
:103680009B838A830FC069897A898B899C890E9470
:103690004100DC01CB01888B8889898389818A95E7
:1036A000F1F78983DE01AF57BE4FFE01EF57FE4FA2
:1036B00080818F5F8C93FE01EF57FE4F80818A3FA0
:1036C00008F42ECCC957DE4F0FB6F894DEBF0FBEFC
:1036D000CDBFCF91DF911F910F910895DF93CF93CD
:1036E000CDB7DEB72E970FB6F894DEBF0FBECDBFB5
:1036F0000E941D0880E090E0AAEFB3E48B879C87CE
:10370000AD87BE876B857C858D859E8520E030E00A
:103710004AEF54E40E941702DC01CB018F839887A3
:10372000A987BA876F81788589859A8520E030E0FE
:1037300040E85FE30E941D0488232CF481E090E0C0
:103740009E838D833FC06F81788589859A8520E02F
:103750003FEF4FE757E40E94BD0318164CF56B8509
:103760007C858D859E8520E030E040E251E40E941A
:103770001702DC01CB01BC01CD010E944100DC013C
:10378000CB019E838D830FC088EC90E09C838B835C
:103790008B819C810197F1F79C838B838D819E8126
:1037A00001979E838D838D819E81009769F714C058
:1037B0006F81788589859A850E944100DC01CB0163
:1037C0009E838D838D819E819A83898389819A814D
:1037D0000197F1F79A83898382E56AE50E943408AC
:1037E0008CE46AE50E943408FBCF2F923F924F92FF
:1037F0005F926F927F928F929F92AF92BF92CF9281
:10380000DF92EF92FF920F931F93CF93DF93CDB789
:10381000DEB7CA1BDB0B0FB6F894DEBF0FBECDBF01
:1038200009942A88398848885F846E847D848C84D2
:103830009B84AA84B984C884DF80EE80FD800C81DB
:103840001B81AA81B981CE0FD11D0FB6F894DEBFBE
:0C3850000FBECDBFED010895F894FFCF2E
:08385C00000000000000000064
:00000001FF
