:100000000C942A000C943F000C943F000C943F0089
:100010000C943F000C943F000C943F000C943F0064
:100020000C943F000C943F000C943F000C943F0054
:100030000C943F000C943F000C943F000C943F0044
:100040000C943F000C943F000C943F000C943F0034
:100050000C943F0011241FBECFE5D8E0DEBFCDBF1A
:1000600011E0A0E6B0E0E2EAFEE102C005900D92E8
:10007000A836B107D9F70E94E40A0C944F0F0C94EC
:100080000000EF92FF920F931F937B018C0120E001
:1000900030E040E05FE40E94ED0388238CF0C8016B
:1000A000B70120E030E040E05FE40E94B9010E9427
:1000B0004D049B01AC01205030404040504806C0E8
:1000C000C801B7010E944D049B01AC01B901CA01EE
:1000D0001F910F91FF90EF900895A0E0B0E0E3E74B
:1000E000F0E00C94180FDC012B01FA019C91923086
:1000F00008F439C1EB018881823008F433C19430AF
:1001000069F4843009F02FC111969C91119789816F
:10011000981709F428C1A0E6B0E025C1843009F49D
:1001200021C18230A9F4923009F01DC19A01AD01BC
:1001300088E0EA010990AE01E90109929E0181502F
:10014000C1F7E201898111969C918923818308C1BD
:10015000923009F407C112962D903C901397EB0151
:100160008A819B811496AD90BD90CD90DC901797BD
:10017000EC80FD800E811F819101281B390BB90194
:1001800037FF04C066277727621B730B6032710547
:100190000CF061C0121613066CF537014801062EEB
:1001A00004C096948794779467940A94D2F721E0D8
:1001B00030E040E050E004C0220F331F441F551FC1
:1001C0006A95D2F721503040404050402E213F21C7
:1001D00040235123211531054105510521F021E02E
:1001E00030E040E050E079018A01E628F72808294C
:1001F00019293CC0232BD1F1260E371E35014601AB
:10020000062E04C096948794779467940A94D2F744
:1002100021E030E040E050E004C0220F331F441FD3
:10022000551F6A95D2F721503040404050402A2156
:100230003B214C215D21211531054105510521F05E
:1002400021E030E040E050E059016A01A628B728DB
:10025000C828D9280BC0821593052CF01C01AA24AC
:10026000BB24650103C0EE24FF24870111969C91F5
:10027000D20111968C91981709F445C0992339F051
:10028000A80197012A193B094C095D0906C0A6017E
:1002900095012E193F09400B510B57FD08C01182E3
:1002A0003382228224833583468357831DC081E0B5
:1002B00081833382228288279927DC01821B930B5A
:1002C000A40BB50B84839583A683B7830DC0220F3F
:1002D000331F441F551F24833583468357838281F0
:1002E000938101979383828324813581468157814D
:1002F000DA01C9010197A109B1098F5F9F4FAF4F83
:10030000BF4328F30BC0918333822282EA0CFB1C8B
:100310000C1D1D1DE482F5820683178383E0808314
:10032000248135814681578157FF1AC0C901AA2708
:1003300097FDA095BA2F81709070A070B0705695FF
:10034000479537952795822B932BA42BB52B848328
:100350009583A683B7838281938101969383828359
:10036000DF0101C0D201CD01CDB7DEB7E2E10C94CF
:10037000340FA0E2B0E0EFEBF1E00C94240F6983BE
:100380007A838B839C832D833E834F835887E9E058
:10039000EE2EF12CEC0EFD1ECE010196B7010E944F
:1003A0003E068E010F5E1F4FCE010596B8010E94DA
:1003B0003E068A8991E089278A8BC701B801AE0180
:1003C000475E5F4F0E946D000E946905A096E6E0BF
:1003D0000C94400FA0E2B0E0E0EFF1E00C94240FA9
:1003E00069837A838B839C832D833E834F835887D5
:1003F000F9E0EF2EF12CEC0EFD1ECE010196B701B7
:100400000E943E068E010F5E1F4FCE010596B80179
:100410000E943E06C701B801AE01475E5F4F0E94D1
:100420006D000E946905A096E6E00C94400FA0E2E2
:10043000B0E0EDE1F2E00C94180F69837A838B83CE
:100440009C832D833E834F835887CE010196BE0146
:10045000675F7F4F0E943E06CE010596BE016F5E2C
:100460007F4F0E943E069985923088F089898230BC
:10047000C8F0943019F4823051F404C0843029F467
:10048000923081F480E690E0C6C0923049F420E0DA
:100490009A858A89981321E02A87CE010996BBC0E4
:1004A000823049F420E09A858A89981321E02A8BCA
:1004B000CE014196B0C02D843E844F8458886D880B
:1004C0007E888F88988CEE24FF248701AA24BB2481
:1004D000650140E050E060E070E0E0E0F0E0C10184
:1004E00081709070892BE9F0E60CF71C081D191D2E
:1004F0009A01AB012A0D3B1D4C1D5D1D80E090E073
:10050000A0E0B0E0E614F7040805190520F481E046
:1005100090E0A0E0B0E0BA01A901480F591F6A1F9E
:100520007B1FAA0CBB1CCC1CDD1C97FE08C081E005
:1005300090E0A0E0B0E0A82AB92ACA2ADB2A3196C6
:10054000E032F10549F0660C771C881C991C569422
:10055000479437942794C3CFFA85EA892B893C893D
:100560008B859C85280F391F2E5F3F4F17C0CA010E
:1005700081709070892B61F016950795F794E79438
:1005800080E090E0A0E0B0E8E82AF92A0A2B1B2BD3
:1005900076956795579547952F5F3F4F77FDE7CF46
:1005A0000CC0440F551F661F771F17FD4160EE0CEE
:1005B000FF1C001F111F21503040403090E05907B0
:1005C00090E0690790E4790760F32B8F3C8FDB01A3
:1005D000CA018F779070A070B07080349105A1052A
:1005E000B10561F447FD0AC0E114F10401051105EC
:1005F00029F0405C5F4F6F4F7F4F40781A8EFE1797
:1006000011F081E08A8F4D8F5E8F6F8F78A383E02A
:10061000898FCE0149960E946905A096E2E10C946B
:10062000340FA8E1B0E0E7E1F3E00C94200F698318
:100630007A838B839C832D833E834F835887B9E0D5
:10064000EB2EF12CEC0EFD1ECE010196B7010E949F
:100650003E068E010F5E1F4FCE010596B8010E9427
:100660003E062985223008F47EC03989323010F4E4
:10067000B8017CC08A859A8989278A87243011F03D
:10068000223031F4231709F06EC060E670E06EC0CE
:10069000343039F41D861E861F86188A1C861B86F8
:1006A00004C0323021F484E08987B7015FC02B8514
:1006B0003C858B899C89281B390B3C872B87ED84D3
:1006C000FE840F851889AD88BE88CF88D88CEA143F
:1006D000FB040C051D0540F4EE0CFF1C001F111F50
:1006E000215030403C872B8720E030E040E050E054
:1006F00080E090E0A0E0B0E460E070E0EA14FB0489
:100700000C051D0540F0282B392B4A2B5B2BEA18D2
:10071000FB080C091D09B695A79597958795EE0CD2
:10072000FF1C001F111F6F5F7F4F6F31710531F785
:10073000DA01C9018F779070A070B0708034910594
:10074000A105B10561F427FD0AC0E114F10401051A
:10075000110529F0205C3F4F4F4F5F4F20782D87C8
:100760003E874F87588BBE01675F7F4FCB010E944A
:1007700069056896EAE00C943C0FA8E1B0E0E3EC70
:10078000F3E00C94240F69837A838B839C832D83FD
:100790003E834F83588789E0E82EF12CEC0EFD1E36
:1007A000CE010196B7010E943E068E010F5E1F4FDB
:1007B000CE010596B8010E943E068985823040F040
:1007C0008989823028F0C701B8010E94B60601C0AD
:1007D0008FEF6896E6E00C94400FA8E1B0E0E3EFFD
:1007E000F3E00C94240F69837A838B839C832D839D
:1007F0003E834F83588789E0E82EF12CEC0EFD1ED6
:10080000CE010196B7010E943E068E010F5E1F4F7A
:10081000CE010596B8010E943E068985823040F0DF
:100820008989823028F0C701B8010E94B60601C04C
:100830008FEF6896E6E00C94400FA8E1B0E0E3E2A9
:10084000F4E00C94240F69837A838B839C832D833B
:100850003E834F83588789E0E82EF12CEC0EFD1E75
:10086000CE010196B7010E943E068E010F5E1F4F1A
:10087000CE010596B8010E943E068985823040F07F
:100880008989823028F0C701B8010E94B60601C0EC
:1008900081E06896E6E00C94400FACE0B0E0E3E560
:1008A000F4E00C94280F69837A838B839C83CE01B8
:1008B0000196BE016B5F7F4F0E943E068D818230A4
:1008C00061F1823050F1843021F48E81882351F11E
:1008D0002EC02F81388537FD20C06E812F31310524
:1008E0001CF06623F9F023C08EE190E0821B930B8D
:1008F00029853A854B855C8504C056954795379583
:1009000027958A95D2F76623B1F05095409530959A
:1009100021953F4F4F4F5F4F0EC020E030E040E049
:1009200050E009C02FEF3FEF4FEF5FE704C020E03A
:1009300030E040E050E8B901CA012C96E2E00C94A6
:10094000440FA8E0B0E0E7EAF4E00C94200F7B014C
:100950008C01611571058105910519F482E0898387
:1009600060C083E089838EE1C82ED12CDC82CB82EB
:10097000ED82FE820F831887C801B7010E941A0515
:10098000FC013197F7FF3BC0222733272E1B3F0B7B
:1009900057016801022E04C0D694C794B794A79457
:1009A0000A94D2F740E050E060E070E081E090E02F
:1009B000A0E0B0E004C0880F991FAA1FBB1F2A95B2
:1009C000D2F70197A109B1098E219F21A023B1235C
:1009D0000097A105B10521F041E050E060E070E032
:1009E0004A295B296C297D294D835E836F83788733
:1009F0008EE190E08E1B9F0B9C838B8312C03097FF
:100A000081F00E2E04C0EE0CFF1C001F111F0A9473
:100A1000D2F7ED82FE820F831887CE1ADF0ADC82BE
:100A2000CB821A82CE0101960E9469052896EAE0DF
:100A30000C943C0FEF92FF920F931F937B018C015C
:100A400080E0E81680E0F80681E0080780E01807FB
:100A500088F48FEFE816F1040105110531F028F054
:100A600088E090E0A0E0B0E017C080E090E0A0E077
:100A7000B0E012C080E0E81680E0F80680E00807E9
:100A800081E0180728F088E190E0A0E0B0E004C021
:100A900080E190E0A0E0B0E020E230E040E050E013
:100AA000281B390B4A0B5B0B04C016950795F7946E
:100AB000E7948A95D2F7F701E859FF4F8081281B08
:100AC000310941095109C9011F910F91FF90EF9020
:100AD0000895DF92EF92FF920F931F93FC01E48041
:100AE000F58006811781D1808081823048F480E0D2
:100AF00090E0A0E1B0E0E82AF92A0A2B1B2BA5C060
:100B0000843009F49FC0823021F4EE24FF24870151
:100B100005C0E114F1040105110519F4E0E0F0E06D
:100B200096C0628173819FEF623879070CF05BC0D9
:100B300022E83FEF261B370B2A3131052CF020E04D
:100B400030E040E050E02AC0B801A701022E04C006
:100B500076956795579547950A94D2F781E090E08E
:100B6000A0E0B0E004C0880F991FAA1FBB1F2A9500
:100B7000D2F70197A109B1098E219F21A023B123AA
:100B80000097A105B10521F081E090E0A0E0B0E080
:100B90009A01AB01282B392B4A2B5B2BDA01C901B7
:100BA0008F779070A070B07080349105A105B10569
:100BB00039F427FF09C0205C3F4F4F4F5F4F04C0FF
:100BC000215C3F4F4F4F5F4FE0E0F0E02030A0E06E
:100BD0003A07A0E04A07A0E45A0710F0E1E0F0E08D
:100BE00079018A0127C06038710564F5FB01E1587D
:100BF000FF4FD801C7018F779070A070B07080341C
:100C00009105A105B10539F4E7FE0DC080E490E03F
:100C1000A0E0B0E004C08FE390E0A0E0B0E0E80E18
:100C2000F91E0A1F1B1F17FF05C016950795F7949D
:100C3000E794319687E016950795F794E7948A959F
:100C4000D1F705C0EE24FF248701EFEFF0E06E2F0F
:100C5000679566276795902F9F77D794DD24D79463
:100C60008E2F8695492F462B582F5D29B701CA0133
:100C70001F910F91FF90EF90DF900895FC01DB0131
:100C8000408151812281622F6F7770E0221F2227DD
:100C9000221F9381892F880F822B282F30E0991FE4
:100CA0009927991F11969C93119721153105A9F544
:100CB000411551056105710511F482E037C082E8E4
:100CC0009FEF13969C938E9312979A01AB0167E066
:100CD000220F331F441F551F6A95D1F783E08C9371
:100CE0000DC0220F331F441F551F12968D919C91EA
:100CF0001397019713969C938E931297203080E060
:100D0000380780E0480780E4580758F314962D937D
:100D10003D934D935C93179708952F3F310579F4D8
:100D2000411551056105710519F484E08C9308950E
:100D300064FF03C081E08C9312C01C9210C02F5737
:100D4000304013963C932E93129783E08C9387E068
:100D5000440F551F661F771F8A95D1F7706414964C
:100D60004D935D936D937C93179708951F93DC01CA
:100D7000FB019C91923008F447C08081823008F4D6
:100D800043C0943051F411961C91843099F58181BF
:100D9000682F70E0611B71093FC0843021F09230F0
:100DA00031F48230B9F18181882389F12DC0119607
:100DB0001C9111978230F1F081811817D9F41296A5
:100DC0002D913C911397828193818217930794F020
:100DD00028173907BCF014968D919D910D90BC9108
:100DE000A02D2481358146815781281739074A076C
:100DF0005B0718F4112341F00AC082179307A40778
:100E0000B50740F4112319F061E070E005C06FEF01
:100E10007FEF02C060E070E0CB011F910895DF9387
:100E2000CF93CDB7DEB7A7E2B0E0E7E2F0E0808194
:100E30008F778C93A7E2B0E0E7E2F0E080818064F6
:100E40008C93A7E2B0E0E7E2F0E080818F7D8C93A5
:100E5000A7E2B0E0E7E2F0E080818F7E8C93A7E22A
:100E6000B0E0E7E2F0E08081877F8C93A7E2B0E01A
:100E7000E7E2F0E080818B7F8C93A7E2B0E0E7E2CD
:100E8000F0E080818D7F8C93A7E2B0E0E7E2F0E0B4
:100E900080818E7F8C93A6E2B0E0E6E2F0E0808174
:100EA00080688C93A6E2B0E0E6E2F0E080818F7B80
:100EB0008C93A6E2B0E0E6E2F0E080818F7D8C9337
:100EC000A6E2B0E0E6E2F0E0808180618C93A6E2E9
:100ED000B0E0E6E2F0E08081877F8C93A6E2B0E0AC
:100EE000E6E2F0E080818B7F8C93A6E2B0E0E6E260
:100EF000F0E0808182608C93A6E2B0E0E6E2F0E070
:100F000080818E7F8C93CF91DF910895DF93CF9373
:100F100000D00F92CDB7DEB78B831A821982A7E279
:100F2000B0E0E7E2F0E08081807E8C93A7E2B0E061
:100F3000E7E2F0E08081982F8B818F71892B8C9371
:100F4000A6E2B0E0E6E2F0E0808180648C93E6E225
:100F5000F0E0808182958F70882F90E08170907092
:100F60000097A9F3A6E2B0E0E6E2F0E080818061BC
:100F70008C93E4E2F0E08081882F90E09A8389836B
:100F8000E5E2F0E08081882F90E0982F88279C018F
:100F900089819A81822B932B9A83898389819A8173
:100FA0000F900F900F90CF91DF910895DF93CF9323
:100FB00000D000D000D0CDB7DEB78B836C838B819F
:100FC0008695869586958A838B81877089838A81A9
:100FD000282F30E03E832D838D819E8181309105C5
:100FE00009F443C02D813E81223031052CF48D81DE
:100FF0009E81009771F0BCC02D813E812230310569
:1010000009F45FC08D819E818330910509F485C00C
:10101000AFC08C818130A1F4AAE3B0E0EAE3F0E054
:101020008081482F8981282F30E081E090E0022ED6
:1010300002C0880F991F0A94E2F7842B8C9398C002
:10104000AAE3B0E0EAE3F0E08081482F8981282F0D
:1010500030E081E090E0022E02C0880F991F0A94D0
:10106000E2F7809584238C9383C08C818130A1F436
:10107000A7E3B0E0E7E3F0E08081482F8981282FE3
:1010800030E081E090E0022E02C0880F991F0A94A0
:10109000E2F7842B8C936CC0A7E3B0E0E7E3F0E0C9
:1010A0008081482F8981282F30E081E090E0022E56
:1010B00002C0880F991F0A94E2F7809584238C93CD
:1010C00057C08C818130A1F4A4E3B0E0E4E3F0E008
:1010D0008081482F8981282F30E081E090E0022E26
:1010E00002C0880F991F0A94E2F7842B8C9340C0AA
:1010F000A4E3B0E0E4E3F0E08081482F8981282F69
:1011000030E081E090E0022E02C0880F991F0A941F
:10111000E2F7809584238C932BC08C818130A1F4DD
:10112000A1E3B0E0E1E3F0E08081482F8981282F3E
:1011300030E081E090E0022E02C0880F991F0A94EF
:10114000E2F7842B8C9314C0A1E3B0E0E1E3F0E07C
:101150008081482F8981282F30E081E090E0022EA5
:1011600002C0880F991F0A94E2F7809584238C931C
:1011700026960FB6F894DEBF0FBECDBFCF91DF919C
:101180000895DF93CF9300D000D000D0CDB7DEB765
:101190008B836C838B818695869586958A838B81DC
:1011A000877089838A81282F30E03E832D838D814B
:1011B0009E818130910509F443C02D813E8122300A
:1011C00031052CF48D819E81009771F0BCC02D817A
:1011D0003E812230310509F45FC08D819E818330CC
:1011E000910509F485C0AFC08C818130A1F4ABE3D7
:1011F000B0E0EBE3F0E08081482F8981282F30E0D8
:1012000081E090E0022E02C0880F991F0A94E2F755
:10121000842B8C9398C0ABE3B0E0EBE3F0E08081EB
:10122000482F8981282F30E081E090E0022E02C013
:10123000880F991F0A94E2F7809584238C9383C0CA
:101240008C818130A1F4A8E3B0E0E8E3F0E0808194
:10125000482F8981282F30E081E090E0022E02C0E3
:10126000880F991F0A94E2F7842B8C936CC0A8E333
:10127000B0E0E8E3F0E08081482F8981282F30E05A
:1012800081E090E0022E02C0880F991F0A94E2F7D5
:10129000809584238C9357C08C818130A1F4A5E381
:1012A000B0E0E5E3F0E08081482F8981282F30E02D
:1012B00081E090E0022E02C0880F991F0A94E2F7A5
:1012C000842B8C9340C0A5E3B0E0E5E3F0E080819F
:1012D000482F8981282F30E081E090E0022E02C063
:1012E000880F991F0A94E2F7809584238C932BC072
:1012F0008C818130A1F4A2E3B0E0E2E3F0E08081F0
:10130000482F8981282F30E081E090E0022E02C032
:10131000880F991F0A94E2F7842B8C9314C0A2E3E0
:10132000B0E0E2E3F0E08081482F8981282F30E0AF
:1013300081E090E0022E02C0880F991F0A94E2F724
:10134000809584238C9326960FB6F894DEBF0FBE4B
:10135000CDBFCF91DF910895DF93CF9300D00F924F
:10136000CDB7DEB789838981282F30E03B832A837C
:101370008A819B8184309105C9F12A813B81253086
:10138000310584F48A819B818230910529F12A817B
:101390003B81233031052CF58A819B818130910579
:1013A000B1F03CC02A813B812630310549F18A8168
:1013B0009B8186309105FCF02A813B8127303105E5
:1013C00021F18A819B818830910521F127C080E03D
:1013D00061E00E94D60722C081E061E00E94D6074A
:1013E0001DC08AE061E00E94D60718C08BE061E072
:1013F0000E94D60713C084E161E00E94D6070EC0A8
:1014000085E161E00E94D60709C08EE161E00E949B
:10141000D60704C08FE161E00E94D6070F900F90BD
:101420000F90CF91DF910895DF93CF9300D00F926B
:10143000CDB7DEB789838981282F30E03B832A83AB
:101440008A819B8184309105C9F12A813B812530B5
:10145000310584F48A819B818230910529F12A81AA
:101460003B81233031052CF58A819B8181309105A8
:10147000B1F03CC02A813B812630310549F18A8197
:101480009B8186309105FCF02A813B812730310514
:1014900021F18A819B818830910521F127C080E06C
:1014A00061E00E94C10822C081E061E00E94C108A1
:1014B0001DC08AE061E00E94C10818C08BE061E0B5
:1014C0000E94C10813C084E161E00E94C1080EC0FF
:1014D00085E161E00E94C10809C08EE161E00E94DF
:1014E000C10804C08FE161E00E94C1080F900F9015
:1014F0000F90CF91DF910895DF93CF9300D00F929B
:10150000CDB7DEB789838981282F30E03B832A83DA
:101510008A819B8184309105C9F12A813B812530E4
:10152000310584F48A819B818230910529F12A81D9
:101530003B81233031052CF58A819B8181309105D7
:10154000B1F03CC02A813B812630310549F18A81C6
:101550009B8186309105FCF02A813B812730310543
:1015600021F18A819B818830910521F127C080E09B
:1015700060E00E94C10822C081E060E00E94C108D2
:101580001DC08AE060E00E94C10818C08BE060E0E6
:101590000E94C10813C084E160E00E94C1080EC02F
:1015A00085E160E00E94C10809C08EE160E00E9410
:1015B000C10804C08FE160E00E94C1080F900F9045
:1015C0000F90CF91DF9108950F931F93DF93CF93E7
:1015D000CDB7DEB7C056D0400FB6F894DEBF0FBE11
:1015E000CDBFFE01E75AFF4F8CE291E091838083EB
:1015F000FE01E95AFF4F8AE694E0918380838DE1F2
:1016000061E00E94D607AFE4B0E0EFE4F0E0808153
:1016100080688C93AFE4B0E0EFE4F0E080818F7BF2
:101620008C93AFE4B0E0EFE4F0E0808182608C93D3
:10163000AFE4B0E0EFE4F0E080818E7F8C93AEE425
:10164000B0E0EEE4F0E0808180618C93AEE4B0E045
:10165000EEE4F0E0808188608C93AEE4B0E0EEE4EC
:10166000F0E080818B7F8C93AEE4B0E0EEE4F0E0BC
:10167000808182608C93AEE4B0E0EEE4F0E08081A3
:101680008E7F8C93E6E4F0E080E29EE49183808399
:10169000FE01E95AFF4F8CE291E09183808336C1CD
:1016A000AAE4B0E0FE01E95AFF4F808191811196D2
:1016B0009C938E93FE01ED5AFF4F80E090E0A8ECE2
:1016C000B2E480839183A283B3838E01015B1F4FB9
:1016D000FE01ED5AFF4F60817181828193812BEA77
:1016E0003AEA4AE250E40E941702DC01CB01F80119
:1016F00080839183A283B383FE01E15BFF4F60810E
:1017000071818281938120E030E040E85FE30E94B4
:101710001D04882334F4FE01E25BFF4F81E08083E7
:10172000E0C0FE01E15BFF4F6081718182819381A6
:1017300020E030E04FE753E40E94BD0318160CF0A0
:10174000C0C0FE01ED5AFF4F60817181828193819B
:1017500020E030E04AE754E40E941103DC01CB01B1
:10176000FE01E65BFF4F80839183A283B3838E01EA
:101770000A5B1F4FFE01E65BFF4F60817181828132
:10178000938120E030E04AEF54E40E941702DC012C
:10179000CB01F80180839183A283B383FE01EA5BCE
:1017A000FF4F608171818281938120E030E040E8C9
:1017B0005FE30E941D04882344F4FE01EC5BFF4FAD
:1017C00081E090E09183808364C0FE01EA5BFF4F7B
:1017D000608171818281938120E03FEF4FE757E480
:1017E0000E94BD0318160CF043C0FE01E65BFF4FDC
:1017F000608171818281938120E030E040E251E498
:101800000E941702DC01CB018E010C5B1F4FBC0153
:10181000CD010E944100DC01CB01F801918380835E
:101820001FC0FE01EE5BFF4F88EC90E09183808348
:10183000FE01EE5BFF4F808191810197F1F7FE0180
:10184000EE5BFF4F91838083DE01AC5BBF4FFE01F7
:10185000EC5BFF4F80819181019711969C938E9351
:10186000FE01EC5BFF4F808191810097D1F642C071
:101870008E010C5B1F4FFE01EA5BFF4F608171819F
:10188000828193810E944100DC01CB01F8019183A8
:101890008083DE01A05CBF4FFE01EC5BFF4F8081C7
:1018A000918111969C938E93FE01E05CFF4F8081A5
:1018B00091810197F1F7FE01E05CFF4F91838083F6
:1018C00019C08E01025B1F4FFE01E15BFF4F60817B
:1018D0007181828193810E944100DC01CB01F8017A
:1018E0008083FE01E25BFF4F80818FAF8FAD8A95D1
:1018F000F1F78FAFDE01A95ABF4FFE01E95AFF4F42
:1019000080819181019611969C938E93FE01E95AF4
:10191000FF4F80819181F8E088399F0708F4C0CE9D
:1019200080E090E0AAEFB4E48BAF9CAFADAFBEAF68
:101930006BAD7CAD8DAD9EAD20E030E04AEF54E460
:101940000E941702DC01CB018FAB98AFA9AFBAAFF1
:101950006FA978AD89AD9AAD20E030E040E85FE353
:101960000E941D0488232CF481E090E09EAB8DAB97
:101970003FC06FA978AD89AD9AAD20E03FEF4FE74A
:1019800057E40E94BD0318164CF56BAD7CAD8DADD0
:101990009EAD20E030E040E251E40E941702DC01FD
:1019A000CB01BC01CD010E944100DC01CB019EAB0B
:1019B0008DAB0FC088EC90E09CAB8BAB8BA99CA946
:1019C0000197F1F79CAB8BAB8DA99EA901979EABBC
:1019D0008DAB8DA99EA9009769F714C06FA978AD4A
:1019E00089AD9AAD0E944100DC01CB019EAB8DAB6D
:1019F0008DA99EA99AAB89AB89A99AA90197F1F7FC
:101A00009AAB89ABFE01E95AFF4F88E998E09183D0
:101A10008083D4C0AAE4B0E0FE01E95AFF4F808180
:101A2000918111969C938E9380E090E0A8ECB2E4B3
:101A30008DA79EA7AFA7B8AB6DA57EA58FA598A9CA
:101A40002BEA3AEA4AE250E40E941702DC01CB0199
:101A500089A79AA7ABA7BCA769A57AA58BA59CA5C2
:101A600020E030E040E85FE30E941D0488231CF47E
:101A700081E088A791C069A57AA58BA59CA520E0E7
:101A800030E04FE753E40E94BD0318160CF07BC012
:101A90006DA57EA58FA598A920E030E04AE754E423
:101AA0000E941103DC01CB018CA39DA3AEA3BFA3B5
:101AB0006CA17DA18EA19FA120E030E04AEF54E40B
:101AC0000E941702DC01CB0188A399A3AAA3BBA3A0
:101AD00068A179A18AA19BA120E030E040E85FE302
:101AE0000E941D0488232CF481E090E09F8F8E8F4C
:101AF0003FC068A179A18AA19BA120E03FEF4FE7F9
:101B000057E40E94BD0318164CF56CA17DA18EA16F
:101B10009FA120E030E040E251E40E941702DC0186
:101B2000CB01BC01CD010E944100DC01CB019F8FA4
:101B30008E8F0FC088EC90E09D8F8C8F8C8D9D8D4B
:101B40000197F1F79D8F8C8F8E8D9F8D01979F8FC1
:101B50008E8F8E8D9F8D009769F724C068A179A123
:101B60008AA19BA10E944100DC01CB019F8F8E8F37
:101B70008E8D9F8D9B8F8A8F8A8D9B8D0197F1F71C
:101B80009B8F8A8F0FC069A57AA58BA59CA50E9403
:101B90004100DC01CB0188A788A5898F898D8A95B2
:101BA000F1F7898FDE01A95ABF4FFE01E95AFF4FB5
:101BB00080819181019711969C938E93FE01E95A41
:101BC000FF4F8081918121E08D32920708F022CF72
:101BD0000E940F0780E00E948607CC01A0E0B0E0E1
:101BE000BC01CD010E94A104DC01CB018E01055A8C
:101BF0001F4FBC01CD012AE939E949E050E40E94B8
:101C00001702DC01CB01F80180839183A283B383A7
:101C1000A1961FAEA197FE01E55AFF4F6081718129
:101C20008281938120E030E040E050E00E94ED03AB
:101C3000882324F0F1E0A196FFAFA19781E0A1965F
:101C40002FADA1978227882309F0EDC0A0961FAE83
:101C5000A097FE01E55AFF4F6081718182819381D7
:101C600020E030E849E055E40E941D04882324F474
:101C700081E0A0968FAFA09781E0A0969FADA0973E
:101C80008927882309F0CFC00AE410E0FE01E55A55
:101C9000FF4F60817181828193810E944100DC014C
:101CA000CB01F8019183808380E090E0A8ECB2E45E
:101CB0008D8B9E8BAF8BB88F6D897E898F89988D28
:101CC0002BEA3AEA4AE250E40E941702DC01CB0117
:101CD000898B9A8BAB8BBC8B69897A898B899C8920
:101CE00020E030E040E85FE30E941D0488231CF4FC
:101CF00081E0888B91C069897A898B899C8920E0F1
:101D000030E04FE753E40E94BD0318160CF07BC08F
:101D10006D897E898F89988D20E030E04AE754E410
:101D20000E941103DC01CB018C879D87AE87BF87A2
:101D30006C857D858E859F8520E030E04AEF54E4F8
:101D40000E941702DC01CB0188879987AA87BB878D
:101D5000688579858A859B8520E030E040E85FE3EF
:101D60000E941D0488232CF481E090E09F838E83E1
:101D70003FC0688579858A859B8520E03FEF4FE7E6
:101D800057E40E94BD0318164CF56C857D858E8541
:101D90009F8520E030E040E251E40E941702DC0120
:101DA000CB01BC01CD010E944100DC01CB019F832E
:101DB0008E830FC088EC90E09D838C838C819D8105
:101DC0000197F1F79D838C838E819F8101979F837B
:101DD0008E838E819F81009769F7FCCE6885798517
:101DE0008A859B850E944100DC01CB019F838E8305
:101DF0008E819F819B838A838A819B810197F1F7E2
:101E00009B838A83E7CE69897A898B899C890E9422
:101E10004100DC01CB01888B8889898389818A957F
:101E2000F1F78983D7CEEAE4F0E011821082D2CEB6
:101E30002F923F924F925F926F927F928F929F92DA
:101E4000AF92BF92CF92DF92EF92FF920F931F93C8
:101E5000CF93DF93CDB7DEB7CA1BDB0B0FB6F89479
:101E6000DEBF0FBECDBF09942A88398848885F84B9
:101E70006E847D848C849B84AA84B984C884DF802A
:101E8000EE80FD800C811B81AA81B981CE0FD11D0E
:101E90000FB6F894DEBF0FBECDBFED010895F894E4
:021EA000FFCF72
:101EA200000000000000000000010202030303031F
:101EB20004040404040404040505050505050505D8
:101EC20005050505050505050606060606060606B8
:101ED20006060606060606060606060606060606A0
:101EE2000606060606060606070707070707070788
:101EF2000707070707070707070707070707070770
:101F0200070707070707070707070707070707075F
:101F1200070707070707070707070707070707074F
:101F22000707070707070707080808080808080837
:101F3200080808080808080808080808080808081F
:101F4200080808080808080808080808080808080F
:101F520008080808080808080808080808080808FF
:101F620008080808080808080808080808080808EF
:101F720008080808080808080808080808080808DF
:101F820008080808080808080808080808080808CF
:101F920008080808080808080808080808080808BF
:081FA2000808080808080808F7
:00000001FF
