:100000000C942A000C9447000C9447000C94470071
:100010000C9447000C9447000C9447000C94470044
:100020000C9447000C9447000C9447000C94470034
:100030000C9447000C9447000C9447000C94470024
:100040000C9447000C9447000C9447000C94470014
:100050000C94470011241FBECFE5D8E0DEBFCDBF12
:1000600010E0A0E6B0E0E4EAFCE102C005900D92E9
:10007000A437B107D9F710E0A4E7B0E001C01D92A2
:10008000A737B107E1F70E94090E0C94500E0C94AB
:100090000000EF92FF920F931F937B018C0120E0F1
:1000A00030E040E05FE40E94490388238CF0C801FF
:1000B000B70120E030E040E05FE40E94C1010E940F
:1000C000A9039B01AC01205030404040504806C07D
:1000D000C801B7010E94A9039B01AC01B901CA0183
:1000E0001F910F91FF90EF900895A0E0B0E0EBE733
:1000F000F0E00C94190EDC012B01FA019C91923076
:1001000008F439C1EB018881823008F433C194309E
:1001100069F4843009F02FC111969C91119789815F
:10012000981709F428C1ABE6B0E025C1843009F482
:1001300021C18230A9F4923009F01DC19A01AD01AC
:1001400088E0EA010990AE01E90109929E0181501F
:10015000C1F7E201898111969C918923818308C1AD
:10016000923009F407C112962D903C901397EB0141
:100170008A819B811496AD90BD90CD90DC901797AD
:10018000EC80FD800E811F819101281B390BB90184
:1001900037FF04C066277727621B730B6032710537
:1001A0000CF061C0121613066CF537014801062EDB
:1001B00004C096948794779467940A94D2F721E0C8
:1001C00030E040E050E004C0220F331F441F551FB1
:1001D0006A95D2F721503040404050402E213F21B7
:1001E00040235123211531054105510521F021E01E
:1001F00030E040E050E079018A01E628F72808293C
:1002000019293CC0232BD1F1260E371E350146019A
:10021000062E04C096948794779467940A94D2F734
:1002200021E030E040E050E004C0220F331F441FC3
:10023000551F6A95D2F721503040404050402A2146
:100240003B214C215D21211531054105510521F04E
:1002500021E030E040E050E059016A01A628B728CB
:10026000C828D9280BC0821593052CF01C01AA249C
:10027000BB24650103C0EE24FF24870111969C91E5
:10028000D20111968C91981709F445C0992339F041
:10029000A80197012A193B094C095D0906C0A6016E
:1002A00095012E193F09400B510B57FD08C01182D3
:1002B0003382228224833583468357831DC081E0A5
:1002C00081833382228288279927DC01821B930B4A
:1002D000A40BB50B84839583A683B7830DC0220F2F
:1002E000331F441F551F24833583468357838281E0
:1002F000938101979383828324813581468157813D
:10030000DA01C9010197A109B1098F5F9F4FAF4F72
:10031000BF4328F30BC0918333822282EA0CFB1C7B
:100320000C1D1D1DE482F5820683178383E0808304
:10033000248135814681578157FF1AC0C901AA27F8
:1003400097FDA095BA2F81709070A070B0705695EF
:10035000479537952795822B932BA42BB52B848318
:100360009583A683B7838281938101969383828349
:10037000DF0101C0D201CD01CDB7DEB7E2E10C94BF
:10038000350EA0E2B0E0E7ECF1E00C94250E6983B5
:100390007A838B839C832D833E834F835887E9E048
:1003A000EE2EF12CEC0EFD1ECE010196B7010E943F
:1003B000D2048E010F5E1F4FCE010596B8010E9438
:1003C000D2048A8991E089278A8BC701B801AE01DE
:1003D000475E5F4F0E9475000E94FD03A096E6E015
:1003E0000C94410EA0E2B0E0E8EFF1E00C94250E91
:1003F00069837A838B839C832D833E834F835887C5
:10040000F9E0EF2EF12CEC0EFD1ECE010196B701A6
:100410000E94D2048E010F5E1F4FCE010596B801D7
:100420000E94D204C701B801AE01475E5F4F0E942F
:1004300075000E94FD03A096E6E00C94410EA0E238
:10044000B0E0E5E2F2E00C94190E69837A838B83C5
:100450009C832D833E834F835887CE010196BE0136
:10046000675F7F4F0E94D204CE010596BE016F5E8A
:100470007F4F0E94D2049985923088F0898982301A
:10048000C8F0943019F4823051F404C0843029F457
:10049000923081F48BE690E0C6C0923049F420E0BF
:1004A0009A858A89981321E02A87CE010996BBC0D4
:1004B000823049F420E09A858A89981321E02A8BBA
:1004C000CE014196B0C02D843E844F8458886D88FB
:1004D0007E888F88988CEE24FF248701AA24BB2471
:1004E000650140E050E060E070E0E0E0F0E0C10174
:1004F00081709070892BE9F0E60CF71C081D191D1E
:100500009A01AB012A0D3B1D4C1D5D1D80E090E062
:10051000A0E0B0E0E614F7040805190520F481E036
:1005200090E0A0E0B0E0BA01A901480F591F6A1F8E
:100530007B1FAA0CBB1CCC1CDD1C97FE08C081E0F5
:1005400090E0A0E0B0E0A82AB92ACA2ADB2A3196B6
:10055000E032F10549F0660C771C881C991C569412
:10056000479437942794C3CFFA85EA892B893C892D
:100570008B859C85280F391F2E5F3F4F17C0CA01FE
:1005800081709070892B61F016950795F794E79428
:1005900080E090E0A0E0B0E8E82AF92A0A2B1B2BC3
:1005A00076956795579547952F5F3F4F77FDE7CF36
:1005B0000CC0440F551F661F771F17FD4160EE0CDE
:1005C000FF1C001F111F21503040403090E05907A0
:1005D00090E0690790E4790760F32B8F3C8FDB0193
:1005E000CA018F779070A070B07080349105A1051A
:1005F000B10561F447FD0AC0E114F10401051105DC
:1006000029F0405C5F4F6F4F7F4F40781A8EFE1786
:1006100011F081E08A8F4D8F5E8F6F8F78A383E01A
:10062000898FCE0149960E94FD03A096E2E10C94C9
:10063000350EA8E1B0E0EFE1F3E00C94250E6983FC
:100640007A838B839C832D833E834F83588789E0F5
:10065000E82EF12CEC0EFD1ECE010196B7010E9492
:10066000D2048E010F5E1F4FCE010596B8010E9485
:10067000D2048985823040F08989823028F0C70110
:10068000B8010E944A0501C08FEF6896E6E00C941D
:10069000410EA8E1B0E0EFE4F3E00C94250E69838D
:1006A0007A838B839C832D833E834F83588789E095
:1006B000E82EF12CEC0EFD1ECE010196B7010E9432
:1006C000D2048E010F5E1F4FCE010596B8010E9425
:1006D000D2048985823040F08989823028F0C701B0
:1006E000B8010E944A0501C08FEF6896E6E00C94BD
:1006F000410EA8E1B0E0EFE7F3E00C94250E69832A
:100700007A838B839C832D833E834F83588789E034
:10071000E82EF12CEC0EFD1ECE010196B7010E94D1
:10072000D2048E010F5E1F4FCE010596B8010E94C4
:10073000D2048985823040F08989823028F0C7014F
:10074000B8010E944A0501C081E06896E6E00C9479
:10075000410EACE0B0E0EFEAF3E00C94290E6983BF
:100760007A838B839C83CE010196BE016B5F7F4FA2
:100770000E94D2048D81823061F1823050F1843048
:1007800021F48E81882351F12EC02F81388537FDC9
:1007900020C06E812F3131051CF06623F9F023C093
:1007A0008EE190E0821B930B29853A854B855C8511
:1007B00004C056954795379527958A95D2F76623B5
:1007C000B1F050954095309521953F4F4F4F5F4F79
:1007D0000EC020E030E040E050E009C02FEF3FEFD6
:1007E0004FEF5FE704C020E030E040E050E8B9019F
:1007F000CA012C96E2E00C94450EDF92EF92FF9234
:100800000F931F93FC01E480F58006811781D1804E
:100810008081823048F480E090E0A0E1B0E0E82AF6
:10082000F92A0A2B1B2BA5C0843009F49FC0823003
:1008300021F4EE24FF24870105C0E114F104010531
:10084000110519F4E0E0F0E096C0628173819FEF3A
:10085000623879070CF05BC022E83FEF261B370BAC
:100860002A3131052CF020E030E040E050E02AC091
:10087000B801A701022E04C0769567955795479554
:100880000A94D2F781E090E0A0E0B0E004C0880FC5
:10089000991FAA1FBB1F2A95D2F70197A109B10979
:1008A0008E219F21A023B1230097A105B10521F03E
:1008B00081E090E0A0E0B0E09A01AB01282B392B59
:1008C0004A2B5B2BDA01C9018F779070A070B07052
:1008D00080349105A105B10539F427FF09C0205CDA
:1008E0003F4F4F4F5F4F04C0215C3F4F4F4F5F4F13
:1008F000E0E0F0E02030A0E03A07A0E04A07A0E402
:100900005A0710F0E1E0F0E079018A0127C0603871
:10091000710564F5FB01E158FF4FD801C7018F77DE
:100920009070A070B07080349105A105B10539F4C4
:10093000E7FE0DC080E490E0A0E0B0E004C08FE3EB
:1009400090E0A0E0B0E0E80EF91E0A1F1B1F17FFA1
:1009500005C016950795F794E794319687E01695AC
:100960000795F794E7948A95D1F705C0EE24FF2404
:100970008701EFEFF0E06E2F679566276795902F60
:100980009F77D794DD24D7948E2F8695492F462BB9
:10099000582F5D29B701CA011F910F91FF90EF9069
:1009A000DF900895FC01DB01408151812281622F9B
:1009B0006F7770E0221F2227221F9381892F880FD3
:1009C000822B282F30E0991F9927991F11969C930D
:1009D000119721153105A9F54115510561057105DD
:1009E00011F482E037C082E89FEF13969C938E93B8
:1009F00012979A01AB0167E0220F331F441F551F66
:100A00006A95D1F783E08C930DC0220F331F441FEA
:100A1000551F12968D919C911397019713969C9355
:100A20008E931297203080E0380780E0480780E4FA
:100A3000580758F314962D933D934D935C93179755
:100A400008952F3F310579F4411551056105710570
:100A500019F484E08C93089564FF03C081E08C93C3
:100A600012C01C9210C02F57304013963C932E9307
:100A7000129783E08C9387E0440F551F661F771F02
:100A80008A95D1F7706414964D935D936D937C9322
:100A9000179708951F93DC01FB019C91923008F495
:100AA00047C08081823008F443C0943051F41196DD
:100AB0001C91843099F58181682F70E0611B710968
:100AC0003FC0843021F0923031F48230B9F181811D
:100AD000882389F12DC011961C9111978230F1F075
:100AE00081811817D9F412962D913C911397828128
:100AF00093818217930794F028173907BCF0149656
:100B00008D919D910D90BC91A02D248135814681C0
:100B10005781281739074A075B0718F4112341F05A
:100B20000AC082179307A407B50740F4112319F0F0
:100B300061E070E005C06FEF7FEF02C060E070E041
:100B4000CB011F910895DF93CF9300D000D000D048
:100B5000CDB7DEB78B836C838B8186958695869522
:100B60008A838B81877089838A81282F30E03E8336
:100B70002D838D819E818130910509F443C02D81A3
:100B80003E81223031052CF48D819E81009771F0D9
:100B9000BCC02D813E812230310509F45FC08D81BA
:100BA0009E818330910509F485C0AFC08C8181306E
:100BB000A1F4AAE3B0E0EAE3F0E08081482F898164
:100BC000282F30E081E090E0022E02C0880F991FAC
:100BD0000A94E2F7842B8C9398C0AAE3B0E0EAE38E
:100BE000F0E08081482F8981282F30E081E090E07B
:100BF000022E02C0880F991F0A94E2F78095842381
:100C00008C9383C08C818130A1F4A7E3B0E0E7E34B
:100C1000F0E08081482F8981282F30E081E090E04A
:100C2000022E02C0880F991F0A94E2F7842B8C933E
:100C30006CC0A7E3B0E0E7E3F0E08081482F898152
:100C4000282F30E081E090E0022E02C0880F991F2B
:100C50000A94E2F7809584238C9357C08C8181306D
:100C6000A1F4A4E3B0E0E4E3F0E08081482F8981BF
:100C7000282F30E081E090E0022E02C0880F991FFB
:100C80000A94E2F7842B8C9340C0A4E3B0E0E4E341
:100C9000F0E08081482F8981282F30E081E090E0CA
:100CA000022E02C0880F991F0A94E2F780958423D0
:100CB0008C932BC08C818130A1F4A1E3B0E0E1E3FF
:100CC000F0E08081482F8981282F30E081E090E09A
:100CD000022E02C0880F991F0A94E2F7842B8C938E
:100CE00014C0A1E3B0E0E1E3F0E08081482F898106
:100CF000282F30E081E090E0022E02C0880F991F7B
:100D00000A94E2F7809584238C9326960FB6F89484
:100D1000DEBF0FBECDBFCF91DF910895DF93CF939C
:100D200000D000D000D0CDB7DEB78B836C838B8131
:100D30008695869586958A838B81877089838A813B
:100D4000282F30E03E832D838D819E818130910557
:100D500009F443C02D813E81223031052CF48D8170
:100D60009E81009771F0BCC02D813E8122303105FB
:100D700009F45FC08D819E818330910509F485C09F
:100D8000AFC08C818130A1F4ABE3B0E0EBE3F0E0E5
:100D90008081482F8981282F30E081E090E0022E69
:100DA00002C0880F991F0A94E2F7842B8C9398C095
:100DB000ABE3B0E0EBE3F0E08081482F8981282F9E
:100DC00030E081E090E0022E02C0880F991F0A9463
:100DD000E2F7809584238C9383C08C818130A1F4C9
:100DE000A8E3B0E0E8E3F0E08081482F8981282F74
:100DF00030E081E090E0022E02C0880F991F0A9433
:100E0000E2F7842B8C936CC0A8E3B0E0E8E3F0E059
:100E10008081482F8981282F30E081E090E0022EE8
:100E200002C0880F991F0A94E2F7809584238C935F
:100E300057C08C818130A1F4A5E3B0E0E5E3F0E098
:100E40008081482F8981282F30E081E090E0022EB8
:100E500002C0880F991F0A94E2F7842B8C9340C03C
:100E6000A5E3B0E0E5E3F0E08081482F8981282FF9
:100E700030E081E090E0022E02C0880F991F0A94B2
:100E8000E2F7809584238C932BC08C818130A1F470
:100E9000A2E3B0E0E2E3F0E08081482F8981282FCF
:100EA00030E081E090E0022E02C0880F991F0A9482
:100EB000E2F7842B8C9314C0A2E3B0E0E2E3F0E00D
:100EC0008081482F8981282F30E081E090E0022E38
:100ED00002C0880F991F0A94E2F7809584238C93AF
:100EE00026960FB6F894DEBF0FBECDBFCF91DF912F
:100EF0000895DF93CF93CDB7DEB70E94BB0B0E945E
:100F0000A10DCF91DF910895DF93CF93CDB7DEB7D9
:100F1000A7970FB6F894DEBF0FBECDBF0E94FA0DA3
:100F2000898389818B3109F466C08091740088239C
:100F300009F061C089818D3009F45DC089818032FA
:100F400009F459C089818F3709F455C08091760022
:100F50008039E0F4809176008F3859F480917600E2
:100F60000E94FD0989810E94DC0A80EC8093760052
:100F700038C0809176000E94FD0989810E94DC0AB8
:100F8000809176008F5F809376002BC080917600F1
:100F9000803940F080917600803C20F48FE8809387
:100FA00076001FC080917600803DD8F48091760055
:100FB0008F3C59F4809176000E94FD0989810E943E
:100FC000DC0A8FEC809376000CC0809176000E9442
:100FD000FD0989810E94DC0A809176008F5F8093F1
:100FE000760089810E94E00D8DE00E94E00D8AE08C
:100FF0000E94E00D18C189818B3121F481E080933A
:10100000740011C18981282F30E03FA32EA38EA147
:101010009FA18032910509F4B2C02EA13FA12F37C4
:10102000310599F18EA19FA18D30910509F0FBC08A
:1010300080917600803940F480EC80937600809136
:1010400076000E94FD090BC080917600803D38F447
:1010500080E880937600809176000E94FD0985E407
:101060000E94E00D8EE40E94E00D84E50E94E00DF8
:1010700085E40E94E00D82E50E94E00D8DE00E9473
:10108000E00D8AE00E94E00DCEC0809176008823BA
:101090002CF580917600803859F4809176000E947A
:1010A000FD0980E20E94DC0A80E88093760045C05A
:1010B00080917600813808F440C0809176008039B4
:1010C000E0F5809176000E94FD0980E20E94DC0A32
:1010D000809176008150809376002FC080917600B9
:1010E000803C58F180917600803C59F480917600E4
:1010F0000E94FD0980E20E94DC0A8FE8809376005E
:101100001CC080917600803960F080917600803C30
:1011100040F48FE880937600809176000E94FD096C
:101120000CC0809176000E94FD0980E20E94DC0ADA
:101130008091760081508093760082E40E94E00DD9
:1011400081E40E94E00D83E40E94E00D8BE40E94A4
:10115000E00D83E50E94E00D80E50E94E00D81E452
:101160000E94E00D83E40E94E00D85E40E94E00D02
:101170008DE00E94E00D8AE00E94E00D54C0809155
:1011800076008039E0F4809176008F3859F48091B0
:1011900076000E94FD0980E20E94DC0A80EC8093C8
:1011A00076002CC0809176000E94FD0980E20E94AA
:1011B000DC0A809176008F5F809376001FC080915B
:1011C0007600803DD8F4809176008F3C59F4809170
:1011D00076000E94FD0980E20E94DC0A8FEC809379
:1011E00076000CC0809176000E94FD0980E20E948A
:1011F000DC0A809176008F5F8093760083E50E9401
:10120000E00D80E50E94E00D81E40E94E00D83E4A2
:101210000E94E00D85E40E94E00D8DE00E94E00D4B
:101220008AE00E94E00D809174008130A1F48981F0
:101230008B3521F481E0809375000DC080E88093A8
:10124000760081E00E94FD0980E80E94FD0910926D
:1012500074001092750080917400813009F0C4C050
:1012600080917500813009F0BFC08981282F30E05E
:101270003DA32CA38CA19DA18234910509F447C004
:101280002CA13DA12334310534F48CA19DA18134DE
:10129000910571F0A9C02CA13DA12334310509F4B9
:1012A0006BC08CA19DA18434910509F483C09CC0BE
:1012B00080917600803D70F480917600803C50F003
:1012C00080917600805480937600809176000E9411
:1012D000FD090CC080917600803940F48091760041
:1012E000882324F4809176000E94FD0985E50E9400
:1012F000E00D80E50E94E00D8DE00E94E00D8AE0A7
:101300000E94E00D10927400109275006DC08091E3
:101310007600803970F480917600882354F48091AF
:101320007600805C80937600809176000E94FD09B3
:101330000CC080917600803D40F480917600803C26
:1013400020F0809176000E94FD0984E40E94E00D67
:101350008FE40E94E00D87E50E94E00D8EE40E947C
:10136000E00D8DE00E94E00D8AE00E94E00D1092F9
:1013700074001092750038C080E690E00E94790DEC
:1013800082E50E94E00D89E40E94E00D87E40E945E
:10139000E00D88E40E94E00D84E50E94E00D8DE000
:1013A0000E94E00D8AE00E94E00D109274001092FD
:1013B00075001AC086E690E00E94790D8CE40E94C8
:1013C000E00D85E40E94E00D86E40E94E00D84E5D6
:1013D0000E94E00D8DE00E94E00D8AE00E94E00D89
:1013E0001092740010927500A7960FB6F894DEBFA5
:1013F0000FBECDBFCF91DF910895DF93CF93CDB7CF
:10140000DEB72F970FB6F894DEBF0FBECDBF8F8724
:1014100080E060E00E948E0681E060E00E948E061F
:101420008F85982F917080E1692F0E948E068F859D
:101430008695982F917081E1692F0E948E068F8585
:1014400086958695982F917082E1692F0E948E066D
:101450008F85869586958695982F917083E1692F63
:101460000E948E068F8582958F70982F917084E1EF
:10147000692F0E948E068F85829586958770982F9A
:10148000917085E1692F0E948E068F8582958695E1
:1014900086958370982F917086E1692F0E948E0641
:1014A0008F85982F991F9927991F87E1692F0E948F
:1014B0008E0682E061E00E948E0680E090E0A0E06F
:1014C000B0E48B879C87AD87BE876B857C858D85D7
:1014D0009E8520E030E04AEF54E40E941F02DC01C8
:1014E000CB018F839887A987BA876F817885898593
:1014F0009A8520E030E040E85FE30E94790388238A
:101500002CF481E090E09E838D833FC06F817885CD
:1015100089859A8520E03FEF4FE757E40E94190341
:1015200018164CF56B857C858D859E8520E030E016
:1015300040E251E40E941F02DC01CB01BC01CD015D
:101540000E944900DC01CB019E838D830FC088EC93
:1015500090E09C838B838B819C810197F1F79C8326
:101560008B838D819E8101979E838D838D819E814A
:10157000009769F714C06F81788589859A850E94E4
:101580004900DC01CB019E838D838D819E819A83EE
:10159000898389819A810197F1F79A83898382E00F
:1015A00060E00E948E062F960FB6F894DEBF0FBE45
:1015B000CDBFCF91DF910895DF93CF93CDB7DEB745
:1015C0002F970FB6F894DEBF0FBECDBF8F8780E098
:1015D00061E00E948E0681E060E00E948E068F85A9
:1015E000982F917080E1692F0E948E068F858695D5
:1015F000982F917081E1692F0E948E068F858695C4
:101600008695982F917082E1692F0E948E068F85B2
:10161000869586958695982F917083E1692F0E9413
:101620008E068F8582958F70982F917084E1692F37
:101630000E948E068F85829586958770982F91706F
:1016400085E1692F0E948E068F8582958695869505
:101650008370982F917086E1692F0E948E068F8586
:10166000982F991F9927991F87E1692F0E948E064D
:1016700082E061E00E948E0680E090E0A0E0B0E4AD
:101680008B879C87AD87BE876B857C858D859E8586
:1016900020E030E04AEF54E40E941F02DC01CB015D
:1016A0008F839887A987BA876F81788589859A857E
:1016B00020E030E040E85FE30E94790388232CF4C7
:1016C00081E090E09E838D833FC06F81788589851E
:1016D0009A8520E03FEF4FE757E40E941903181660
:1016E0004CF56B857C858D859E8520E030E040E261
:1016F00051E40E941F02DC01CB01BC01CD010E941C
:101700004900DC01CB019E838D830FC088EC90E003
:101710009C838B838B819C810197F1F79C838B83C6
:101720008D819E8101979E838D838D819E810097FF
:1017300069F714C06F81788589859A850E94490070
:10174000DC01CB019E838D838D819E819A83898369
:1017500089819A810197F1F79A83898382E060E019
:101760000E948E062F960FB6F894DEBF0FBECDBF37
:10177000CF91DF910895DF93CF93CDB7DEB7AA97CE
:101780000FB6F894DEBF0FBECDBF80E061E00E94CF
:10179000A30581E061E00E94A30582E061E00E9470
:1017A000A30580E161E00E94A30581E161E00E9460
:1017B000A30582E161E00E94A30583E161E00E944C
:1017C000A30584E161E00E94A30585E161E00E9438
:1017D000A30586E161E00E94A30587E161E00E9424
:1017E000A30588E30E94FD0980E090E0A0E0B0E45A
:1017F0008FA398A7A9A7BAA76FA178A589A59AA52D
:1018000020E030E04AEF54E40E941F02DC01CB01EB
:101810008BA39CA3ADA3BEA36BA17CA18DA19EA114
:1018200020E030E040E85FE30E94790388232CF455
:1018300081E090E09AA389A33FC06BA17CA18DA118
:101840009EA120E03FEF4FE757E40E9419031816CE
:101850004CF56FA178A589A59AA520E030E040E27B
:1018600051E40E941F02DC01CB01BC01CD010E94AA
:101870004900DC01CB019AA389A30FC088EC90E05A
:1018800098A38F8F8F8D98A10197F1F798A38F8FD1
:1018900089A19AA101979AA389A389A19AA10097E6
:1018A00069F714C06BA17CA18DA19EA10E94490083
:1018B000DC01CB019AA389A389A19AA19E8F8D8F68
:1018C0008D8D9E8D0197F1F79E8F8D8F8CE00E94FC
:1018D000FD0980E090E0A0E0B0E4898F9A8FAB8FA3
:1018E000BC8F698D7A8D8B8D9C8D20E030E04AEF26
:1018F00054E40E941F02DC01CB018D8B9E8BAF8BC9
:10190000B88F6D897E898F89988D20E030E040E81E
:101910005FE30E94790388232CF481E090E09C8BA4
:101920008B8B3FC06D897E898F89988D20E03FEF3A
:101930004FE757E40E94190318164CF5698D7A8D0C
:101940008B8D9C8D20E030E040E251E40E941F022C
:10195000DC01CB01BC01CD010E944900DC01CB01BF
:101960009C8B8B8B0FC088EC90E09A8B898B89893C
:101970009A890197F1F79A8B898B8B899C890197BA
:101980009C8B8B8B8B899C89009769F714C06D8920
:101990007E898F89988D0E944900DC01CB019C8B48
:1019A0008B8B8B899C89988B8F878F8598890197E2
:1019B000F1F7988B8F8781E00E94FD0980E090E02D
:1019C000A0E0B0E48B879C87AD87BE876B857C8564
:1019D0008D859E8520E030E04AEF54E40E941F028E
:1019E000DC01CB018F839887A987BA876F817885BF
:1019F00089859A8520E030E040E85FE30E94790322
:101A000088232CF481E090E09E838D833FC06F811A
:101A1000788589859A8520E03FEF4FE757E40E945B
:101A2000190318164CF56B857C858D859E8520E005
:101A300030E040E251E40E941F02DC01CB01BC0116
:101A4000CD010E944900DC01CB019E838D830FC034
:101A500088EC90E09C838B838B819C810197F1F7CC
:101A60009C838B838D819E8101979E838D838D8145
:101A70009E81009769F714C06F81788589859A8562
:101A80000E944900DC01CB019E838D838D819E8164
:101A90009A83898389819A810197F1F79A8389834F
:101AA000AA960FB6F894DEBF0FBECDBFCF91DF91DF
:101AB0000895DF93CF9300D00F92CDB7DEB78B831D
:101AC0001A82198208C080E10E94FD0989819A81E9
:101AD00001969A8389838B81282F30E089819A81AE
:101AE0008217930784F30F900F900F90CF91DF919F
:101AF0000895DF93CF9300D00F92CDB7DEB79B83CD
:101B00008A830EC08981282F30E08A819B81FC0165
:101B1000E20FF31F80810E94DC0A89818F5F898335
:101B20008981282F30E08A819B81FC01E20FF31F1D
:101B30008081882339F70F900F900F90CF91DF911C
:101B40000895DF93CF930F92CDB7DEB7AAE2B0E04E
:101B5000EAE2F0E0808180618C93AAE2B0E0EAE200
:101B6000F0E0808188608C931982AAE2B0E0EAE21A
:101B7000F0E080818B7F8C93898184608983898167
:101B80008260898389818F7B898389818F7D898325
:101B900089818F7E89838981877F89838981806814
:101BA0008983E0E4F0E089818083E0E4F0E0108262
:101BB000E9E2F0E083E380830F90CF91DF91089515
:101BC000DF93CF930F92CDB7DEB78983EBE2F0E0DE
:101BD0008081829586958770882F90E081709070C3
:101BE0000097A1F3ECE2F0E0898180830F90CF9120
:101BF000DF910895DF93CF93CDB7DEB7EBE2F0E04E
:101C000080818823DCF7ECE2F0E08081CF91DF91E6
:101C10000895DF93CF93CDB7DEB70E94790780E8B0
:101C20008093760010927400109275000E948407D1
:101C3000FDCF2F923F924F925F926F927F928F9241
:101C40009F92AF92BF92CF92DF92EF92FF920F934B
:101C50001F93CF93DF93CDB7DEB7CA1BDB0B0FB655
:101C6000F894DEBF0FBECDBF09942A883988488812
:101C70005F846E847D848C849B84AA84B984C884A8
:101C8000DF80EE80FD800C811B81AA81B981CE0F9F
:101C9000D11D0FB6F894DEBF0FBECDBFED01089584
:041CA000F894FFCFE6
:101CA4005269676874004C656674000000000000A7
:041CB400000000002C
:00000001FF
