:100000000C942A000C9434000C9434000C943400AA
:100010000C9434000C9434000C9434000C94340090
:100020000C9434000C9434000C9434000C94340080
:100030000C9434000C9434000C9434000C94340070
:100040000C9434000C9434000C9434000C94340060
:100050000C94340011241FBECFE5D8E0DEBFCDBF25
:100060000E9434040C945E040C940000DF93CF9340
:1000700000D000D000D0CDB7DEB78B836C838B81EE
:100080008695869586958A838B81877089838A81F8
:10009000282F30E03E832D838D819E818130910514
:1000A00009F443C02D813E81223031052CF48D812D
:1000B0009E81009771F0BCC02D813E8122303105B8
:1000C00009F45FC08D819E818330910509F485C05C
:1000D000AFC08C818130A1F4AAE3B0E0EAE3F0E0A4
:1000E0008081482F8981282F30E081E090E0022E26
:1000F00002C0880F991F0A94E2F7842B8C9398C052
:10010000AAE3B0E0EAE3F0E08081482F8981282F5C
:1001100030E081E090E0022E02C0880F991F0A941F
:10012000E2F7809584238C9383C08C818130A1F485
:10013000A7E3B0E0E7E3F0E08081482F8981282F32
:1001400030E081E090E0022E02C0880F991F0A94EF
:10015000E2F7842B8C936CC0A7E3B0E0E7E3F0E018
:100160008081482F8981282F30E081E090E0022EA5
:1001700002C0880F991F0A94E2F7809584238C931C
:1001800057C08C818130A1F4A4E3B0E0E4E3F0E057
:100190008081482F8981282F30E081E090E0022E75
:1001A00002C0880F991F0A94E2F7842B8C9340C0F9
:1001B000A4E3B0E0E4E3F0E08081482F8981282FB8
:1001C00030E081E090E0022E02C0880F991F0A946F
:1001D000E2F7809584238C932BC08C818130A1F42D
:1001E000A1E3B0E0E1E3F0E08081482F8981282F8E
:1001F00030E081E090E0022E02C0880F991F0A943F
:10020000E2F7842B8C9314C0A1E3B0E0E1E3F0E0CB
:100210008081482F8981282F30E081E090E0022EF4
:1002200002C0880F991F0A94E2F7809584238C936B
:1002300026960FB6F894DEBF0FBECDBFCF91DF91EB
:100240000895DF93CF9300D000D000D0CDB7DEB7B4
:100250008B836C838B818695869586958A838B812B
:10026000877089838A81282F30E03E832D838D819A
:100270009E818130910509F443C02D813E81223059
:1002800031052CF48D819E81009771F0BCC02D81C9
:100290003E812230310509F45FC08D819E8183301B
:1002A000910509F485C0AFC08C818130A1F4ABE326
:1002B000B0E0EBE3F0E08081482F8981282F30E027
:1002C00081E090E0022E02C0880F991F0A94E2F7A5
:1002D000842B8C9398C0ABE3B0E0EBE3F0E080813B
:1002E000482F8981282F30E081E090E0022E02C063
:1002F000880F991F0A94E2F7809584238C9383C01A
:100300008C818130A1F4A8E3B0E0E8E3F0E08081E3
:10031000482F8981282F30E081E090E0022E02C032
:10032000880F991F0A94E2F7842B8C936CC0A8E382
:10033000B0E0E8E3F0E08081482F8981282F30E0A9
:1003400081E090E0022E02C0880F991F0A94E2F724
:10035000809584238C9357C08C818130A1F4A5E3D0
:10036000B0E0E5E3F0E08081482F8981282F30E07C
:1003700081E090E0022E02C0880F991F0A94E2F7F4
:10038000842B8C9340C0A5E3B0E0E5E3F0E08081EE
:10039000482F8981282F30E081E090E0022E02C0B2
:1003A000880F991F0A94E2F7809584238C932BC0C1
:1003B0008C818130A1F4A2E3B0E0E2E3F0E080813F
:1003C000482F8981282F30E081E090E0022E02C082
:1003D000880F991F0A94E2F7842B8C9314C0A2E330
:1003E000B0E0E2E3F0E08081482F8981282F30E0FF
:1003F00081E090E0022E02C0880F991F0A94E2F774
:10040000809584238C9326960FB6F894DEBF0FBE9A
:10041000CDBFCF91DF910895DF93CF9300D000D06F
:1004200000D0CDB7DEB78C8319828C81803218F072
:1004300082E089836FC08C818695869586958B83B3
:100440008C8187708A838B81282F30E03E832D83B7
:100450004D815E814130510541F18D819E81823017
:10046000910534F42D813E812115310561F052C092
:100470004D815E814230510551F18D819E818330E5
:100480009105B9F147C0E9E3F0E08081282F30E021
:100490008A81882F90E0A90102C0559547958A95D9
:1004A000E2F7CA018170898335C0E6E3F0E080811C
:1004B000282F30E08A81882F90E0A90102C055954D
:1004C00047958A95E2F7CA018170898323C0E3E3E7
:1004D000F0E08081282F30E08A81882F90E0A90108
:1004E00002C0559547958A95E2F7CA0181708983C4
:1004F00011C0E0E3F0E08081282F30E08A81882F6E
:1005000090E0A90102C0559547958A95E2F7CA0186
:1005100081708983898126960FB6F894DEBF0FBE5D
:10052000CDBFCF91DF910895DF93CF9300D00F928D
:10053000CDB7DEB789838981282F30E03B832A83BA
:100540008A819B8184309105C9F12A813B812530C4
:10055000310584F48A819B818230910529F12A81B9
:100560003B81233031052CF58A819B8181309105B7
:10057000B1F03CC02A813B812630310549F18A81A6
:100580009B8186309105FCF02A813B812730310523
:1005900021F18A819B818830910521F127C080E07B
:1005A00061E00E94360022C081E061E00E943600D6
:1005B0001DC08AE061E00E94360018C08BE061E057
:1005C0000E94360013C084E161E00E9436000EC034
:1005D00085E161E00E94360009C08EE161E00E9481
:1005E000360004C08FE161E00E9436000F900F904A
:1005F0000F90CF91DF910895DF93CF9300D00F92AA
:10060000CDB7DEB789838981282F30E03B832A83E9
:100610008A819B8184309105C9F12A813B812530F3
:10062000310584F48A819B818230910529F12A81E8
:100630003B81233031052CF58A819B8181309105E6
:10064000B1F03CC02A813B812630310549F18A81D5
:100650009B8186309105FCF02A813B812730310552
:1006600021F18A819B818830910521F127C080E0AA
:1006700061E00E94210122C081E061E00E9421012D
:100680001DC08AE061E00E94210118C08BE061E09A
:100690000E94210113C084E161E00E9421010EC08B
:1006A00085E161E00E94210109C08EE161E00E94C4
:1006B000210104C08FE161E00E9421010F900F90A1
:1006C0000F90CF91DF910895DF93CF9300D00F92D9
:1006D000CDB7DEB789838981282F30E03B832A8319
:1006E0008A819B8184309105C9F12A813B81253023
:1006F000310584F48A819B818230910529F12A8118
:100700003B81233031052CF58A819B818130910515
:10071000B1F03CC02A813B812630310549F18A8104
:100720009B8186309105FCF02A813B812730310581
:1007300021F18A819B818830910521F127C080E0D9
:1007400060E00E94210122C081E060E00E9421015E
:100750001DC08AE060E00E94210118C08BE060E0CB
:100760000E94210113C084E160E00E9421010EC0BB
:1007700085E160E00E94210109C08EE160E00E94F5
:10078000210104C08FE160E00E9421010F900F90D1
:100790000F90CF91DF910895DF93CF930F92CDB754
:1007A000DEB7AAE2B0E0EAE2F0E0808180618C93FB
:1007B000AAE2B0E0EAE2F0E0808188608C931982DE
:1007C000AAE2B0E0EAE2F0E080818B7F8C9389813D
:1007D0008460898389818260898389818F7B898311
:1007E00089818F7D898389818F7E89838981877FB4
:1007F0008983898180688983E0E4F0E0898180834E
:10080000E0E4F0E01082E9E2F0E083E380830F901F
:10081000CF91DF910895DF93CF930F92CDB7DEB7DD
:100820008983EBE2F0E08081829586958770882F3E
:1008300090E0817090700097A1F3ECE2F0E0898184
:1008400080830F90CF91DF910895DF93CF93CDB741
:10085000DEB7EBE2F0E080818823DCF7ECE2F0E049
:100860008081CF91DF910895DF93CF930F92CDB721
:10087000DEB70E94CC0387E161E00E94360086E18A
:1008800061E00E9436000E942504898389818237B5
:1008900049F487E161E00E94210186E160E00E9465
:1008A0002101F1CF8981873671F786E161E00E94ED
:1008B000210187E160E00E942101E5CFF894FFCF9C
:00000001FF
