:100000000C942A000C9447000C9447000C94470071
:100010000C9447000C9447000C9447000C94470044
:100020000C9447000C9447000C9447000C94470034
:100030000C9447000C9447000C9447000C94470024
:100040000C9447000C9447000C9447000C94470014
:100050000C94470011241FBECFE5D8E0DEBFCDBF12
:1000600010E0A8E6B0E001C01D92AF36B107E1F79D
:1000700010E0A0E6B0E0EAE9F8E202C005900D92D7
:10008000A836B107D9F70E94E20D0C944B140C94DA
:100090000000EF92FF920F931F937B018C0120E0F1
:1000A00030E040E05FE40E94490388238CF0C801FF
:1000B000B70120E030E040E05FE40E94C1010E940F
:1000C000A9039B01AC01205030404040504806C07D
:1000D000C801B7010E94A9039B01AC01B901CA0183
:1000E0001F910F91FF90EF900895A0E0B0E0EBE733
:1000F000F0E00C941414DC012B01FA019C91923075
:1001000008F439C1EB018881823008F433C194309E
:1001100069F4843009F02FC111969C91119789815F
:10012000981709F428C1A0E6B0E025C1843009F48D
:1001300021C18230A9F4923009F01DC19A01AD01AC
:1001400088E0EA010990AE01E90109929E0181501F
:10015000C1F7E201898111969C918923818308C1AD
:10016000923009F407C112962D903C901397EB0141
:100170008A819B811496AD90BD90CD90DC901797AD
:10018000EC80FD800E811F819101281B390BB90184
:1001900037FF04C066277727621B730B6032710537
:1001A0000CF061C0121613066CF537014801062EDB
:1001B00004C096948794779467940A94D2F721E0C8
:1001C00030E040E050E004C0220F331F441F551FB1
:1001D0006A95D2F721503040404050402E213F21B7
:1001E00040235123211531054105510521F021E01E
:1001F00030E040E050E079018A01E628F72808293C
:1002000019293CC0232BD1F1260E371E350146019A
:10021000062E04C096948794779467940A94D2F734
:1002200021E030E040E050E004C0220F331F441FC3
:10023000551F6A95D2F721503040404050402A2146
:100240003B214C215D21211531054105510521F04E
:1002500021E030E040E050E059016A01A628B728CB
:10026000C828D9280BC0821593052CF01C01AA249C
:10027000BB24650103C0EE24FF24870111969C91E5
:10028000D20111968C91981709F445C0992339F041
:10029000A80197012A193B094C095D0906C0A6016E
:1002A00095012E193F09400B510B57FD08C01182D3
:1002B0003382228224833583468357831DC081E0A5
:1002C00081833382228288279927DC01821B930B4A
:1002D000A40BB50B84839583A683B7830DC0220F2F
:1002E000331F441F551F24833583468357838281E0
:1002F000938101979383828324813581468157813D
:10030000DA01C9010197A109B1098F5F9F4FAF4F72
:10031000BF4328F30BC0918333822282EA0CFB1C7B
:100320000C1D1D1DE482F5820683178383E0808304
:10033000248135814681578157FF1AC0C901AA27F8
:1003400097FDA095BA2F81709070A070B0705695EF
:10035000479537952795822B932BA42BB52B848318
:100360009583A683B7838281938101969383828349
:10037000DF0101C0D201CD01CDB7DEB7E2E10C94BF
:100380003014A0E2B0E0E7ECF1E00C9420146983B3
:100390007A838B839C832D833E834F835887E9E048
:1003A000EE2EF12CEC0EFD1ECE010196B7010E943F
:1003B000D2048E010F5E1F4FCE010596B8010E9438
:1003C000D2048A8991E089278A8BC701B801AE01DE
:1003D000475E5F4F0E9475000E94FD03A096E6E015
:1003E0000C943C14A0E2B0E0E8EFF1E00C9420148F
:1003F00069837A838B839C832D833E834F835887C5
:10040000F9E0EF2EF12CEC0EFD1ECE010196B701A6
:100410000E94D2048E010F5E1F4FCE010596B801D7
:100420000E94D204C701B801AE01475E5F4F0E942F
:1004300075000E94FD03A096E6E00C943C14A0E237
:10044000B0E0E5E2F2E00C94141469837A838B83C4
:100450009C832D833E834F835887CE010196BE0136
:10046000675F7F4F0E94D204CE010596BE016F5E8A
:100470007F4F0E94D2049985923088F0898982301A
:10048000C8F0943019F4823051F404C0843029F457
:10049000923081F480E690E0C6C0923049F420E0CA
:1004A0009A858A89981321E02A87CE010996BBC0D4
:1004B000823049F420E09A858A89981321E02A8BBA
:1004C000CE014196B0C02D843E844F8458886D88FB
:1004D0007E888F88988CEE24FF248701AA24BB2471
:1004E000650140E050E060E070E0E0E0F0E0C10174
:1004F00081709070892BE9F0E60CF71C081D191D1E
:100500009A01AB012A0D3B1D4C1D5D1D80E090E062
:10051000A0E0B0E0E614F7040805190520F481E036
:1005200090E0A0E0B0E0BA01A901480F591F6A1F8E
:100530007B1FAA0CBB1CCC1CDD1C97FE08C081E0F5
:1005400090E0A0E0B0E0A82AB92ACA2ADB2A3196B6
:10055000E032F10549F0660C771C881C991C569412
:10056000479437942794C3CFFA85EA892B893C892D
:100570008B859C85280F391F2E5F3F4F17C0CA01FE
:1005800081709070892B61F016950795F794E79428
:1005900080E090E0A0E0B0E8E82AF92A0A2B1B2BC3
:1005A00076956795579547952F5F3F4F77FDE7CF36
:1005B0000CC0440F551F661F771F17FD4160EE0CDE
:1005C000FF1C001F111F21503040403090E05907A0
:1005D00090E0690790E4790760F32B8F3C8FDB0193
:1005E000CA018F779070A070B07080349105A1051A
:1005F000B10561F447FD0AC0E114F10401051105DC
:1006000029F0405C5F4F6F4F7F4F40781A8EFE1786
:1006100011F081E08A8F4D8F5E8F6F8F78A383E01A
:10062000898FCE0149960E94FD03A096E2E10C94C9
:100630003014A8E1B0E0EFE1F3E00C9420146983FA
:100640007A838B839C832D833E834F83588789E0F5
:10065000E82EF12CEC0EFD1ECE010196B7010E9492
:10066000D2048E010F5E1F4FCE010596B8010E9485
:10067000D2048985823040F08989823028F0C70110
:10068000B8010E944A0501C08FEF6896E6E00C941D
:100690003C14A8E1B0E0EFE4F3E00C94201469838B
:1006A0007A838B839C832D833E834F83588789E095
:1006B000E82EF12CEC0EFD1ECE010196B7010E9432
:1006C000D2048E010F5E1F4FCE010596B8010E9425
:1006D000D2048985823040F08989823028F0C701B0
:1006E000B8010E944A0501C08FEF6896E6E00C94BD
:1006F0003C14A8E1B0E0EFE7F3E00C942014698328
:100700007A838B839C832D833E834F83588789E034
:10071000E82EF12CEC0EFD1ECE010196B7010E94D1
:10072000D2048E010F5E1F4FCE010596B8010E94C4
:10073000D2048985823040F08989823028F0C7014F
:10074000B8010E944A0501C081E06896E6E00C9479
:100750003C14ACE0B0E0EFEAF3E00C9424146983BD
:100760007A838B839C83CE010196BE016B5F7F4FA2
:100770000E94D2048D81823061F1823050F1843048
:1007800021F48E81882351F12EC02F81388537FDC9
:1007900020C06E812F3131051CF06623F9F023C093
:1007A0008EE190E0821B930B29853A854B855C8511
:1007B00004C056954795379527958A95D2F76623B5
:1007C000B1F050954095309521953F4F4F4F5F4F79
:1007D0000EC020E030E040E050E009C02FEF3FEFD6
:1007E0004FEF5FE704C020E030E040E050E8B9019F
:1007F000CA012C96E2E00C944014DF92EF92FF9233
:100800000F931F93FC01E480F58006811781D1804E
:100810008081823048F480E090E0A0E1B0E0E82AF6
:10082000F92A0A2B1B2BA5C0843009F49FC0823003
:1008300021F4EE24FF24870105C0E114F104010531
:10084000110519F4E0E0F0E096C0628173819FEF3A
:10085000623879070CF05BC022E83FEF261B370BAC
:100860002A3131052CF020E030E040E050E02AC091
:10087000B801A701022E04C0769567955795479554
:100880000A94D2F781E090E0A0E0B0E004C0880FC5
:10089000991FAA1FBB1F2A95D2F70197A109B10979
:1008A0008E219F21A023B1230097A105B10521F03E
:1008B00081E090E0A0E0B0E09A01AB01282B392B59
:1008C0004A2B5B2BDA01C9018F779070A070B07052
:1008D00080349105A105B10539F427FF09C0205CDA
:1008E0003F4F4F4F5F4F04C0215C3F4F4F4F5F4F13
:1008F000E0E0F0E02030A0E03A07A0E04A07A0E402
:100900005A0710F0E1E0F0E079018A0127C0603871
:10091000710564F5FB01E158FF4FD801C7018F77DE
:100920009070A070B07080349105A105B10539F4C4
:10093000E7FE0DC080E490E0A0E0B0E004C08FE3EB
:1009400090E0A0E0B0E0E80EF91E0A1F1B1F17FFA1
:1009500005C016950795F794E794319687E01695AC
:100960000795F794E7948A95D1F705C0EE24FF2404
:100970008701EFEFF0E06E2F679566276795902F60
:100980009F77D794DD24D7948E2F8695492F462BB9
:10099000582F5D29B701CA011F910F91FF90EF9069
:1009A000DF900895FC01DB01408151812281622F9B
:1009B0006F7770E0221F2227221F9381892F880FD3
:1009C000822B282F30E0991F9927991F11969C930D
:1009D000119721153105A9F54115510561057105DD
:1009E00011F482E037C082E89FEF13969C938E93B8
:1009F00012979A01AB0167E0220F331F441F551F66
:100A00006A95D1F783E08C930DC0220F331F441FEA
:100A1000551F12968D919C911397019713969C9355
:100A20008E931297203080E0380780E0480780E4FA
:100A3000580758F314962D933D934D935C93179755
:100A400008952F3F310579F4411551056105710570
:100A500019F484E08C93089564FF03C081E08C93C3
:100A600012C01C9210C02F57304013963C932E9307
:100A7000129783E08C9387E0440F551F661F771F02
:100A80008A95D1F7706414964D935D936D937C9322
:100A9000179708951F93DC01FB019C91923008F495
:100AA00047C08081823008F443C0943051F41196DD
:100AB0001C91843099F58181682F70E0611B710968
:100AC0003FC0843021F0923031F48230B9F181811D
:100AD000882389F12DC011961C9111978230F1F075
:100AE00081811817D9F412962D913C911397828128
:100AF00093818217930794F028173907BCF0149656
:100B00008D919D910D90BC91A02D248135814681C0
:100B10005781281739074A075B0718F4112341F05A
:100B20000AC082179307A407B50740F4112319F0F0
:100B300061E070E005C06FEF7FEF02C060E070E041
:100B4000CB011F910895DF93CF9300D000D000D048
:100B5000CDB7DEB78B836C838B8186958695869522
:100B60008A838B81877089838A81282F30E03E8336
:100B70002D838D819E818130910509F443C02D81A3
:100B80003E81223031052CF48D819E81009771F0D9
:100B9000BCC02D813E812230310509F45FC08D81BA
:100BA0009E818330910509F485C0AFC08C8181306E
:100BB000A1F4AAE3B0E0EAE3F0E08081482F898164
:100BC000282F30E081E090E0022E02C0880F991FAC
:100BD0000A94E2F7842B8C9398C0AAE3B0E0EAE38E
:100BE000F0E08081482F8981282F30E081E090E07B
:100BF000022E02C0880F991F0A94E2F78095842381
:100C00008C9383C08C818130A1F4A7E3B0E0E7E34B
:100C1000F0E08081482F8981282F30E081E090E04A
:100C2000022E02C0880F991F0A94E2F7842B8C933E
:100C30006CC0A7E3B0E0E7E3F0E08081482F898152
:100C4000282F30E081E090E0022E02C0880F991F2B
:100C50000A94E2F7809584238C9357C08C8181306D
:100C6000A1F4A4E3B0E0E4E3F0E08081482F8981BF
:100C7000282F30E081E090E0022E02C0880F991FFB
:100C80000A94E2F7842B8C9340C0A4E3B0E0E4E341
:100C9000F0E08081482F8981282F30E081E090E0CA
:100CA000022E02C0880F991F0A94E2F780958423D0
:100CB0008C932BC08C818130A1F4A1E3B0E0E1E3FF
:100CC000F0E08081482F8981282F30E081E090E09A
:100CD000022E02C0880F991F0A94E2F7842B8C938E
:100CE00014C0A1E3B0E0E1E3F0E08081482F898106
:100CF000282F30E081E090E0022E02C0880F991F7B
:100D00000A94E2F7809584238C9326960FB6F89484
:100D1000DEBF0FBECDBFCF91DF910895DF93CF939C
:100D200000D000D000D0CDB7DEB78B836C838B8131
:100D30008695869586958A838B81877089838A813B
:100D4000282F30E03E832D838D819E818130910557
:100D500009F443C02D813E81223031052CF48D8170
:100D60009E81009771F0BCC02D813E8122303105FB
:100D700009F45FC08D819E818330910509F485C09F
:100D8000AFC08C818130A1F4ABE3B0E0EBE3F0E0E5
:100D90008081482F8981282F30E081E090E0022E69
:100DA00002C0880F991F0A94E2F7842B8C9398C095
:100DB000ABE3B0E0EBE3F0E08081482F8981282F9E
:100DC00030E081E090E0022E02C0880F991F0A9463
:100DD000E2F7809584238C9383C08C818130A1F4C9
:100DE000A8E3B0E0E8E3F0E08081482F8981282F74
:100DF00030E081E090E0022E02C0880F991F0A9433
:100E0000E2F7842B8C936CC0A8E3B0E0E8E3F0E059
:100E10008081482F8981282F30E081E090E0022EE8
:100E200002C0880F991F0A94E2F7809584238C935F
:100E300057C08C818130A1F4A5E3B0E0E5E3F0E098
:100E40008081482F8981282F30E081E090E0022EB8
:100E500002C0880F991F0A94E2F7842B8C9340C03C
:100E6000A5E3B0E0E5E3F0E08081482F8981282FF9
:100E700030E081E090E0022E02C0880F991F0A94B2
:100E8000E2F7809584238C932BC08C818130A1F470
:100E9000A2E3B0E0E2E3F0E08081482F8981282FCF
:100EA00030E081E090E0022E02C0880F991F0A9482
:100EB000E2F7842B8C9314C0A2E3B0E0E2E3F0E00D
:100EC0008081482F8981282F30E081E090E0022E38
:100ED00002C0880F991F0A94E2F7809584238C93AF
:100EE00026960FB6F894DEBF0FBECDBFCF91DF912F
:100EF0000895DF93CF9300D000D000D0CDB7DEB7F8
:100F00008C838C818695869586958B838C81877062
:100F10008A838B81282F30E03E832D834D815E8133
:100F20004130510541F18D819E818230910534F42B
:100F30002D813E812115310561F052C04D815E81C8
:100F40004230510551F18D819E8183309105B9F177
:100F500047C0E9E3F0E08081282F30E08A81882FC4
:100F600090E0A90102C0559547958A95E2F7CA011C
:100F70008170898335C0E6E3F0E08081282F30E07E
:100F80008A81882F90E0A90102C0559547958A95DE
:100F9000E2F7CA018170898323C0E3E3F0E0808136
:100FA000282F30E08A81882F90E0A90102C0559552
:100FB00047958A95E2F7CA018170898311C0E0E301
:100FC000F0E08081282F30E08A81882F90E0A9010D
:100FD00002C0559547958A95E2F7CA0181708983C9
:100FE000898126960FB6F894DEBF0FBECDBFCF9194
:100FF000DF910895DF93CF93CDB7DEB788E161E04D
:101000000E94A30589E161E00E94A3058AE161E0F5
:101010000E94A3058BE161E00E94A3058CE160E0E2
:101020000E94A3058DE160E00E94A3058EE160E0CF
:101030000E94A3058FE160E00E94A30588E161E0C2
:101040000E948E0689E161E00E948E068AE161E0DD
:101050000E948E068BE161E00E948E068CE161E0C9
:101060000E948E068DE161E00E948E068EE161E0B5
:101070000E948E068FE161E00E948E06CF91DF9183
:101080000895DF93CF93CDB7DEB72E970FB6F894C0
:10109000DEBF0FBECDBF88E160E00E948E0689E111
:1010A00061E00E948E068AE161E00E948E068BE17B
:1010B00061E00E948E068CE10E9479078C838DE1AD
:1010C0000E9479078B838EE10E9479078A838FE1E2
:1010D0000E94790789831D828C81882F90E08295F8
:1010E0009295907F9827807F9827982F8D81892BC4
:1010F0008D838B81882F90E0880F991F8295929520
:10110000907F9827807F9827982F8D81892B8D83BA
:101110008A81882F90E0002496958795079496956C
:1011200087950794982F802D982F8D81892B8D83FB
:101130008981882F90E09695982F88279795879595
:10114000982F8D81892B8D838D81282F30E03E87CC
:101150002D878D859E85803B9105D9F02D853E8517
:10116000213B310534F48D859E8580379105A1F0B2
:1011700016C02D853E85203D310541F08D859E852B
:10118000803E910561F491E09C8796C122E02C8716
:1011900093C133E03C8790C18BE28C878DC188E19D
:1011A00061E00E948E0689E160E00E948E068AE17D
:1011B00061E00E948E068BE161E00E948E068CE168
:1011C0000E9479078C838DE10E9479078B838EE1E1
:1011D0000E9479078A838FE10E94790789831D82A3
:1011E0008C81882F90E082959295907F9827807FC0
:1011F0009827982F8D81892B8D838B81882F90E064
:10120000880F991F82959295907F9827807F9827C5
:10121000982F8D81892B8D838A81882F90E00024DF
:10122000969587950794969587950794982F802D86
:10123000982F8D81892B8D838981882F90E09695B9
:10124000982F882797958795982F8D81892B8D8347
:101250008D81282F30E03B872A878A859B85803BBC
:101260009105D9F02A853B85213B310534F48A85E7
:101270009B8580379105A1F016C02A853B85203DCE
:10128000310541F08A859B85803E910561F494E0AB
:101290009C8712C125E02C870FC136E03C870CC12A
:1012A0008DE28C8709C188E161E00E948E0689E1A8
:1012B00061E00E948E068AE160E00E948E068BE16A
:1012C00061E00E948E068CE10E9479078C838DE19B
:1012D0000E9479078B838EE10E9479078A838FE1D0
:1012E0000E94790789831D828C81882F90E08295E6
:1012F0009295907F9827807F9827982F8D81892BB2
:101300008D838B81882F90E0880F991F829592950D
:10131000907F9827807F9827982F8D81892B8D83A8
:101320008A81882F90E0002496958795079496955A
:1013300087950794982F802D982F8D81892B8D83E9
:101340008981882F90E09695982F88279795879583
:10135000982F8D81892B8D838D81282F30E03987BF
:10136000288788859985803B9105D9F0288539851E
:10137000213B310534F48885998580379105A1F0AA
:1013800016C028853985203D310541F0888599852D
:10139000803E910561F497E09C878EC028E02C8701
:1013A0008BC039E03C8788C08AE28C8785C088E1A1
:1013B00061E00E948E0689E161E00E948E068AE16A
:1013C00061E00E948E068BE160E00E948E068CE157
:1013D0000E9479078C838DE10E9479078B838EE1CF
:1013E0000E9479078A838FE10E94790789831D8291
:1013F0008C81882F90E082959295907F9827807FAE
:101400009827982F8D81892B8D838B81882F90E051
:10141000880F991F82959295907F9827807F9827B3
:10142000982F8D81892B8D838A81882F90E00024CD
:10143000969587950794969587950794982F802D74
:10144000982F8D81892B8D838981882F90E09695A7
:10145000982F882797958795982F8D81892B8D8335
:101460008D81282F30E03F832E838E819F81803BAA
:101470009105D1F02E813F81213B310534F48E81DD
:101480009F818037910599F015C02E813F81203DC5
:10149000310541F08E819F81803E910559F493E2A0
:1014A0009C870AC01C8608C02DE32C8705C03FE23C
:1014B0003C8702C08FEF8C878C852E960FB6F894F0
:1014C000DEBF0FBECDBFCF91DF910895DF93CF93E5
:1014D000CDB7DEB72F970FB6F894DEBF0FBECDBFE6
:1014E0008F8788E060E00E948E0689E060E00E94BD
:1014F0008E068F85982F917080E1692F0E948E064D
:101500008F858695982F917081E1692F0E948E06B4
:101510008F8586958695982F917082E1692F0E941C
:101520008E068F85869586958695982F917083E196
:10153000692F0E948E068F8582958F70982F9170EB
:1015400084E1692F0E948E068F858295869587702B
:10155000982F917085E1692F0E948E068F85829564
:10156000869586958370982F917086E1692F0E94E9
:101570008E068F85982F991F9927991F87E1692FCC
:101580000E948E068AE061E00E948E0680E090E074
:10159000A0E0B0E48B879C87AD87BE876B857C8598
:1015A0008D859E8520E030E04AEF54E40E941F02C2
:1015B000DC01CB018F839887A987BA876F817885F3
:1015C00089859A8520E030E040E85FE30E94790356
:1015D00088232CF481E090E09E838D833FC06F814F
:1015E000788589859A8520E03FEF4FE757E40E9490
:1015F000190318164CF56B857C858D859E8520E03A
:1016000030E040E251E40E941F02DC01CB01BC014A
:10161000CD010E944900DC01CB019E838D830FC068
:1016200088EC90E09C838B838B819C810197F1F700
:101630009C838B838D819E8101979E838D838D8179
:101640009E81009769F714C06F81788589859A8596
:101650000E944900DC01CB019E838D838D819E8198
:101660009A83898389819A810197F1F79A83898383
:101670008AE060E00E948E062F960FB6F894DEBFD7
:101680000FBECDBFCF91DF910895DF93CF93CDB73C
:10169000DEB72F970FB6F894DEBF0FBECDBF8F8792
:1016A00088E061E00E948E0689E060E00E948E067C
:1016B0008F85982F917080E1692F0E948E068F850B
:1016C0008695982F917081E1692F0E948E068F85F3
:1016D00086958695982F917082E1692F0E948E06DB
:1016E0008F85869586958695982F917083E1692FD1
:1016F0000E948E068F8582958F70982F917084E15D
:10170000692F0E948E068F85829586958770982F07
:10171000917085E1692F0E948E068F85829586954E
:1017200086958370982F917086E1692F0E948E06AE
:101730008F85982F991F9927991F87E1692F0E94FC
:101740008E068AE061E00E948E0680E090E0A0E0D4
:10175000B0E48B879C87AD87BE876B857C858D8544
:101760009E8520E030E04AEF54E40E941F02DC0135
:10177000CB018F839887A987BA876F817885898500
:101780009A8520E030E040E85FE30E9479038823F7
:101790002CF481E090E09E838D833FC06F8178853B
:1017A00089859A8520E03FEF4FE757E40E941903AF
:1017B00018164CF56B857C858D859E8520E030E084
:1017C00040E251E40E941F02DC01CB01BC01CD01CB
:1017D0000E944900DC01CB019E838D830FC088EC01
:1017E00090E09C838B838B819C810197F1F79C8394
:1017F0008B838D819E8101979E838D838D819E81B8
:10180000009769F714C06F81788589859A850E9451
:101810004900DC01CB019E838D838D819E819A835B
:10182000898389819A810197F1F79A8389838AE074
:1018300060E00E948E062F960FB6F894DEBF0FBEB2
:10184000CDBFCF91DF910895DF93CF93CDB7DEB7B2
:10185000AA970FB6F894DEBF0FBECDBF88E061E057
:101860000E94A30589E061E00E94A3058AE061E08F
:101870000E94A30580E161E00E94A30581E161E08F
:101880000E94A30582E161E00E94A30583E161E07B
:101890000E94A30584E161E00E94A30585E161E067
:1018A0000E94A30586E161E00E94A30587E161E053
:1018B0000E94A30588E30E94660A80E090E0A0E011
:1018C000B0E48FA398A7A9A7BAA76FA178A589A507
:1018D0009AA520E030E04AEF54E40E941F02DC01A8
:1018E000CB018BA39CA3ADA3BEA36BA17CA18DA1B7
:1018F0009EA120E030E040E85FE30E947903882366
:101900002CF481E090E09AA389A33FC06BA17CA155
:101910008DA19EA120E03FEF4FE757E40E941903FD
:1019200018164CF56FA178A589A59AA520E030E09E
:1019300040E251E40E941F02DC01CB01BC01CD0159
:101940000E944900DC01CB019AA389A30FC088EC57
:1019500090E098A38F8F8F8D98A10197F1F798A3AE
:101960008F8F89A19AA101979AA389A389A19AA18E
:10197000009769F714C06BA17CA18DA19EA10E9464
:101980004900DC01CB019AA389A389A19AA19E8F6A
:101990008D8F8D8D9E8D0197F1F79E8F8D8F8CE0B1
:1019A0000E94660A80E090E0A0E0B0E4898F9A8F00
:1019B000AB8FBC8F698D7A8D8B8D9C8D20E030E054
:1019C0004AEF54E40E941F02DC01CB018D8B9E8BF9
:1019D000AF8BB88F6D897E898F89988D20E030E03C
:1019E00040E85FE30E94790388232CF481E090E0D3
:1019F0009C8B8B8B3FC06D897E898F89988D20E071
:101A00003FEF4FE757E40E94190318164CF5698D14
:101A10007A8D8B8D9C8D20E030E040E251E40E9475
:101A20001F02DC01CB01BC01CD010E944900DC0199
:101A3000CB019C8B8B8B0FC088EC90E09A8B898BB1
:101A400089899A890197F1F79A8B898B8B899C896F
:101A500001979C8B8B8B8B899C89009769F714C0AD
:101A60006D897E898F89988D0E944900DC01CB01A8
:101A70009C8B8B8B8B899C89988B8F878F85988982
:101A80000197F1F7988B8F8781E00E94660A80E0CA
:101A900090E0A0E0B0E48B879C87AD87BE876B8524
:101AA0007C858D859E8520E030E04AEF54E40E94DD
:101AB0001F02DC01CB018F839887A987BA876F81CA
:101AC000788589859A8520E030E040E85FE30E94D0
:101AD000790388232CF481E090E09E838D833FC0BE
:101AE0006F81788589859A8520E03FEF4FE757E43D
:101AF0000E94190318164CF56B857C858D859E8593
:101B000020E030E040E251E40E941F02DC01CB0102
:101B1000BC01CD010E944900DC01CB019E838D8375
:101B20000FC088EC90E09C838B838B819C81019714
:101B3000F1F79C838B838D819E8101979E838D839A
:101B40008D819E81009769F714C06F8178858985A2
:101B50009A850E944900DC01CB019E838D838D8193
:101B60009E819A83898389819A810197F1F79A836B
:101B70008983AA960FB6F894DEBF0FBECDBFCF9172
:101B8000DF910895DF93CF9300D00F92CDB7DEB7EA
:101B90008B831A82198208C080E10E94660A8981BB
:101BA0009A8101969A8389838B81282F30E08981DD
:101BB0009A818217930784F30F900F900F90CF9123
:101BC000DF9108950F931F93DF93CF93CDB7DEB7C7
:101BD000C656D0400FB6F894DEBF0FBECDBF81E829
:101BE00080936E000E94240C0E94FA070E94410814
:101BF00080936A0080916A008F3F09F49BC18091B5
:101C00006A00282F30E0A7963FAF2EAFA797A79680
:101C10008EAD9FADA7978430910509F48FC0A7962C
:101C2000EEADFFADA797E530F10544F5A7962EADD3
:101C30003FADA7972130310509F45CC0A7968EAD62
:101C40009FADA7978230910544F4A796EEADFFAD06
:101C5000A797309709F443C0B8C0A7962EAD3FAD03
:101C6000A7972230310509F451C0A7968EAD9FADDC
:101C7000A7978330910509F455C0A7C0A796EEAD8C
:101C8000FFADA797E730F10509F47CC0A7962EAD0C
:101C90003FADA797283031058CF4A7968EAD9FAD48
:101CA000A7978530910509F455C0A796EEADFFAD15
:101CB000A797E630F10509F459C087C0A7962EAD65
:101CC0003FADA7972830310509F468C0A7968EADBF
:101CD0009FADA7978930910509F46CC076C080E864
:101CE0000E94660A80E30E94450B10926B001092DE
:101CF0006A006BC080E80E94660A81E30E94450B7F
:101D000081E080936B0010926A005FC080E80E94BF
:101D1000660A82E30E94450B82E080936B0010927A
:101D20006A0053C080E80E94660A83E30E94450B64
:101D300083E080936B0010926A0047C080E80E94A5
:101D4000660A84E30E94450B84E080936B00109246
:101D50006A003BC080E80E94660A85E30E94450B4A
:101D600085E080936B0010926A002FC080E80E948B
:101D7000660A86E30E94450B86E080936B00109212
:101D80006A0023C080E80E94660A87E30E94450B30
:101D900087E080936B0010926A0017C080E80E9471
:101DA000660A88E30E94450B88E080936B001092DE
:101DB0006A000BC080E80E94660A89E30E94450B16
:101DC00089E080936B0010926A00FE01E15AFF4F98
:101DD00080E090E0AAEFB4E480839183A283B38390
:101DE0008E01055A1F4FFE01E15AFF4F608171813C
:101DF0008281938120E030E04AEF54E40E941F0288
:101E0000DC01CB01F80180839183A283B383FE01BF
:101E1000E55AFF4F608171818281938120E030E03B
:101E200040E85FE30E947903882344F4FE01E75A07
:101E3000FF4F81E090E09183808364C0FE01E55A0A
:101E4000FF4F608171818281938120E03FEF4FE7F6
:101E500057E40E94190318160CF043C0FE01E15A22
:101E6000FF4F608171818281938120E030E040E208
:101E700051E40E941F02DC01CB018E01075A1F4F63
:101E8000BC01CD010E944900DC01CB01F801918326
:101E900080831FC0FE01E95AFF4F88EC90E09183D8
:101EA0008083FE01E95AFF4F808191810197F1F70C
:101EB000FE01E95AFF4F91838083DE01A75ABF4F8D
:101EC000FE01E75AFF4F80819181019711969C9303
:101ED0008E93FE01E75AFF4F808191810097D1F6E2
:101EE00031C08E01075A1F4FFE01E55AFF4F608136
:101EF0007181828193810E944900DC01CB01F8014C
:101F000091838083DE01AB5ABF4FFE01E75AFF4F3A
:101F10008081918111969C938E93FE01EB5AFF4F25
:101F2000808191810197F1F7FE01EB5AFF4F918378
:101F3000808308C080916A008F3F21F4E2E3F0E0E3
:101F40008FEF80830E94410880936E0080916E0025
:101F50008B3209F0C3C081E80E94660A80916E004E
:101F60000E94450B90916B0080916800890F8093CF
:101F70006C00FE01EF5AFF4F80E090E0A0EAB0E471
:101F800080839183A283B3838E01035B1F4FFE0185
:101F9000EF5AFF4F608171818281938120E030E0B0
:101FA0004AEF54E40E941F02DC01CB01F801808358
:101FB0009183A283B383FE01E35BFF4F6081718154
:101FC0008281938120E030E040E85FE30E94790362
:101FD000882344F4FE01E55BFF4F81E090E09183AC
:101FE000808364C0FE01E35BFF4F60817181828169
:101FF000938120E03FEF4FE757E40E941903181642
:102000000CF043C0FE01EF5AFF4F60817181828165
:10201000938120E030E040E251E40E941F02DC01A5
:10202000CB018E01055B1F4FBC01CD010E94490011
:10203000DC01CB01F801918380831FC0FE01E75BC7
:10204000FF4F88EC90E091838083FE01E75BFF4FB8
:10205000808191810197F1F7FE01E75BFF4F91834A
:102060008083DE01A55BBF4FFE01E55BFF4F8081F2
:102070009181019711969C938E93FE01E55BFF4F32
:10208000808191810097D1F6D3C18E01055B1F4FEE
:10209000FE01E35BFF4F60817181828193810E9429
:1020A0004900DC01CB01F80191838083DE01A95B4B
:1020B000BF4FFE01E55BFF4F8081918111969C939C
:1020C0008E93FE01E95BFF4F808191810197F1F7CB
:1020D000FE01E95BFF4F91838083AAC180916E006E
:1020E0008D3209F096C081E80E94660A80916E00E8
:1020F0000E94450B90916B0080916800F92FF81BAE
:102100008F2F80936C00FE01ED5BFF4F80E090E02D
:10211000A0EAB0E480839183A283B3838E01015C43
:102120001F4FFE01ED5BFF4F6081718182819381C2
:1021300020E030E04AEF54E40E941F02DC01CB01B2
:10214000F80180839183A283B383FE01FF966081AF
:1021500071818281938120E030E040E85FE30E945A
:10216000790388232CF481E090E09EAF8DAF46C0C8
:10217000FE01FF96608171818281938120E03FEFB3
:102180004FE757E40E941903181664F5FE01ED5B52
:10219000FF4F608171818281938120E030E040E2D5
:1021A00051E40E941F02DC01CB01BC01CD010E9461
:1021B0004900DC01CB019EAF8DAF0FC088EC90E0F1
:1021C0009CAF8BAF8BAD9CAD0197F1F79CAF8BAF04
:1021D0008DAD9EAD01979EAF8DAF8DAD9EAD00973D
:1021E00069F726C1FE01FF9660817181828193812A
:1021F0000E944900DC01CB019EAF8DAF8DAD9EAD3D
:102200009AAF89AF89AD9AAD0197F1F79AAF89AFCF
:102210000FC180916E008A3209F083C081E80E946C
:10222000660A80916E000E94450B90916B00809130
:102230006800989F802D112480936C0080E090E0CE
:10224000A0EAB0E48DAB9EABAFABB8AF6DA97EA9F1
:102250008FA998AD20E030E04AEF54E40E941F02BD
:10226000DC01CB0189AB9AABABABBCAB69A97AA95A
:102270008BA99CA920E030E040E85FE30E9479034D
:1022800088232CF481E090E098AB8FA73FC069A928
:102290007AA98BA99CA920E03FEF4FE757E40E9461
:1022A000190318164CF56DA97EA98FA998AD20E0E9
:1022B00030E040E251E40E941F02DC01CB01BC018E
:1022C000CD010E944900DC01CB0198AB8FA70FC064
:1022D00088EC90E09EA78DA78DA59EA50197F1F7AC
:1022E0009EA78DA78FA598A9019798AB8FA78FA5BB
:1022F00098A9009769F79CC069A97AA98BA99CA99C
:102300000E944900DC01CB0198AB8FA78FA598A94B
:102310009CA78BA78BA59CA50197F1F79CA78BA7E2
:1023200087C080916E008F3209F082C081E80E94E0
:10233000660A80916E000E94450B80916B0090911F
:102340006800692F0E94081480936C0080E090E080
:10235000A0EAB0E48FA398A7A9A7BAA76FA178A510
:1023600089A59AA520E030E04AEF54E40E941F02BC
:10237000DC01CB018BA39CA3ADA3BEA36BA17CA16D
:102380008DA19EA120E030E040E85FE30E94790348
:1023900088232CF481E090E09AA389A33FC06BA12D
:1023A0007CA18DA19EA120E03FEF4FE757E40E9462
:1023B000190318164CF56FA178A589A59AA520E0F8
:1023C00030E040E251E40E941F02DC01CB01BC017D
:1023D000CD010E944900DC01CB019AA389A30FC063
:1023E00088EC90E098A38F8F8F8D98A10197F1F7DB
:1023F00098A38F8F89A19AA101979AA389A389A1F4
:102400009AA1009769F714C06BA17CA18DA19EA130
:102410000E944900DC01CB019AA389A389A19AA15A
:102420009E8F8D8F8D8D9E8D0197F1F79E8F8D8F55
:102430000E94410880936900809169008F3F09F4F0
:10244000E6C080916900282F30E0A5963FAF2EAFFF
:10245000A597A5968EAD9FADA5978430910509F4FB
:102460008FC0A596EEADFFADA597E530F10544F51B
:10247000A5962EAD3FADA5972130310509F45CC07E
:10248000A5968EAD9FADA5978230910544F4A59693
:10249000EEADFFADA597309709F443C0B8C0A5963F
:1024A0002EAD3FADA5972230310509F451C0A59658
:1024B0008EAD9FADA5978330910509F455C0A7C097
:1024C000A596EEADFFADA597E730F10509F47CC008
:1024D000A5962EAD3FADA597283031058CF4A59675
:1024E0008EAD9FADA5978530910509F455C0A59691
:1024F000EEADFFADA597E630F10509F459C087C0F0
:10250000A5962EAD3FADA5972830310509F468C0DA
:10251000A5968EAD9FADA5978930910509F46CC045
:1025200076C082E80E94660A80E30E94450B109202
:102530006800109269006BC082E80E94660A81E31D
:102540000E94450B81E080936800109269005FC093
:1025500082E80E94660A82E30E94450B82E0809333
:1025600068001092690053C082E80E94660A83E303
:102570000E94450B83E0809368001092690047C079
:1025800082E80E94660A84E30E94450B84E08093FF
:102590006800109269003BC082E80E94660A85E3E9
:1025A0000E94450B85E080936800109269002FC05F
:1025B00082E80E94660A86E30E94450B86E08093CB
:1025C00068001092690023C082E80E94660A87E3CF
:1025D0000E94450B87E0809368001092690017C045
:1025E00082E80E94660A88E30E94450B88E0809397
:1025F0006800109269000BC082E80E94660A89E3B5
:102600000E94450B89E0809368001092690080E089
:1026100090E0A0EAB0E4898F9A8FAB8FBC8F698D70
:102620007A8D8B8D9C8D20E030E04AEF54E40E943F
:102630001F02DC01CB018D8B9E8BAF8BB88F6D8918
:102640007E898F89988D20E030E040E85FE30E942A
:10265000790388232CF481E090E09C8B8B8B3FC026
:102660006D897E898F89988D20E03FEF4FE757E491
:102670000E94190318164CF5698D7A8D8B8D9C8DEF
:1026800020E030E040E251E40E941F02DC01CB0177
:10269000BC01CD010E944900DC01CB019C8B8B8BDE
:1026A0000FC088EC90E09A8B898B89899A89019771
:1026B000F1F79A8B898B8B899C8901979C8B8B8BEB
:1026C0008B899C89009769F714C06D897E898F89F1
:1026D000988D0E944900DC01CB019C8B8B8B8B89F0
:1026E0009C89988B8F878F8598890197F1F7988BB4
:1026F0008F870E94410880936D0080916D008D331B
:1027000009F081C083E80E94660A8DE30E94450BB0
:1027100080E090E0A8E4B3E48B879C87AD87BE8718
:102720006B857C858D859E8520E030E04AEF54E402
:102730000E941F02DC01CB018F839887A987BA878B
:102740006F81788589859A8520E030E040E85FE3F5
:102750000E94790388232CF481E090E09E838D838E
:102760003FC06F81788589859A8520E03FEF4FE7EC
:1027700057E40E94190318164CF56B857C858D85EE
:102780009E8520E030E040E251E40E941F02DC011F
:10279000CB01BC01CD010E944900DC01CB019E832D
:1027A0008D830FC088EC90E09C838B838B819C8110
:1027B0000197F1F79C838B838D819E8101979E8386
:1027C0008D838D819E81009769F714C06F81788514
:1027D00089859A850E944900DC01CB019E838D8307
:1027E0008D819E819A83898389819A810197F1F7EE
:1027F0009A83898384E80E94660A80916C00805DD8
:102800000E94450BF3C9E2E3F0E08FEF8083EEC94D
:10281000991B79E004C0991F961708F0961B881F32
:102820007A95C9F7809508952F923F924F925F92C3
:102830006F927F928F929F92AF92BF92CF92DF92D0
:10284000EF92FF920F931F93CF93DF93CDB7DEB735
:10285000CA1BDB0B0FB6F894DEBF0FBECDBF0994C9
:102860002A88398848885F846E847D848C849B8420
:10287000AA84B984C884DF80EE80FD800C811B812E
:10288000AA81B981CE0FD11D0FB6F894DEBF0FBE5D
:0A289000CDBFED010895F894FFCFCD
:08289A00000000000000000036
:00000001FF
