:100000000C942A000C943C000C943C000C943C0092
:100010000C943C000C943C000C943C000C943C0070
:100020000C943C000C943C000C943C000C94CD03CC
:100030000C943C000C943C000C943C000C943C0050
:100040000C943C000C943C000C943C000C943C0040
:100050000C943C0011241FBECFE5D8E0DEBFCDBF1D
:1000600010E0A0E6B0E001C01D92A736B107E1F7AD
:100070000E944C030C9418040C940000DF93CF935F
:1000800000D000D000D0CDB7DEB78B836C838B81DE
:100090008695869586958A838B81877089838A81E8
:1000A000282F30E03E832D838D819E818130910504
:1000B00009F443C02D813E81223031052CF48D811D
:1000C0009E81009771F0BCC02D813E8122303105A8
:1000D00009F45FC08D819E818330910509F485C04C
:1000E000AFC08C818130A1F4AAE3B0E0EAE3F0E094
:1000F0008081482F8981282F30E081E090E0022E16
:1001000002C0880F991F0A94E2F7842B8C9398C041
:10011000AAE3B0E0EAE3F0E08081482F8981282F4C
:1001200030E081E090E0022E02C0880F991F0A940F
:10013000E2F7809584238C9383C08C818130A1F475
:10014000A7E3B0E0E7E3F0E08081482F8981282F22
:1001500030E081E090E0022E02C0880F991F0A94DF
:10016000E2F7842B8C936CC0A7E3B0E0E7E3F0E008
:100170008081482F8981282F30E081E090E0022E95
:1001800002C0880F991F0A94E2F7809584238C930C
:1001900057C08C818130A1F4A4E3B0E0E4E3F0E047
:1001A0008081482F8981282F30E081E090E0022E65
:1001B00002C0880F991F0A94E2F7842B8C9340C0E9
:1001C000A4E3B0E0E4E3F0E08081482F8981282FA8
:1001D00030E081E090E0022E02C0880F991F0A945F
:1001E000E2F7809584238C932BC08C818130A1F41D
:1001F000A1E3B0E0E1E3F0E08081482F8981282F7E
:1002000030E081E090E0022E02C0880F991F0A942E
:10021000E2F7842B8C9314C0A1E3B0E0E1E3F0E0BB
:100220008081482F8981282F30E081E090E0022EE4
:1002300002C0880F991F0A94E2F7809584238C935B
:1002400026960FB6F894DEBF0FBECDBFCF91DF91DB
:100250000895DF93CF9300D000D000D0CDB7DEB7A4
:100260008B836C838B818695869586958A838B811B
:10027000877089838A81282F30E03E832D838D818A
:100280009E818130910509F443C02D813E81223049
:1002900031052CF48D819E81009771F0BCC02D81B9
:1002A0003E812230310509F45FC08D819E8183300B
:1002B000910509F485C0AFC08C818130A1F4ABE316
:1002C000B0E0EBE3F0E08081482F8981282F30E017
:1002D00081E090E0022E02C0880F991F0A94E2F795
:1002E000842B8C9398C0ABE3B0E0EBE3F0E080812B
:1002F000482F8981282F30E081E090E0022E02C053
:10030000880F991F0A94E2F7809584238C9383C009
:100310008C818130A1F4A8E3B0E0E8E3F0E08081D3
:10032000482F8981282F30E081E090E0022E02C022
:10033000880F991F0A94E2F7842B8C936CC0A8E372
:10034000B0E0E8E3F0E08081482F8981282F30E099
:1003500081E090E0022E02C0880F991F0A94E2F714
:10036000809584238C9357C08C818130A1F4A5E3C0
:10037000B0E0E5E3F0E08081482F8981282F30E06C
:1003800081E090E0022E02C0880F991F0A94E2F7E4
:10039000842B8C9340C0A5E3B0E0E5E3F0E08081DE
:1003A000482F8981282F30E081E090E0022E02C0A2
:1003B000880F991F0A94E2F7809584238C932BC0B1
:1003C0008C818130A1F4A2E3B0E0E2E3F0E080812F
:1003D000482F8981282F30E081E090E0022E02C072
:1003E000880F991F0A94E2F7842B8C9314C0A2E320
:1003F000B0E0E2E3F0E08081482F8981282F30E0EF
:1004000081E090E0022E02C0880F991F0A94E2F763
:10041000809584238C9326960FB6F894DEBF0FBE8A
:10042000CDBFCF91DF910895DF93CF9300D00F928E
:10043000CDB7DEB789838981282F30E03B832A83BB
:100440008A819B8184309105C9F12A813B812530C5
:10045000310584F48A819B818230910529F12A81BA
:100460003B81233031052CF58A819B8181309105B8
:10047000B1F03CC02A813B812630310549F18A81A7
:100480009B8186309105FCF02A813B812730310524
:1004900021F18A819B818830910521F127C080E07C
:1004A00061E00E943E0022C081E061E00E943E00C7
:1004B0001DC08AE061E00E943E0018C08BE061E050
:1004C0000E943E0013C084E161E00E943E000EC025
:1004D00085E161E00E943E0009C08EE161E00E947A
:1004E0003E0004C08FE161E00E943E000F900F903B
:1004F0000F90CF91DF910895DF93CF9300D00F92AB
:10050000CDB7DEB789838981282F30E03B832A83EA
:100510008A819B8184309105C9F12A813B812530F4
:10052000310584F48A819B818230910529F12A81E9
:100530003B81233031052CF58A819B8181309105E7
:10054000B1F03CC02A813B812630310549F18A81D6
:100550009B8186309105FCF02A813B812730310553
:1005600021F18A819B818830910521F127C080E0AB
:1005700061E00E94290122C081E061E00E9429011E
:100580001DC08AE061E00E94290118C08BE061E093
:100590000E94290113C084E161E00E9429010EC07C
:1005A00085E161E00E94290109C08EE161E00E94BD
:1005B000290104C08FE161E00E9429010F900F9092
:1005C0000F90CF91DF910895DF93CF9300D00F92DA
:1005D000CDB7DEB789838981282F30E03B832A831A
:1005E0008A819B8184309105C9F12A813B81253024
:1005F000310584F48A819B818230910529F12A8119
:100600003B81233031052CF58A819B818130910516
:10061000B1F03CC02A813B812630310549F18A8105
:100620009B8186309105FCF02A813B812730310582
:1006300021F18A819B818830910521F127C080E0DA
:1006400060E00E94290122C081E060E00E9429014F
:100650001DC08AE060E00E94290118C08BE060E0C4
:100660000E94290113C084E160E00E9429010EC0AC
:1006700085E160E00E94290109C08EE160E00E94EE
:10068000290104C08FE160E00E9429010F900F90C2
:100690000F90CF91DF910895DF93CF93CDB7DEB761
:1006A00081E00E941402EBE3F0E08FEF808384EF9F
:1006B00091E00E946303EBE3F0E0108284EF91E0AD
:1006C0000E946303EDCFDF93CF9300D0CDB7DEB7A9
:1006D0009A838983109265001092640010926100E1
:1006E0001092600089819A819093630080936200E8
:1006F00010926600A3E5B0E0E3E5F0E080818F7B37
:100700008C93A3E5B0E0E3E5F0E08081877F8C93F4
:10071000A3E5B0E0E3E5F0E080818B7F8C93A3E577
:10072000B0E0E3E5F0E080818D7F8C93A3E5B0E05D
:10073000E3E5F0E0808181608C93AFE5B0E0EFE528
:10074000F0E0808180688C93A9E5B0E0E9E5F0E015
:10075000808181608C93E2E5F0E080EC8083809181
:1007600066008823E1F3A3E5B0E0E3E5F0E08081F3
:100770008B7F8C93A3E5B0E0E3E5F0E080818D7F93
:100780008C93A3E5B0E0E3E5F0E080818E7F8C936D
:100790000F900F90CF91DF9108951F920F920FB697
:1007A0000F9211242F933F938F939F93EF93FF9377
:1007B000DF93CF93CDB7DEB7809160009091610059
:1007C0000196909361008093600080916000909109
:1007D000610080329105F9F4E2E5F0E080EC80837D
:1007E0001092610010926000809164009091650009
:1007F000019690936500809364002091640030918D
:10080000650080916200909163002817390719F400
:1008100081E080936600CF91DF91FF91EF919F91EE
:100820008F913F912F910F900FBE0F901F901895B1
:04083000F894FFCF6A
:00000001FF
